{
  "contractName": "PostageStamp",
  "abi": [
    {
      "inputs": [
        {
          "internalType": "address",
          "name": "_bzzToken",
          "type": "address"
        },
        {
          "internalType": "uint8",
          "name": "_minimumBucketDepth",
          "type": "uint8"
        }
      ],
      "stateMutability": "nonpayable",
      "type": "constructor"
    },
    {
      "anonymous": false,
      "inputs": [
        {
          "indexed": true,
          "internalType": "bytes32",
          "name": "batchId",
          "type": "bytes32"
        },
        {
          "indexed": false,
          "internalType": "uint256",
          "name": "totalAmount",
          "type": "uint256"
        },
        {
          "indexed": false,
          "internalType": "uint256",
          "name": "normalisedBalance",
          "type": "uint256"
        },
        {
          "indexed": false,
          "internalType": "address",
          "name": "owner",
          "type": "address"
        },
        {
          "indexed": false,
          "internalType": "uint8",
          "name": "depth",
          "type": "uint8"
        },
        {
          "indexed": false,
          "internalType": "uint8",
          "name": "bucketDepth",
          "type": "uint8"
        },
        {
          "indexed": false,
          "internalType": "bool",
          "name": "immutableFlag",
          "type": "bool"
        }
      ],
      "name": "BatchCreated",
      "type": "event"
    },
    {
      "anonymous": false,
      "inputs": [
        {
          "indexed": true,
          "internalType": "bytes32",
          "name": "batchId",
          "type": "bytes32"
        },
        {
          "indexed": false,
          "internalType": "uint8",
          "name": "newDepth",
          "type": "uint8"
        },
        {
          "indexed": false,
          "internalType": "uint256",
          "name": "normalisedBalance",
          "type": "uint256"
        }
      ],
      "name": "BatchDepthIncrease",
      "type": "event"
    },
    {
      "anonymous": false,
      "inputs": [
        {
          "indexed": true,
          "internalType": "bytes32",
          "name": "batchId",
          "type": "bytes32"
        },
        {
          "indexed": false,
          "internalType": "uint256",
          "name": "topupAmount",
          "type": "uint256"
        },
        {
          "indexed": false,
          "internalType": "uint256",
          "name": "normalisedBalance",
          "type": "uint256"
        }
      ],
      "name": "BatchTopUp",
      "type": "event"
    },
    {
      "anonymous": false,
      "inputs": [
        {
          "indexed": false,
          "internalType": "address",
          "name": "account",
          "type": "address"
        }
      ],
      "name": "Paused",
      "type": "event"
    },
    {
      "anonymous": false,
      "inputs": [
        {
          "indexed": false,
          "internalType": "uint256",
          "name": "price",
          "type": "uint256"
        }
      ],
      "name": "PriceUpdate",
      "type": "event"
    },
    {
      "anonymous": false,
      "inputs": [
        {
          "indexed": true,
          "internalType": "bytes32",
          "name": "role",
          "type": "bytes32"
        },
        {
          "indexed": true,
          "internalType": "bytes32",
          "name": "previousAdminRole",
          "type": "bytes32"
        },
        {
          "indexed": true,
          "internalType": "bytes32",
          "name": "newAdminRole",
          "type": "bytes32"
        }
      ],
      "name": "RoleAdminChanged",
      "type": "event"
    },
    {
      "anonymous": false,
      "inputs": [
        {
          "indexed": true,
          "internalType": "bytes32",
          "name": "role",
          "type": "bytes32"
        },
        {
          "indexed": true,
          "internalType": "address",
          "name": "account",
          "type": "address"
        },
        {
          "indexed": true,
          "internalType": "address",
          "name": "sender",
          "type": "address"
        }
      ],
      "name": "RoleGranted",
      "type": "event"
    },
    {
      "anonymous": false,
      "inputs": [
        {
          "indexed": true,
          "internalType": "bytes32",
          "name": "role",
          "type": "bytes32"
        },
        {
          "indexed": true,
          "internalType": "address",
          "name": "account",
          "type": "address"
        },
        {
          "indexed": true,
          "internalType": "address",
          "name": "sender",
          "type": "address"
        }
      ],
      "name": "RoleRevoked",
      "type": "event"
    },
    {
      "anonymous": false,
      "inputs": [
        {
          "indexed": false,
          "internalType": "address",
          "name": "account",
          "type": "address"
        }
      ],
      "name": "Unpaused",
      "type": "event"
    },
    {
      "inputs": [],
      "name": "DEFAULT_ADMIN_ROLE",
      "outputs": [
        {
          "internalType": "bytes32",
          "name": "",
          "type": "bytes32"
        }
      ],
      "stateMutability": "view",
      "type": "function"
    },
    {
      "inputs": [],
      "name": "PAUSER_ROLE",
      "outputs": [
        {
          "internalType": "bytes32",
          "name": "",
          "type": "bytes32"
        }
      ],
      "stateMutability": "view",
      "type": "function"
    },
    {
      "inputs": [],
      "name": "PRICE_ORACLE_ROLE",
      "outputs": [
        {
          "internalType": "bytes32",
          "name": "",
          "type": "bytes32"
        }
      ],
      "stateMutability": "view",
      "type": "function"
    },
    {
      "inputs": [],
      "name": "REDISTRIBUTOR_ROLE",
      "outputs": [
        {
          "internalType": "bytes32",
          "name": "",
          "type": "bytes32"
        }
      ],
      "stateMutability": "view",
      "type": "function"
    },
    {
      "inputs": [
        {
          "internalType": "bytes32",
          "name": "",
          "type": "bytes32"
        }
      ],
      "name": "batches",
      "outputs": [
        {
          "internalType": "address",
          "name": "owner",
          "type": "address"
        },
        {
          "internalType": "uint8",
          "name": "depth",
          "type": "uint8"
        },
        {
          "internalType": "bool",
          "name": "immutableFlag",
          "type": "bool"
        },
        {
          "internalType": "uint256",
          "name": "normalisedBalance",
          "type": "uint256"
        }
      ],
      "stateMutability": "view",
      "type": "function"
    },
    {
      "inputs": [],
      "name": "bzzToken",
      "outputs": [
        {
          "internalType": "address",
          "name": "",
          "type": "address"
        }
      ],
      "stateMutability": "view",
      "type": "function"
    },
    {
      "inputs": [
        {
          "internalType": "bytes32",
          "name": "role",
          "type": "bytes32"
        }
      ],
      "name": "getRoleAdmin",
      "outputs": [
        {
          "internalType": "bytes32",
          "name": "",
          "type": "bytes32"
        }
      ],
      "stateMutability": "view",
      "type": "function"
    },
    {
      "inputs": [
        {
          "internalType": "bytes32",
          "name": "role",
          "type": "bytes32"
        },
        {
          "internalType": "address",
          "name": "account",
          "type": "address"
        }
      ],
      "name": "grantRole",
      "outputs": [],
      "stateMutability": "nonpayable",
      "type": "function"
    },
    {
      "inputs": [
        {
          "internalType": "bytes32",
          "name": "role",
          "type": "bytes32"
        },
        {
          "internalType": "address",
          "name": "account",
          "type": "address"
        }
      ],
      "name": "hasRole",
      "outputs": [
        {
          "internalType": "bool",
          "name": "",
          "type": "bool"
        }
      ],
      "stateMutability": "view",
      "type": "function"
    },
    {
      "inputs": [],
      "name": "lastExpiryBalance",
      "outputs": [
        {
          "internalType": "uint256",
          "name": "",
          "type": "uint256"
        }
      ],
      "stateMutability": "view",
      "type": "function"
    },
    {
      "inputs": [],
      "name": "lastPrice",
      "outputs": [
        {
          "internalType": "uint256",
          "name": "",
          "type": "uint256"
        }
      ],
      "stateMutability": "view",
      "type": "function"
    },
    {
      "inputs": [],
      "name": "lastUpdatedBlock",
      "outputs": [
        {
          "internalType": "uint256",
          "name": "",
          "type": "uint256"
        }
      ],
      "stateMutability": "view",
      "type": "function"
    },
    {
      "inputs": [],
      "name": "minimumBucketDepth",
      "outputs": [
        {
          "internalType": "uint8",
          "name": "",
          "type": "uint8"
        }
      ],
      "stateMutability": "view",
      "type": "function"
    },
    {
      "inputs": [],
      "name": "paused",
      "outputs": [
        {
          "internalType": "bool",
          "name": "",
          "type": "bool"
        }
      ],
      "stateMutability": "view",
      "type": "function"
    },
    {
      "inputs": [],
      "name": "pot",
      "outputs": [
        {
          "internalType": "uint256",
          "name": "",
          "type": "uint256"
        }
      ],
      "stateMutability": "view",
      "type": "function"
    },
    {
      "inputs": [
        {
          "internalType": "bytes32",
          "name": "role",
          "type": "bytes32"
        },
        {
          "internalType": "address",
          "name": "account",
          "type": "address"
        }
      ],
      "name": "renounceRole",
      "outputs": [],
      "stateMutability": "nonpayable",
      "type": "function"
    },
    {
      "inputs": [
        {
          "internalType": "bytes32",
          "name": "role",
          "type": "bytes32"
        },
        {
          "internalType": "address",
          "name": "account",
          "type": "address"
        }
      ],
      "name": "revokeRole",
      "outputs": [],
      "stateMutability": "nonpayable",
      "type": "function"
    },
    {
      "inputs": [
        {
          "internalType": "bytes4",
          "name": "interfaceId",
          "type": "bytes4"
        }
      ],
      "name": "supportsInterface",
      "outputs": [
        {
          "internalType": "bool",
          "name": "",
          "type": "bool"
        }
      ],
      "stateMutability": "view",
      "type": "function"
    },
    {
      "inputs": [],
      "name": "validChunkCount",
      "outputs": [
        {
          "internalType": "uint256",
          "name": "",
          "type": "uint256"
        }
      ],
      "stateMutability": "view",
      "type": "function"
    },
    {
      "inputs": [
        {
          "internalType": "address",
          "name": "_owner",
          "type": "address"
        },
        {
          "internalType": "uint256",
          "name": "_initialBalancePerChunk",
          "type": "uint256"
        },
        {
          "internalType": "uint8",
          "name": "_depth",
          "type": "uint8"
        },
        {
          "internalType": "uint8",
          "name": "_bucketDepth",
          "type": "uint8"
        },
        {
          "internalType": "bytes32",
          "name": "_nonce",
          "type": "bytes32"
        },
        {
          "internalType": "bool",
          "name": "_immutable",
          "type": "bool"
        }
      ],
      "name": "createBatch",
      "outputs": [],
      "stateMutability": "nonpayable",
      "type": "function"
    },
    {
      "inputs": [
        {
          "internalType": "address",
          "name": "_owner",
          "type": "address"
        },
        {
          "internalType": "uint256",
          "name": "_initialBalancePerChunk",
          "type": "uint256"
        },
        {
          "internalType": "uint8",
          "name": "_depth",
          "type": "uint8"
        },
        {
          "internalType": "uint8",
          "name": "_bucketDepth",
          "type": "uint8"
        },
        {
          "internalType": "bytes32",
          "name": "_batchId",
          "type": "bytes32"
        },
        {
          "internalType": "bool",
          "name": "_immutable",
          "type": "bool"
        }
      ],
      "name": "copyBatch",
      "outputs": [],
      "stateMutability": "nonpayable",
      "type": "function"
    },
    {
      "inputs": [
        {
          "internalType": "bytes32",
          "name": "_batchId",
          "type": "bytes32"
        },
        {
          "internalType": "uint256",
          "name": "_topupAmountPerChunk",
          "type": "uint256"
        }
      ],
      "name": "topUp",
      "outputs": [],
      "stateMutability": "nonpayable",
      "type": "function"
    },
    {
      "inputs": [
        {
          "internalType": "bytes32",
          "name": "_batchId",
          "type": "bytes32"
        },
        {
          "internalType": "uint8",
          "name": "_newDepth",
          "type": "uint8"
        }
      ],
      "name": "increaseDepth",
      "outputs": [],
      "stateMutability": "nonpayable",
      "type": "function"
    },
    {
      "inputs": [
        {
          "internalType": "bytes32",
          "name": "_batchId",
          "type": "bytes32"
        }
      ],
      "name": "remainingBalance",
      "outputs": [
        {
          "internalType": "uint256",
          "name": "",
          "type": "uint256"
        }
      ],
      "stateMutability": "view",
      "type": "function"
    },
    {
      "inputs": [
        {
          "internalType": "uint256",
          "name": "_price",
          "type": "uint256"
        }
      ],
      "name": "setPrice",
      "outputs": [],
      "stateMutability": "nonpayable",
      "type": "function"
    },
    {
      "inputs": [],
      "name": "currentTotalOutPayment",
      "outputs": [
        {
          "internalType": "uint256",
          "name": "",
          "type": "uint256"
        }
      ],
      "stateMutability": "view",
      "type": "function"
    },
    {
      "inputs": [],
      "name": "pause",
      "outputs": [],
      "stateMutability": "nonpayable",
      "type": "function"
    },
    {
      "inputs": [],
      "name": "unPause",
      "outputs": [],
      "stateMutability": "nonpayable",
      "type": "function"
    },
    {
      "inputs": [],
      "name": "empty",
      "outputs": [
        {
          "internalType": "bool",
          "name": "",
          "type": "bool"
        }
      ],
      "stateMutability": "view",
      "type": "function"
    },
    {
      "inputs": [],
      "name": "firstBatchId",
      "outputs": [
        {
          "internalType": "bytes32",
          "name": "",
          "type": "bytes32"
        }
      ],
      "stateMutability": "view",
      "type": "function"
    },
    {
      "inputs": [
        {
          "internalType": "uint256",
          "name": "limit",
          "type": "uint256"
        }
      ],
      "name": "expireLimited",
      "outputs": [],
      "stateMutability": "nonpayable",
      "type": "function"
    },
    {
      "inputs": [],
      "name": "expiredBatchesExist",
      "outputs": [
        {
          "internalType": "bool",
          "name": "",
          "type": "bool"
        }
      ],
      "stateMutability": "view",
      "type": "function"
    },
    {
      "inputs": [],
      "name": "totalPot",
      "outputs": [
        {
          "internalType": "uint256",
          "name": "",
          "type": "uint256"
        }
      ],
      "stateMutability": "nonpayable",
      "type": "function"
    },
    {
      "inputs": [
        {
          "internalType": "address",
          "name": "beneficiary",
          "type": "address"
        }
      ],
      "name": "withdraw",
      "outputs": [],
      "stateMutability": "nonpayable",
      "type": "function"
    },
    {
      "inputs": [
        {
          "internalType": "uint256",
          "name": "amount",
          "type": "uint256"
        }
      ],
      "name": "topupPot",
      "outputs": [],
      "stateMutability": "nonpayable",
      "type": "function"
    }
  ],
  "bytecode": "0x60806040525f600a5534801562000014575f80fd5b5060405162005aaa38038062005aaa83398181016040528101906200003a919062000306565b5f60015f6101000a81548160ff0219169083151502179055508160055f6101000a81548173ffffffffffffffffffffffffffffffffffffffff021916908373ffffffffffffffffffffffffffffffffffffffff1602179055508060075f6101000a81548160ff021916908360ff160217905550620000c15f801b33620000fb60201b60201c565b620000f37f65d7a28e3265b37a6474929f336521b332c1681b933f6cb9f3376673440d862a33620000fb60201b60201c565b50506200034b565b6200010d82826200011160201b60201c565b5050565b620001238282620001fc60201b60201c565b620001f85760015f808481526020019081526020015f205f015f8373ffffffffffffffffffffffffffffffffffffffff1673ffffffffffffffffffffffffffffffffffffffff1681526020019081526020015f205f6101000a81548160ff0219169083151502179055506200019d6200025f60201b60201c565b73ffffffffffffffffffffffffffffffffffffffff168173ffffffffffffffffffffffffffffffffffffffff16837f2f8788117e7eff1d82e926ec794901d17c78024a50270940304540a733656f0d60405160405180910390a45b5050565b5f805f8481526020019081526020015f205f015f8373ffffffffffffffffffffffffffffffffffffffff1673ffffffffffffffffffffffffffffffffffffffff1681526020019081526020015f205f9054906101000a900460ff16905092915050565b5f33905090565b5f80fd5b5f73ffffffffffffffffffffffffffffffffffffffff82169050919050565b5f62000295826200026a565b9050919050565b620002a78162000289565b8114620002b2575f80fd5b50565b5f81519050620002c5816200029c565b92915050565b5f60ff82169050919050565b620002e281620002cb565b8114620002ed575f80fd5b50565b5f815190506200030081620002d7565b92915050565b5f80604083850312156200031f576200031e62000266565b5b5f6200032e85828601620002b5565b92505060206200034185828601620002f0565b9150509250929050565b61575180620003595f395ff3fe608060405234801561000f575f80fd5b506004361061020f575f3560e01c80638a5e8e3211610123578063b998902f116100ab578063e63ab1e91161007a578063e63ab1e9146105ca578063ea612e1f146105e8578063f2a75fe414610606578063f7b188a514610624578063f90ce5ba1461062e5761020f565b8063b998902f1461052d578063c81e25ab1461054b578063d547741f1461057e578063d71ba7c41461059a5761020f565b806399176447116100f2578063991764471461049b578063a217fddf146104b7578063a6471a1d146104d5578063a81064ee146104f3578063b67644b9146105115761020f565b80638a5e8e32146104135780638b82547f1461043157806391b7f5ed1461044f57806391d148541461046b5761020f565b806347aab79b116101a65780635239af71116101755780635239af71146103955780635c975abb146103b1578063628de877146103cf578063711bfa2b146103eb5780638456cb59146104095761020f565b806347aab79b146103215780634ba2363a1461033d57806351b17cd01461035b57806351cff8d9146103795761020f565b806324b570a9116101e257806324b570a9146102ad5780632f2ff15d146102cb57806336568abe146102e7578063420fc4db146103035761020f565b806301ffc9a714610213578063053f14da1461024357806318c8572f14610261578063248a9ca31461027d575b5f80fd5b61022d600480360381019061022891906140ee565b61064c565b60405161023a9190614133565b60405180910390f35b61024b6106c5565b6040516102589190614164565b60405180910390f35b61027b60048036038101906102769190614294565b6106cb565b005b6102976004803603810190610292919061431d565b610b6c565b6040516102a49190614357565b60405180910390f35b6102b5610b88565b6040516102c29190614164565b60405180910390f35b6102e560048036038101906102e09190614370565b610c67565b005b61030160048036038101906102fc9190614370565b610ccd565b005b61030b610d50565b60405161031891906143bd565b60405180910390f35b61033b600480360381019061033691906143d6565b610d75565b005b6103456110cd565b6040516103529190614164565b60405180910390f35b6103636110d3565b6040516103709190614164565b60405180910390f35b610393600480360381019061038e9190614414565b61110b565b005b6103af60048036038101906103aa9190614294565b611260565b005b6103b961172c565b6040516103c69190614133565b60405180910390f35b6103e960048036038101906103e4919061443f565b611741565b005b6103f3611970565b6040516104009190614133565b60405180910390f35b61041161199f565b005b61041b611a12565b6040516104289190614164565b60405180910390f35b610439611a18565b6040516104469190614357565b60405180910390f35b6104696004803603810190610464919061443f565b611a84565b005b61048560048036038101906104809190614370565b611b4d565b6040516104929190614133565b60405180910390f35b6104b560048036038101906104b0919061443f565b611bb0565b005b6104bf611ca8565b6040516104cc9190614357565b60405180910390f35b6104dd611cae565b6040516104ea9190614357565b60405180910390f35b6104fb611cd2565b6040516105089190614479565b60405180910390f35b61052b60048036038101906105269190614492565b611ce4565b005b610535612016565b6040516105429190614357565b60405180910390f35b6105656004803603810190610560919061431d565b61203a565b60405161057594939291906144d0565b60405180910390f35b61059860048036038101906105939190614370565b61209d565b005b6105b460048036038101906105af919061431d565b612103565b6040516105c19190614164565b60405180910390f35b6105d26121e3565b6040516105df9190614357565b60405180910390f35b6105f0612207565b6040516105fd9190614164565b60405180910390f35b61060e61220d565b60405161061b9190614133565b60405180910390f35b61062c61221f565b005b610636612292565b6040516106439190614164565b60405180910390f35b5f7f7965db0b000000000000000000000000000000000000000000000000000000007bffffffffffffffffffffffffffffffffffffffffffffffffffffffff1916827bffffffffffffffffffffffffffffffffffffffffffffffffffffffff191614806106be57506106bd82612298565b5b9050919050565b600a5481565b6106d361172c565b15610713576040517f08c379a000000000000000000000000000000000000000000000000000000000815260040161070a9061456d565b60405180910390fd5b61071f5f801b33611b4d565b61075e576040517f08c379a0000000000000000000000000000000000000000000000000000000008152600401610755906145fb565b60405180910390fd5b5f73ffffffffffffffffffffffffffffffffffffffff168673ffffffffffffffffffffffffffffffffffffffff16036107cc576040517f08c379a00000000000000000000000000000000000000000000000000000000081526004016107c390614663565b60405180910390fd5b5f8360ff16141580156107e457508360ff168360ff16105b610823576040517f08c379a000000000000000000000000000000000000000000000000000000000815260040161081a906146cb565b60405180910390fd5b5f73ffffffffffffffffffffffffffffffffffffffff1660025f8481526020019081526020015f205f015f9054906101000a900473ffffffffffffffffffffffffffffffffffffffff1673ffffffffffffffffffffffffffffffffffffffff16146108c3576040517f08c379a00000000000000000000000000000000000000000000000000000000081526004016108ba90614733565b60405180910390fd5b5f8460ff166001901b866108d7919061477e565b905060055f9054906101000a900473ffffffffffffffffffffffffffffffffffffffff1673ffffffffffffffffffffffffffffffffffffffff166323b872dd3330846040518463ffffffff1660e01b8152600401610937939291906147bf565b6020604051808303815f875af1158015610953573d5f803e3d5ffd5b505050506040513d601f19601f820116820180604052508101906109779190614808565b6109b6576040517f08c379a00000000000000000000000000000000000000000000000000000000081526004016109ad9061487d565b60405180910390fd5b5f866109c06110d3565b6109ca919061489b565b90508560ff166001901b60085f8282546109e4919061489b565b9250508190555060405180608001604052808973ffffffffffffffffffffffffffffffffffffffff1681526020018760ff16815260200184151581526020018281525060025f8681526020019081526020015f205f820151815f015f6101000a81548173ffffffffffffffffffffffffffffffffffffffff021916908373ffffffffffffffffffffffffffffffffffffffff1602179055506020820151815f0160146101000a81548160ff021916908360ff1602179055506040820151815f0160156101000a81548160ff021916908315150217905550606082015181600101559050505f8111610b0a576040517f08c379a0000000000000000000000000000000000000000000000000000000008152600401610b0190614918565b60405180910390fd5b610b20848260036123019092919063ffffffff16565b837f9b088e2c89b322a3c1d81515e1c88db3d386d022926f0e2d0b9b5813b7413d5883838b8a8a89604051610b5a96959493929190614936565b60405180910390a25050505050505050565b5f805f8381526020019081526020015f20600101549050919050565b5f610bb27fffffffffffffffffffffffffffffffffffffffffffffffffffffffffffffffff611741565b5f60055f9054906101000a900473ffffffffffffffffffffffffffffffffffffffff1673ffffffffffffffffffffffffffffffffffffffff166370a08231306040518263ffffffff1660e01b8152600401610c0d91906143bd565b602060405180830381865afa158015610c28573d5f803e3d5ffd5b505050506040513d601f19601f82011682018060405250810190610c4c91906149a9565b90508060095410610c5d5780610c61565b6009545b91505090565b610c80610c7383610b6c565b610c7b6125c1565b611b4d565b610cbf576040517f08c379a0000000000000000000000000000000000000000000000000000000008152600401610cb690614a44565b60405180910390fd5b610cc982826125c8565b5050565b610cd56125c1565b73ffffffffffffffffffffffffffffffffffffffff168173ffffffffffffffffffffffffffffffffffffffff1614610d42576040517f08c379a0000000000000000000000000000000000000000000000000000000008152600401610d3990614ad2565b60405180910390fd5b610d4c82826126a2565b5050565b60055f9054906101000a900473ffffffffffffffffffffffffffffffffffffffff1681565b610d7d61172c565b15610dbd576040517f08c379a0000000000000000000000000000000000000000000000000000000008152600401610db49061456d565b60405180910390fd5b5f60025f8481526020019081526020015f2090503373ffffffffffffffffffffffffffffffffffffffff16815f015f9054906101000a900473ffffffffffffffffffffffffffffffffffffffff1673ffffffffffffffffffffffffffffffffffffffff1614610e61576040517f08c379a0000000000000000000000000000000000000000000000000000000008152600401610e5890614b3a565b60405180910390fd5b8160ff1660075f9054906101000a900460ff1660ff16108015610e9957508160ff16815f0160149054906101000a900460ff1660ff16105b610ed8576040517f08c379a0000000000000000000000000000000000000000000000000000000008152600401610ecf90614ba2565b60405180910390fd5b805f0160159054906101000a900460ff1615610f29576040517f08c379a0000000000000000000000000000000000000000000000000000000008152600401610f2090614c0a565b60405180910390fd5b610f316110d3565b816001015411610f76576040517f08c379a0000000000000000000000000000000000000000000000000000000008152600401610f6d90614c72565b60405180910390fd5b5f815f0160149054906101000a900460ff1683610f939190614c90565b90505f8160ff166001901b610fa786612103565b610fb19190614cf1565b9050610fdc7fffffffffffffffffffffffffffffffffffffffffffffffffffffffffffffffff611741565b825f0160149054906101000a900460ff1660ff166001901b8460ff166001901b6110069190614d21565b60085f828254611016919061489b565b92505081905550611037858460010154600361277c9092919063ffffffff16565b83835f0160146101000a81548160ff021916908360ff1602179055508061105c6110d3565b611066919061489b565b836001018190555061108885846001015460036123019092919063ffffffff16565b847faf27998ec15e9d3809edad41aec1b5551d8412e71bd07c91611a0237ead1dc8e8585600101546040516110be929190614d54565b60405180910390a25050505050565b60095481565b5f80600b54436110e39190614d21565b90505f81600a546110f4919061477e565b905080600654611104919061489b565b9250505090565b6111357f3e35b14a9f4fef84b59f9bdcd3044fc28783144b7e42bfb2cd075e6a02cb082833611b4d565b611174576040517f08c379a000000000000000000000000000000000000000000000000000000000815260040161116b90614deb565b60405180910390fd5b60055f9054906101000a900473ffffffffffffffffffffffffffffffffffffffff1673ffffffffffffffffffffffffffffffffffffffff1663a9059cbb826111ba610b88565b6040518363ffffffff1660e01b81526004016111d7929190614e09565b6020604051808303815f875af11580156111f3573d5f803e3d5ffd5b505050506040513d601f19601f820116820180604052508101906112179190614808565b611256576040517f08c379a000000000000000000000000000000000000000000000000000000000815260040161124d9061487d565b60405180910390fd5b5f60098190555050565b61126861172c565b156112a8576040517f08c379a000000000000000000000000000000000000000000000000000000000815260040161129f9061456d565b60405180910390fd5b5f73ffffffffffffffffffffffffffffffffffffffff168673ffffffffffffffffffffffffffffffffffffffff1603611316576040517f08c379a000000000000000000000000000000000000000000000000000000000815260040161130d90614663565b60405180910390fd5b5f8360ff161415801561133d57508260ff1660075f9054906101000a900460ff1660ff1611155b801561134e57508360ff168360ff16105b61138d576040517f08c379a0000000000000000000000000000000000000000000000000000000008152600401611384906146cb565b60405180910390fd5b5f33836040516020016113a1929190614e30565b6040516020818303038152906040528051906020012090505f73ffffffffffffffffffffffffffffffffffffffff1660025f8381526020019081526020015f205f015f9054906101000a900473ffffffffffffffffffffffffffffffffffffffff1673ffffffffffffffffffffffffffffffffffffffff1614611459576040517f08c379a000000000000000000000000000000000000000000000000000000000815260040161145090614733565b60405180910390fd5b5f8560ff166001901b8761146d919061477e565b905060055f9054906101000a900473ffffffffffffffffffffffffffffffffffffffff1673ffffffffffffffffffffffffffffffffffffffff166323b872dd3330846040518463ffffffff1660e01b81526004016114cd939291906147bf565b6020604051808303815f875af11580156114e9573d5f803e3d5ffd5b505050506040513d601f19601f8201168201806040525081019061150d9190614808565b61154c576040517f08c379a00000000000000000000000000000000000000000000000000000000081526004016115439061487d565b60405180910390fd5b5f876115566110d3565b611560919061489b565b905061158b7fffffffffffffffffffffffffffffffffffffffffffffffffffffffffffffffff611741565b8660ff166001901b60085f8282546115a3919061489b565b9250508190555060405180608001604052808a73ffffffffffffffffffffffffffffffffffffffff1681526020018860ff16815260200185151581526020018281525060025f8581526020019081526020015f205f820151815f015f6101000a81548173ffffffffffffffffffffffffffffffffffffffff021916908373ffffffffffffffffffffffffffffffffffffffff1602179055506020820151815f0160146101000a81548160ff021916908360ff1602179055506040820151815f0160156101000a81548160ff021916908315150217905550606082015181600101559050505f81116116c9576040517f08c379a00000000000000000000000000000000000000000000000000000000081526004016116c090614918565b60405180910390fd5b6116df838260036123019092919063ffffffff16565b827f9b088e2c89b322a3c1d81515e1c88db3d386d022926f0e2d0b9b5813b7413d5883838c8b8b8a60405161171996959493929190614936565b60405180910390a2505050505050505050565b5f60015f9054906101000a900460ff16905090565b5f600c5490505f5b828110156118f45761175961220d565b15611771576117666110d3565b600c819055506118f4565b5f61177a611a18565b90505f61178682612103565b11156117a0576117946110d3565b600c81905550506118f4565b5f60025f8381526020019081526020015f2090505f815f0160149054906101000a900460ff1660ff166001901b9050806008541015611814576040517f08c379a000000000000000000000000000000000000000000000000000000000815260040161180b90614ea1565b60405180910390fd5b8060085f8282546118259190614d21565b9250508190555084826001015461183c9190614d21565b81611847919061477e565b60095f828254611857919061489b565b92505081905550611878838360010154600361277c9092919063ffffffff16565b60025f8481526020019081526020015f205f8082015f6101000a81549073ffffffffffffffffffffffffffffffffffffffff02191690555f820160146101000a81549060ff02191690555f820160156101000a81549060ff0219169055600182015f9055505050505080806118ec90614ebf565b915050611749565b81600c541015611939576040517f08c379a000000000000000000000000000000000000000000000000000000000815260040161193090614f76565b60405180910390fd5b81600c546119479190614d21565b600854611954919061477e565b60095f828254611964919061489b565b92505081905550505050565b5f61197961220d565b15611986575f905061199c565b5f611997611992611a18565b612103565b111590505b90565b6119c97f65d7a28e3265b37a6474929f336521b332c1681b933f6cb9f3376673440d862a33611b4d565b611a08576040517f08c379a00000000000000000000000000000000000000000000000000000000081526004016119ff90614fde565b60405180910390fd5b611a10612c48565b565b60085481565b5f80611a246003612ce9565b90505f8111611a68576040517f08c379a0000000000000000000000000000000000000000000000000000000008152600401611a5f90615046565b60405180910390fd5b611a7e815f6003612d419092919063ffffffff16565b91505090565b611aae7fdd24a0f121e5ab7c3e97c63eaaf859e0b46792c3e0edfd86e2b3ad50f63011d833611b4d565b611aed576040517f08c379a0000000000000000000000000000000000000000000000000000000008152600401611ae4906150d4565b60405180910390fd5b5f600a5414611b0557611afe6110d3565b6006819055505b80600a8190555043600b819055507fae46785019700e30375a5d7b4f91e32f8060ef085111f896ebf889450aa2ab5a81604051611b429190614164565b60405180910390a150565b5f805f8481526020019081526020015f205f015f8373ffffffffffffffffffffffffffffffffffffffff1673ffffffffffffffffffffffffffffffffffffffff1681526020019081526020015f205f9054906101000a900460ff16905092915050565b60055f9054906101000a900473ffffffffffffffffffffffffffffffffffffffff1673ffffffffffffffffffffffffffffffffffffffff166323b872dd3330846040518463ffffffff1660e01b8152600401611c0e939291906147bf565b6020604051808303815f875af1158015611c2a573d5f803e3d5ffd5b505050506040513d601f19601f82011682018060405250810190611c4e9190614808565b611c8d576040517f08c379a0000000000000000000000000000000000000000000000000000000008152600401611c849061487d565b60405180910390fd5b8060095f828254611c9e919061489b565b9250508190555050565b5f801b81565b7f3e35b14a9f4fef84b59f9bdcd3044fc28783144b7e42bfb2cd075e6a02cb082881565b60075f9054906101000a900460ff1681565b611cec61172c565b15611d2c576040517f08c379a0000000000000000000000000000000000000000000000000000000008152600401611d239061456d565b60405180910390fd5b5f60025f8481526020019081526020015f2090505f73ffffffffffffffffffffffffffffffffffffffff16815f015f9054906101000a900473ffffffffffffffffffffffffffffffffffffffff1673ffffffffffffffffffffffffffffffffffffffff1603611dd0576040517f08c379a0000000000000000000000000000000000000000000000000000000008152600401611dc790615162565b60405180910390fd5b611dd86110d3565b816001015411611e1d576040517f08c379a0000000000000000000000000000000000000000000000000000000008152600401611e1490614c72565b60405180910390fd5b60075f9054906101000a900460ff1660ff16815f0160149054906101000a900460ff1660ff1611611e83576040517f08c379a0000000000000000000000000000000000000000000000000000000008152600401611e7a906151ca565b60405180910390fd5b5f815f0160149054906101000a900460ff1660ff166001901b83611ea7919061477e565b905060055f9054906101000a900473ffffffffffffffffffffffffffffffffffffffff1673ffffffffffffffffffffffffffffffffffffffff166323b872dd3330846040518463ffffffff1660e01b8152600401611f07939291906147bf565b6020604051808303815f875af1158015611f23573d5f803e3d5ffd5b505050506040513d601f19601f82011682018060405250810190611f479190614808565b611f86576040517f08c379a0000000000000000000000000000000000000000000000000000000008152600401611f7d9061487d565b60405180910390fd5b611fa0848360010154600361277c9092919063ffffffff16565b828260010154611fb0919061489b565b8260010181905550611fd284836001015460036123019092919063ffffffff16565b837faf5756c62d6c0722ef9be1f82bef97ab06ea5aea7f3eb8ad348422079f01d88d8284600101546040516120089291906151e8565b60405180910390a250505050565b7fdd24a0f121e5ab7c3e97c63eaaf859e0b46792c3e0edfd86e2b3ad50f63011d881565b6002602052805f5260405f205f91509050805f015f9054906101000a900473ffffffffffffffffffffffffffffffffffffffff1690805f0160149054906101000a900460ff1690805f0160159054906101000a900460ff16908060010154905084565b6120b66120a983610b6c565b6120b16125c1565b611b4d565b6120f5576040517f08c379a00000000000000000000000000000000000000000000000000000000081526004016120ec9061527f565b60405180910390fd5b6120ff82826126a2565b5050565b5f8060025f8481526020019081526020015f2090505f73ffffffffffffffffffffffffffffffffffffffff16815f015f9054906101000a900473ffffffffffffffffffffffffffffffffffffffff1673ffffffffffffffffffffffffffffffffffffffff16036121a8576040517f08c379a000000000000000000000000000000000000000000000000000000000815260040161219f906152e7565b60405180910390fd5b6121b06110d3565b8160010154116121c3575f9150506121de565b6121cb6110d3565b81600101546121da9190614d21565b9150505b919050565b7f65d7a28e3265b37a6474929f336521b332c1681b933f6cb9f3376673440d862a81565b600c5481565b5f806122196003612dc5565b14905090565b6122497f65d7a28e3265b37a6474929f336521b332c1681b933f6cb9f3376673440d862a33611b4d565b612288576040517f08c379a000000000000000000000000000000000000000000000000000000000815260040161227f9061534f565b60405180910390fd5b612290612dda565b565b600b5481565b5f7f01ffc9a7000000000000000000000000000000000000000000000000000000007bffffffffffffffffffffffffffffffffffffffffffffffffffffffff1916827bffffffffffffffffffffffffffffffffffffffffffffffffffffffff1916149050919050565b5f8103612343576040517f08c379a000000000000000000000000000000000000000000000000000000000815260040161233a906153dd565b60405180910390fd5b61234e838383612e7a565b1561238e576040517f08c379a000000000000000000000000000000000000000000000000000000000815260040161238590615491565b60405180910390fd5b5f80845f015490505b5f81146124b657809150808310156123c757846001015f8281526020019081526020015f20600101549050612486565b808311156123ed57846001015f8281526020019081526020015f20600201549050612485565b80830361248457846001015f8281526020019081526020015f2060040184908060018154018082558091505060019003905f5260205f20015f90919091909150556001856001015f8381526020019081526020015f20600401805490506124549190614d21565b856001015f8381526020019081526020015f206005015f8681526020019081526020015f208190555050506125bc565b5b5b846001015f8381526020019081526020015f206006015f8154809291906124ac90614ebf565b9190505550612397565b5f856001015f8581526020019081526020015f20905082815f01819055505f81600101819055505f81600201819055506001816003015f6101000a81548160ff0219169083151502179055508060040185908060018154018082558091505060019003905f5260205f20015f90919091909150556001816004018054905061253e9190614d21565b816005015f8781526020019081526020015f20819055505f83036125695783865f01819055506125ae565b828410156125915783866001015f8581526020019081526020015f20600101819055506125ad565b83866001015f8581526020019081526020015f20600201819055505b5b6125b88685612ef3565b5050505b505050565b5f33905090565b6125d28282611b4d565b61269e5760015f808481526020019081526020015f205f015f8373ffffffffffffffffffffffffffffffffffffffff1673ffffffffffffffffffffffffffffffffffffffff1681526020019081526020015f205f6101000a81548160ff0219169083151502179055506126436125c1565b73ffffffffffffffffffffffffffffffffffffffff168173ffffffffffffffffffffffffffffffffffffffff16837f2f8788117e7eff1d82e926ec794901d17c78024a50270940304540a733656f0d60405160405180910390a45b5050565b6126ac8282611b4d565b15612778575f805f8481526020019081526020015f205f015f8373ffffffffffffffffffffffffffffffffffffffff1673ffffffffffffffffffffffffffffffffffffffff1681526020019081526020015f205f6101000a81548160ff02191690831515021790555061271d6125c1565b73ffffffffffffffffffffffffffffffffffffffff168173ffffffffffffffffffffffffffffffffffffffff16837ff6391f5c32d9c69d2a47ea670b442974b53935d1edc7fd64eb21e047a839171b60405160405180910390a45b5050565b5f81036127be576040517f08c379a00000000000000000000000000000000000000000000000000000000081526004016127b59061551f565b60405180910390fd5b6127c9838383612e7a565b612808576040517f08c379a00000000000000000000000000000000000000000000000000000000081526004016127ff906155ad565b60405180910390fd5b5f836001015f8381526020019081526020015f2090505f816005015f8581526020019081526020015f205490505f826004016001846004018054905061284e9190614d21565b8154811061285f5761285e6155cb565b5b905f5260205f200154905080836004018381548110612881576128806155cb565b5b905f5260205f20018190555081836005015f8381526020019081526020015f2081905550826004018054806128b9576128b86155f8565b5b600190038181905f5260205f20015f905590555f805f856004018054905003612c3e575f886001015f8881526020019081526020015f2060010154148061291557505f886001015f8881526020019081526020015f2060020154145b1561292257859050612978565b876001015f8781526020019081526020015f206002015490505b5f886001015f8381526020019081526020015f20600101541461297757876001015f8281526020019081526020015f2060010154905061293c565b5b5f886001015f8381526020019081526020015f2060010154146129b357876001015f8281526020019081526020015f206001015491506129cd565b876001015f8281526020019081526020015f206002015491505b5f886001015f8381526020019081526020015f205f0154905080896001015f8581526020019081526020015f205f01819055505f8114612a6557886001015f8281526020019081526020015f20600101548203612a445782896001015f8381526020019081526020015f2060010181905550612a60565b82896001015f8381526020019081526020015f20600201819055505b612a6e565b82895f01819055505b5f896001015f8481526020019081526020015f206003015f9054906101000a900460ff16159050878314612bcd57612aa78a848a613393565b896001015f8981526020019081526020015f20600101548a6001015f8581526020019081526020015f2060010181905550828a6001015f8c6001015f8781526020019081526020015f206001015481526020019081526020015f205f0181905550896001015f8981526020019081526020015f20600201548a6001015f8581526020019081526020015f2060020181905550828a6001015f8c6001015f8781526020019081526020015f206002015481526020019081526020015f205f0181905550896001015f8981526020019081526020015f206003015f9054906101000a900460ff168a6001015f8581526020019081526020015f206003015f6101000a81548160ff02191690831515021790555087838099508194505050612bcc8a8961343a565b5b8015612bde57612bdd8a856134c7565b5b612be88a8361343a565b896001015f8481526020019081526020015f205f8082015f9055600182015f9055600282015f9055600382015f6101000a81549060ff0219169055600482015f612c32919061405c565b600682015f9055505050505b5050505050505050565b612c5061172c565b15612c90576040517f08c379a0000000000000000000000000000000000000000000000000000000008152600401612c879061456d565b60405180910390fd5b6001805f6101000a81548160ff0219169083151502179055507f62e78cea01bee320cd4e420270b5ea74000d11b0c9f74754ebdbfc544b05a258612cd26125c1565b604051612cdf91906143bd565b60405180910390a1565b5f815f015490505f8103612cff575f9050612d3c565b5b5f826001015f8381526020019081526020015f206001015414612d3b57816001015f8281526020019081526020015f20600101549050612d00565b5b919050565b5f612d4c8484613ba7565b612d8b576040517f08c379a0000000000000000000000000000000000000000000000000000000008152600401612d8290615695565b60405180910390fd5b836001015f8481526020019081526020015f206004018281548110612db357612db26155cb565b5b905f5260205f20015490509392505050565b5f612dd382835f0154613bf9565b9050919050565b612de261172c565b612e21576040517f08c379a0000000000000000000000000000000000000000000000000000000008152600401612e18906156fd565b60405180910390fd5b5f60015f6101000a81548160ff0219169083151502179055507f5db9ee0a495bf2e6ff9c91a7834c1ba4fdd244a5e8aa4e537bd38aeae4b073aa612e636125c1565b604051612e7091906143bd565b60405180910390a1565b5f612e858483613ba7565b612e91575f9050612eec565b82846001015f8481526020019081526020015f20600401856001015f8581526020019081526020015f206005015f8681526020019081526020015f205481548110612edf57612ede6155cb565b5b905f5260205f2001541490505b9392505050565b5f5b825f01548214158015612f3c5750826001015f846001015f8581526020019081526020015f205f015481526020019081526020015f206003015f9054906101000a900460ff165b1561335e575f836001015f8481526020019081526020015f205f01549050836001015f856001015f8481526020019081526020015f205f015481526020019081526020015f2060010154810361317457836001015f856001015f8481526020019081526020015f205f015481526020019081526020015f20600201549150836001015f8381526020019081526020015f206003015f9054906101000a900460ff161561309c575f846001015f8381526020019081526020015f206003015f6101000a81548160ff0219169083151502179055505f846001015f8481526020019081526020015f206003015f6101000a81548160ff0219169083151502179055506001846001015f866001015f8581526020019081526020015f205f015481526020019081526020015f206003015f6101000a81548160ff021916908315150217905550836001015f8281526020019081526020015f205f0154925061316f565b836001015f8281526020019081526020015f206002015483036130c7578092506130c68484613c30565b5b836001015f8481526020019081526020015f205f015490505f846001015f8381526020019081526020015f206003015f6101000a81548160ff0219169083151502179055506001846001015f866001015f8581526020019081526020015f205f015481526020019081526020015f206003015f6101000a81548160ff02191690831515021790555061316e84856001015f8481526020019081526020015f205f0154613e46565b5b613358565b836001015f856001015f8481526020019081526020015f205f015481526020019081526020015f20600101549150836001015f8381526020019081526020015f206003015f9054906101000a900460ff1615613284575f846001015f8381526020019081526020015f206003015f6101000a81548160ff0219169083151502179055505f846001015f8481526020019081526020015f206003015f6101000a81548160ff0219169083151502179055506001846001015f866001015f8581526020019081526020015f205f015481526020019081526020015f206003015f6101000a81548160ff021916908315150217905550836001015f8281526020019081526020015f205f01549250613357565b836001015f8281526020019081526020015f206001015483036132af578092506132ae8484613e46565b5b836001015f8481526020019081526020015f205f015490505f846001015f8381526020019081526020015f206003015f6101000a81548160ff0219169083151502179055506001846001015f866001015f8581526020019081526020015f205f015481526020019081526020015f206003015f6101000a81548160ff02191690831515021790555061335684856001015f8481526020019081526020015f205f0154613c30565b5b5b50612ef5565b5f836001015f855f015481526020019081526020015f206003015f6101000a81548160ff021916908315150217905550505050565b5f836001015f8381526020019081526020015f205f0154905080846001015f8581526020019081526020015f205f01819055505f81036133da5782845f0181905550613434565b836001015f8281526020019081526020015f206001015482036134175782846001015f8381526020019081526020015f2060010181905550613433565b82846001015f8381526020019081526020015f20600201819055505b5b50505050565b5b5f81146134c35761346282836001015f8481526020019081526020015f2060020154613bf9565b61348283846001015f8581526020019081526020015f2060010154613bf9565b61348c919061489b565b826001015f8381526020019081526020015f2060060181905550816001015f8281526020019081526020015f205f0154905061343b565b5050565b5f5b825f015482141580156134fc5750826001015f8381526020019081526020015f206003015f9054906101000a900460ff16155b15613b75575f836001015f8481526020019081526020015f205f01549050836001015f8281526020019081526020015f2060010154830361385557836001015f8281526020019081526020015f20600201549150836001015f8381526020019081526020015f206003015f9054906101000a900460ff16156135f7575f846001015f8481526020019081526020015f206003015f6101000a81548160ff0219169083151502179055506001846001015f8381526020019081526020015f206003015f6101000a81548160ff0219169083151502179055506135dd8482613c30565b836001015f8281526020019081526020015f206002015491505b836001015f856001015f8581526020019081526020015f206001015481526020019081526020015f206003015f9054906101000a900460ff161580156136735750836001015f856001015f8581526020019081526020015f206002015481526020019081526020015f206003015f9054906101000a900460ff16155b156136ae576001846001015f8481526020019081526020015f206003015f6101000a81548160ff021916908315150217905550809250613850565b836001015f856001015f8581526020019081526020015f206002015481526020019081526020015f206003015f9054906101000a900460ff16613780575f846001015f866001015f8681526020019081526020015f206001015481526020019081526020015f206003015f6101000a81548160ff0219169083151502179055506001846001015f8481526020019081526020015f206003015f6101000a81548160ff0219169083151502179055506137668483613e46565b836001015f8281526020019081526020015f206002015491505b836001015f8281526020019081526020015f206003015f9054906101000a900460ff16846001015f8481526020019081526020015f206003015f6101000a81548160ff0219169083151502179055505f846001015f8381526020019081526020015f206003015f6101000a81548160ff0219169083151502179055505f846001015f866001015f8681526020019081526020015f206002015481526020019081526020015f206003015f6101000a81548160ff0219169083151502179055506138498482613c30565b835f015492505b613b6f565b836001015f8281526020019081526020015f20600101549150836001015f8381526020019081526020015f206003015f9054906101000a900460ff1615613915575f846001015f8481526020019081526020015f206003015f6101000a81548160ff0219169083151502179055506001846001015f8381526020019081526020015f206003015f6101000a81548160ff0219169083151502179055506138fb8482613e46565b836001015f8281526020019081526020015f206001015491505b836001015f856001015f8581526020019081526020015f206002015481526020019081526020015f206003015f9054906101000a900460ff161580156139915750836001015f856001015f8581526020019081526020015f206001015481526020019081526020015f206003015f9054906101000a900460ff16155b156139cc576001846001015f8481526020019081526020015f206003015f6101000a81548160ff021916908315150217905550809250613b6e565b836001015f856001015f8581526020019081526020015f206001015481526020019081526020015f206003015f9054906101000a900460ff16613a9e575f846001015f866001015f8681526020019081526020015f206002015481526020019081526020015f206003015f6101000a81548160ff0219169083151502179055506001846001015f8481526020019081526020015f206003015f6101000a81548160ff021916908315150217905550613a848483613c30565b836001015f8281526020019081526020015f206001015491505b836001015f8281526020019081526020015f206003015f9054906101000a900460ff16846001015f8481526020019081526020015f206003015f6101000a81548160ff0219169083151502179055505f846001015f8381526020019081526020015f206003015f6101000a81548160ff0219169083151502179055505f846001015f866001015f8681526020019081526020015f206001015481526020019081526020015f206003015f6101000a81548160ff021916908315150217905550613b678482613e46565b835f015492505b5b506134c9565b5f836001015f8481526020019081526020015f206003015f6101000a81548160ff021916908315150217905550505050565b5f808203613bb7575f9050613bf3565b825f01548203613bca5760019050613bf3565b5f836001015f8481526020019081526020015f205f015414613bef5760019050613bf3565b5f90505b92915050565b5f80836001015f8481526020019081526020015f20905080600601548160040180549050613c27919061489b565b91505092915050565b5f826001015f8381526020019081526020015f206002015490505f836001015f8481526020019081526020015f205f015490505f846001015f8481526020019081526020015f2060010154905080856001015f8681526020019081526020015f20600201819055505f8114613cba5783856001015f8381526020019081526020015f205f01819055505b81856001015f8581526020019081526020015f205f01819055505f8203613ce85782855f0181905550613d42565b846001015f8381526020019081526020015f20600101548403613d255782856001015f8481526020019081526020015f2060010181905550613d41565b82856001015f8481526020019081526020015f20600201819055505b5b83856001015f8581526020019081526020015f206001018190555082856001015f8681526020019081526020015f205f0181905550613d9785866001015f8781526020019081526020015f2060020154613bf9565b613db786876001015f8881526020019081526020015f2060010154613bf9565b613dc1919061489b565b856001015f8681526020019081526020015f2060060181905550613dfb85866001015f8681526020019081526020015f2060020154613bf9565b613e1b86876001015f8781526020019081526020015f2060010154613bf9565b613e25919061489b565b856001015f8581526020019081526020015f20600601819055505050505050565b5f826001015f8381526020019081526020015f206001015490505f836001015f8481526020019081526020015f205f015490505f846001015f8481526020019081526020015f2060020154905080856001015f8681526020019081526020015f20600101819055505f8114613ed05783856001015f8381526020019081526020015f205f01819055505b81856001015f8581526020019081526020015f205f01819055505f8203613efe5782855f0181905550613f58565b846001015f8381526020019081526020015f20600201548403613f3b5782856001015f8481526020019081526020015f2060020181905550613f57565b82856001015f8481526020019081526020015f20600101819055505b5b83856001015f8581526020019081526020015f206002018190555082856001015f8681526020019081526020015f205f0181905550613fad85866001015f8781526020019081526020015f2060020154613bf9565b613fcd86876001015f8881526020019081526020015f2060010154613bf9565b613fd7919061489b565b856001015f8681526020019081526020015f206006018190555061401185866001015f8681526020019081526020015f2060020154613bf9565b61403186876001015f8781526020019081526020015f2060010154613bf9565b61403b919061489b565b856001015f8581526020019081526020015f20600601819055505050505050565b5080545f8255905f5260205f2090810190614077919061407a565b50565b5b80821115614091575f815f90555060010161407b565b5090565b5f80fd5b5f7fffffffff0000000000000000000000000000000000000000000000000000000082169050919050565b6140cd81614099565b81146140d7575f80fd5b50565b5f813590506140e8816140c4565b92915050565b5f6020828403121561410357614102614095565b5b5f614110848285016140da565b91505092915050565b5f8115159050919050565b61412d81614119565b82525050565b5f6020820190506141465f830184614124565b92915050565b5f819050919050565b61415e8161414c565b82525050565b5f6020820190506141775f830184614155565b92915050565b5f73ffffffffffffffffffffffffffffffffffffffff82169050919050565b5f6141a68261417d565b9050919050565b6141b68161419c565b81146141c0575f80fd5b50565b5f813590506141d1816141ad565b92915050565b6141e08161414c565b81146141ea575f80fd5b50565b5f813590506141fb816141d7565b92915050565b5f60ff82169050919050565b61421681614201565b8114614220575f80fd5b50565b5f813590506142318161420d565b92915050565b5f819050919050565b61424981614237565b8114614253575f80fd5b50565b5f8135905061426481614240565b92915050565b61427381614119565b811461427d575f80fd5b50565b5f8135905061428e8161426a565b92915050565b5f805f805f8060c087890312156142ae576142ad614095565b5b5f6142bb89828a016141c3565b96505060206142cc89828a016141ed565b95505060406142dd89828a01614223565b94505060606142ee89828a01614223565b93505060806142ff89828a01614256565b92505060a061431089828a01614280565b9150509295509295509295565b5f6020828403121561433257614331614095565b5b5f61433f84828501614256565b91505092915050565b61435181614237565b82525050565b5f60208201905061436a5f830184614348565b92915050565b5f806040838503121561438657614385614095565b5b5f61439385828601614256565b92505060206143a4858286016141c3565b9150509250929050565b6143b78161419c565b82525050565b5f6020820190506143d05f8301846143ae565b92915050565b5f80604083850312156143ec576143eb614095565b5b5f6143f985828601614256565b925050602061440a85828601614223565b9150509250929050565b5f6020828403121561442957614428614095565b5b5f614436848285016141c3565b91505092915050565b5f6020828403121561445457614453614095565b5b5f614461848285016141ed565b91505092915050565b61447381614201565b82525050565b5f60208201905061448c5f83018461446a565b92915050565b5f80604083850312156144a8576144a7614095565b5b5f6144b585828601614256565b92505060206144c6858286016141ed565b9150509250929050565b5f6080820190506144e35f8301876143ae565b6144f0602083018661446a565b6144fd6040830185614124565b61450a6060830184614155565b95945050505050565b5f82825260208201905092915050565b7f5061757361626c653a20706175736564000000000000000000000000000000005f82015250565b5f614557601083614513565b915061456282614523565b602082019050919050565b5f6020820190508181035f8301526145848161454b565b9050919050565b7f6f6e6c792061646d696e6973747261746f722063616e2075736520636f7079205f8201527f6d6574686f640000000000000000000000000000000000000000000000000000602082015250565b5f6145e5602683614513565b91506145f08261458b565b604082019050919050565b5f6020820190508181035f830152614612816145d9565b9050919050565b7f6f776e65722063616e6e6f7420626520746865207a65726f20616464726573735f82015250565b5f61464d602083614513565b915061465882614619565b602082019050919050565b5f6020820190508181035f83015261467a81614641565b9050919050565b7f696e76616c6964206275636b65742064657074680000000000000000000000005f82015250565b5f6146b5601483614513565b91506146c082614681565b602082019050919050565b5f6020820190508181035f8301526146e2816146a9565b9050919050565b7f626174636820616c7265616479206578697374730000000000000000000000005f82015250565b5f61471d601483614513565b9150614728826146e9565b602082019050919050565b5f6020820190508181035f83015261474a81614711565b9050919050565b7f4e487b71000000000000000000000000000000000000000000000000000000005f52601160045260245ffd5b5f6147888261414c565b91506147938361414c565b92508282026147a18161414c565b915082820484148315176147b8576147b7614751565b5b5092915050565b5f6060820190506147d25f8301866143ae565b6147df60208301856143ae565b6147ec6040830184614155565b949350505050565b5f815190506148028161426a565b92915050565b5f6020828403121561481d5761481c614095565b5b5f61482a848285016147f4565b91505092915050565b7f6661696c6564207472616e7366657200000000000000000000000000000000005f82015250565b5f614867600f83614513565b915061487282614833565b602082019050919050565b5f6020820190508181035f8301526148948161485b565b9050919050565b5f6148a58261414c565b91506148b08361414c565b92508282019050808211156148c8576148c7614751565b5b92915050565b7f6e6f726d616c6973656442616c616e63652063616e6e6f74206265207a65726f5f82015250565b5f614902602083614513565b915061490d826148ce565b602082019050919050565b5f6020820190508181035f83015261492f816148f6565b9050919050565b5f60c0820190506149495f830189614155565b6149566020830188614155565b61496360408301876143ae565b614970606083018661446a565b61497d608083018561446a565b61498a60a0830184614124565b979650505050505050565b5f815190506149a3816141d7565b92915050565b5f602082840312156149be576149bd614095565b5b5f6149cb84828501614995565b91505092915050565b7f416363657373436f6e74726f6c3a2073656e646572206d75737420626520616e5f8201527f2061646d696e20746f206772616e740000000000000000000000000000000000602082015250565b5f614a2e602f83614513565b9150614a39826149d4565b604082019050919050565b5f6020820190508181035f830152614a5b81614a22565b9050919050565b7f416363657373436f6e74726f6c3a2063616e206f6e6c792072656e6f756e63655f8201527f20726f6c657320666f722073656c660000000000000000000000000000000000602082015250565b5f614abc602f83614513565b9150614ac782614a62565b604082019050919050565b5f6020820190508181035f830152614ae981614ab0565b9050919050565b7f6e6f74206261746368206f776e657200000000000000000000000000000000005f82015250565b5f614b24600f83614513565b9150614b2f82614af0565b602082019050919050565b5f6020820190508181035f830152614b5181614b18565b9050919050565b7f6465707468206e6f7420696e6372656173696e670000000000000000000000005f82015250565b5f614b8c601483614513565b9150614b9782614b58565b602082019050919050565b5f6020820190508181035f830152614bb981614b80565b9050919050565b7f626174636820697320696d6d757461626c6500000000000000000000000000005f82015250565b5f614bf4601283614513565b9150614bff82614bc0565b602082019050919050565b5f6020820190508181035f830152614c2181614be8565b9050919050565b7f626174636820616c7265616479206578706972656400000000000000000000005f82015250565b5f614c5c601583614513565b9150614c6782614c28565b602082019050919050565b5f6020820190508181035f830152614c8981614c50565b9050919050565b5f614c9a82614201565b9150614ca583614201565b9250828203905060ff811115614cbe57614cbd614751565b5b92915050565b7f4e487b71000000000000000000000000000000000000000000000000000000005f52601260045260245ffd5b5f614cfb8261414c565b9150614d068361414c565b925082614d1657614d15614cc4565b5b828204905092915050565b5f614d2b8261414c565b9150614d368361414c565b9250828203905081811115614d4e57614d4d614751565b5b92915050565b5f604082019050614d675f83018561446a565b614d746020830184614155565b9392505050565b7f6f6e6c792072656469737472696275746f722063616e207769746864726177205f8201527f66726f6d2074686520636f6e7472616374000000000000000000000000000000602082015250565b5f614dd5603183614513565b9150614de082614d7b565b604082019050919050565b5f6020820190508181035f830152614e0281614dc9565b9050919050565b5f604082019050614e1c5f8301856143ae565b614e296020830184614155565b9392505050565b5f604082019050614e435f8301856143ae565b614e506020830184614348565b9392505050565b7f696e73756666696369656e742076616c6964206368756e6b20636f756e7400005f82015250565b5f614e8b601e83614513565b9150614e9682614e57565b602082019050919050565b5f6020820190508181035f830152614eb881614e7f565b9050919050565b5f614ec98261414c565b91507fffffffffffffffffffffffffffffffffffffffffffffffffffffffffffffffff8203614efb57614efa614751565b5b600182019050919050565b7f63757272656e7420746f74616c206f75747061796d656e742073686f756c64205f8201527f6e65766572206465637265617365000000000000000000000000000000000000602082015250565b5f614f60602e83614513565b9150614f6b82614f06565b604082019050919050565b5f6020820190508181035f830152614f8d81614f54565b9050919050565b7f6f6e6c79207061757365722063616e20706175736500000000000000000000005f82015250565b5f614fc8601583614513565b9150614fd382614f94565b602082019050919050565b5f6020820190508181035f830152614ff581614fbc565b9050919050565b7f6e6f2062617463686573206578697374000000000000000000000000000000005f82015250565b5f615030601083614513565b915061503b82614ffc565b602082019050919050565b5f6020820190508181035f83015261505d81615024565b9050919050565b7f6f6e6c79207072696365206f7261636c652063616e20736574207468652070725f8201527f6963650000000000000000000000000000000000000000000000000000000000602082015250565b5f6150be602383614513565b91506150c982615064565b604082019050919050565b5f6020820190508181035f8301526150eb816150b2565b9050919050565b7f626174636820646f6573206e6f74206578697374206f722068617320657870695f8201527f7265640000000000000000000000000000000000000000000000000000000000602082015250565b5f61514c602383614513565b9150615157826150f2565b604082019050919050565b5f6020820190508181035f83015261517981615140565b9050919050565b7f626174636820746f6f20736d616c6c20746f2072656e657700000000000000005f82015250565b5f6151b4601883614513565b91506151bf82615180565b602082019050919050565b5f6020820190508181035f8301526151e1816151a8565b9050919050565b5f6040820190506151fb5f830185614155565b6152086020830184614155565b9392505050565b7f416363657373436f6e74726f6c3a2073656e646572206d75737420626520616e5f8201527f2061646d696e20746f207265766f6b6500000000000000000000000000000000602082015250565b5f615269603083614513565b91506152748261520f565b604082019050919050565b5f6020820190508181035f8301526152968161525d565b9050919050565b7f626174636820646f6573206e6f74206578697374206f722065787069726564005f82015250565b5f6152d1601f83614513565b91506152dc8261529d565b602082019050919050565b5f6020820190508181035f8301526152fe816152c5565b9050919050565b7f6f6e6c79207061757365722063616e20756e70617573650000000000000000005f82015250565b5f615339601783614513565b915061534482615305565b602082019050919050565b5f6020820190508181035f8301526153668161532d565b9050919050565b7f4f7264657253746174697374696373547265652834303529202d2056616c75655f8201527f20746f20696e736572742063616e6e6f74206265207a65726f00000000000000602082015250565b5f6153c7603983614513565b91506153d28261536d565b604082019050919050565b5f6020820190508181035f8301526153f4816153bb565b9050919050565b7f4f7264657253746174697374696373547265652834303629202d2056616c75655f8201527f20616e64204b65792070616972206578697374732e2043616e6e6f742062652060208201527f696e73657274656420616761696e2e0000000000000000000000000000000000604082015250565b5f61547b604f83614513565b9150615486826153fb565b606082019050919050565b5f6020820190508181035f8301526154a88161546f565b9050919050565b7f4f7264657253746174697374696373547265652834303729202d2056616c75655f8201527f20746f2064656c6574652063616e6e6f74206265207a65726f00000000000000602082015250565b5f615509603983614513565b9150615514826154af565b604082019050919050565b5f6020820190508181035f830152615536816154fd565b9050919050565b7f4f7264657253746174697374696373547265652834303829202d2056616c75655f8201527f20746f2064656c65746520646f6573206e6f742065786973742e000000000000602082015250565b5f615597603a83614513565b91506155a28261553d565b604082019050919050565b5f6020820190508181035f8301526155c48161558b565b9050919050565b7f4e487b71000000000000000000000000000000000000000000000000000000005f52603260045260245ffd5b7f4e487b71000000000000000000000000000000000000000000000000000000005f52603160045260245ffd5b7f4f7264657253746174697374696373547265652834303429202d2056616c75655f8201527f20646f6573206e6f742065786973742e00000000000000000000000000000000602082015250565b5f61567f603083614513565b915061568a82615625565b604082019050919050565b5f6020820190508181035f8301526156ac81615673565b9050919050565b7f5061757361626c653a206e6f74207061757365640000000000000000000000005f82015250565b5f6156e7601483614513565b91506156f2826156b3565b602082019050919050565b5f6020820190508181035f830152615714816156db565b905091905056fea2646970667358221220b11838466c4a65b3cad2ba882bc5fe4486194262857ff0a31485e0fae18c5fca64736f6c63430008150033",
  "immutableReferences": {},
  "source": "// SPDX-License-Identifier: BSD-3-Clause\npragma solidity ^0.8.1;\nimport \"./@openzeppelin/contracts/token/ERC20/ERC20.sol\";\nimport \"./@openzeppelin/contracts/access/AccessControl.sol\";\nimport \"./@openzeppelin/contracts/security/Pausable.sol\";\nimport \"./OrderStatisticsTree/HitchensOrderStatisticsTreeLib.sol\";\n\n/**\n * @title PostageStamp contract\n * @author The Swarm Authors\n * @dev The postage stamp contracts allows users to create and manage postage stamp batches.\n * The current balance for each batch is stored ordered in descending order of normalised balance.\n * Balance is normalised to be per chunk and the total spend since the contract was deployed, i.e. when a batch\n * is bought, its per-chunk balance is supplemented with the current cost of storing one chunk since the beginning of time,\n * as if the batch had existed since the contract's inception. During the _expiry_ process, each of these balances is\n * checked against the _currentTotalOutPayment_, a similarly normalised figure that represents the current cost of\n * storing one chunk since the beginning of time. A batch with a normalised balance less than _currentTotalOutPayment_\n * is treated as expired.\n *\n * The _currentTotalOutPayment_ is calculated using _totalOutPayment_ which is updated during _setPrice_ events so\n * that the applicable per-chunk prices can be charged for the relevant periods of time. This can then be multiplied\n * by the amount of chunks which are allowed to be stamped by each batch to get the actual cost of storage.\n *\n * The amount of chunks a batch can stamp is determined by the _bucketDepth_. A batch may store a maximum of 2^depth chunks.\n * The global figure for the currently allowed chunks is tracked by _validChunkCount_ and updated during batch _expiry_ events.\n */\n\ncontract PostageStamp is AccessControl, Pausable {\n    using HitchensOrderStatisticsTreeLib for HitchensOrderStatisticsTreeLib.Tree;\n\n    /**\n     * @dev Emitted when a new batch is created.\n     */\n    event BatchCreated(\n        bytes32 indexed batchId,\n        uint256 totalAmount,\n        uint256 normalisedBalance,\n        address owner,\n        uint8 depth,\n        uint8 bucketDepth,\n        bool immutableFlag\n    );\n\n    /**\n     * @dev Emitted when an existing batch is topped up.\n     */\n    event BatchTopUp(bytes32 indexed batchId, uint256 topupAmount, uint256 normalisedBalance);\n\n    /**\n     * @dev Emitted when the depth of an existing batch increases.\n     */\n    event BatchDepthIncrease(bytes32 indexed batchId, uint8 newDepth, uint256 normalisedBalance);\n\n    /**\n     *@dev Emitted on every price update.\n     */\n    event PriceUpdate(uint256 price);\n\n    struct Batch {\n        // Owner of this batch (0 if not valid).\n        address owner;\n        // Current depth of this batch.\n        uint8 depth;\n        // Whether this batch is immutable.\n        bool immutableFlag;\n        // Normalised balance per chunk.\n        uint256 normalisedBalance;\n    }\n\n    // Role allowed to increase totalOutPayment.\n    bytes32 public constant PRICE_ORACLE_ROLE = keccak256(\"PRICE_ORACLE\");\n    // Role allowed to pause\n    bytes32 public constant PAUSER_ROLE = keccak256(\"PAUSER_ROLE\");\n    // Role allowed to withdraw the pot.\n    bytes32 public constant REDISTRIBUTOR_ROLE = keccak256(\"REDISTRIBUTOR_ROLE\");\n\n    // Associate every batch id with batch data.\n    mapping(bytes32 => Batch) public batches;\n    // Store every batch id ordered by normalisedBalance.\n    HitchensOrderStatisticsTreeLib.Tree tree;\n\n    // Address of the ERC20 token this contract references.\n    address public bzzToken;\n\n    // Total out payment per chunk, at the blockheight of the last price change.\n    uint256 private totalOutPayment;\n\n    // Minimum allowed depth of bucket.\n    uint8 public minimumBucketDepth;\n\n    // Combined global chunk capacity of valid batches remaining at the blockheight expire() was last called.\n    uint256 public validChunkCount;\n\n    // Lottery pot at last update.\n    uint256 public pot;\n\n    // Price from the last update.\n    uint256 public lastPrice = 0;\n    // Block at which the last update occured.\n    uint256 public lastUpdatedBlock;\n    // Normalised balance at the blockheight expire() was last called.\n    uint256 public lastExpiryBalance;\n\n    /**\n     * @param _bzzToken The ERC20 token address to reference in this contract.\n     * @param _minimumBucketDepth The minimum bucket depth of batches that can be purchased.\n     */\n    constructor(address _bzzToken, uint8 _minimumBucketDepth) {\n        bzzToken = _bzzToken;\n        minimumBucketDepth = _minimumBucketDepth;\n        _setupRole(DEFAULT_ADMIN_ROLE, msg.sender);\n        _setupRole(PAUSER_ROLE, msg.sender);\n    }\n\n    /**\n     * @notice Create a new batch.\n     * @dev At least `_initialBalancePerChunk*2^depth` tokens must be approved in the ERC20 token contract.\n     * @param _owner Owner of the new batch.\n     * @param _initialBalancePerChunk Initial balance per chunk.\n     * @param _depth Initial depth of the new batch.\n     * @param _nonce A random value used in the batch id derivation to allow multiple batches per owner.\n     * @param _immutable Whether the batch is mutable.\n     */\n    function createBatch(\n        address _owner,\n        uint256 _initialBalancePerChunk,\n        uint8 _depth,\n        uint8 _bucketDepth,\n        bytes32 _nonce,\n        bool _immutable\n    ) external whenNotPaused {\n        require(_owner != address(0), \"owner cannot be the zero address\");\n        // bucket depth should be non-zero and smaller than the depth\n        require(_bucketDepth != 0 && minimumBucketDepth <= _bucketDepth && _bucketDepth < _depth, \"invalid bucket depth\");\n        // derive batchId from msg.sender to ensure another party cannot use the same batch id and frontrun us.\n        bytes32 batchId = keccak256(abi.encode(msg.sender, _nonce));\n        require(batches[batchId].owner == address(0), \"batch already exists\");\n\n        // per chunk balance multiplied by the batch size in chunks must be transferred from the sender\n        uint256 totalAmount = _initialBalancePerChunk * (1 << _depth);\n        require(ERC20(bzzToken).transferFrom(msg.sender, address(this), totalAmount), \"failed transfer\");\n\n        // normalisedBalance is an absolute value per chunk, as if the batch had existed\n        // since the block the contract was deployed, so we must supplement this batch's\n        // _initialBalancePerChunk with the currentTotalOutPayment()\n        uint256 normalisedBalance = currentTotalOutPayment() + (_initialBalancePerChunk);\n\n        //update validChunkCount to remove currently expired batches\n        expireLimited(type(uint256).max);\n\n        //then add the chunks this batch will contribute\n        validChunkCount += 1 << _depth;\n\n        batches[batchId] = Batch({\n            owner: _owner,\n            depth: _depth,\n            immutableFlag: _immutable,\n            normalisedBalance: normalisedBalance\n        });\n\n        require(normalisedBalance > 0, \"normalisedBalance cannot be zero\");\n\n        // insert into the ordered tree\n        tree.insert(batchId, normalisedBalance);\n\n        emit BatchCreated(batchId, totalAmount, normalisedBalance, _owner, _depth, _bucketDepth, _immutable);\n    }\n\n    /**\n     * @notice Manually create a new batch when faciliatating migration, can only be called by the Admin role.\n     * @dev At least `_initialBalancePerChunk*2^depth` tokens must be approved in the ERC20 token contract.\n     * @param _owner Owner of the new batch.\n     * @param _initialBalancePerChunk Initial balance per chunk of the batch.\n     * @param _depth Initial depth of the new batch.\n     * @param _batchId BatchId being copied (from previous version contract data).\n     * @param _immutable Whether the batch is mutable.\n     */\n    function copyBatch(\n        address _owner,\n        uint256 _initialBalancePerChunk,\n        uint8 _depth,\n        uint8 _bucketDepth,\n        bytes32 _batchId,\n        bool _immutable\n    ) external whenNotPaused {\n        require(hasRole(DEFAULT_ADMIN_ROLE, msg.sender), \"only administrator can use copy method\");\n        require(_owner != address(0), \"owner cannot be the zero address\");\n        require(_bucketDepth != 0 && _bucketDepth < _depth, \"invalid bucket depth\");\n        require(batches[_batchId].owner == address(0), \"batch already exists\");\n\n        // per chunk balance multiplied by the batch size in chunks must be transferred from the sender\n        uint256 totalAmount = _initialBalancePerChunk * (1 << _depth);\n        require(ERC20(bzzToken).transferFrom(msg.sender, address(this), totalAmount), \"failed transfer\");\n\n        uint256 normalisedBalance = currentTotalOutPayment() + (_initialBalancePerChunk);\n\n        validChunkCount += 1 << _depth;\n\n        batches[_batchId] = Batch({\n            owner: _owner,\n            depth: _depth,\n            immutableFlag: _immutable,\n            normalisedBalance: normalisedBalance\n        });\n\n        require(normalisedBalance > 0, \"normalisedBalance cannot be zero\");\n\n        tree.insert(_batchId, normalisedBalance);\n\n        emit BatchCreated(_batchId, totalAmount, normalisedBalance, _owner, _depth, _bucketDepth, _immutable);\n    }\n\n    /**\n     * @notice Top up an existing batch.\n     * @dev At least `_topupAmountPerChunk*2^depth` tokens must be approved in the ERC20 token contract.\n     * @param _batchId The id of an existing batch.\n     * @param _topupAmountPerChunk The amount of additional tokens to add per chunk.\n     */\n    function topUp(bytes32 _batchId, uint256 _topupAmountPerChunk) external whenNotPaused {\n        Batch storage batch = batches[_batchId];\n        require(batch.owner != address(0), \"batch does not exist or has expired\");\n        require(batch.normalisedBalance > currentTotalOutPayment(), \"batch already expired\");\n        require(batch.depth > minimumBucketDepth, \"batch too small to renew\");\n\n        // per chunk balance multiplied by the batch size in chunks must be transferred from the sender\n        uint256 totalAmount = _topupAmountPerChunk * (1 << batch.depth);\n        require(ERC20(bzzToken).transferFrom(msg.sender, address(this), totalAmount), \"failed transfer\");\n\n        // update by removing batch and then reinserting\n        tree.remove(_batchId, batch.normalisedBalance);\n        batch.normalisedBalance = batch.normalisedBalance + (_topupAmountPerChunk);\n        tree.insert(_batchId, batch.normalisedBalance);\n\n        emit BatchTopUp(_batchId, totalAmount, batch.normalisedBalance);\n    }\n\n    /**\n     * @notice Increase the depth of an existing batch.\n     * @dev Can only be called by the owner of the batch.\n     * @param _batchId the id of an existing batch.\n     * @param _newDepth the new (larger than the previous one) depth for this batch.\n     */\n    function increaseDepth(bytes32 _batchId, uint8 _newDepth) external whenNotPaused {\n        Batch storage batch = batches[_batchId];\n\n        require(batch.owner == msg.sender, \"not batch owner\");\n        require(minimumBucketDepth < _newDepth && batch.depth < _newDepth, \"depth not increasing\");\n        require(!batch.immutableFlag, \"batch is immutable\");\n        require(batch.normalisedBalance > currentTotalOutPayment(), \"batch already expired\");\n\n        uint8 depthChange = _newDepth - batch.depth;\n        // divide by the change in batch size (2^depthChange)\n        uint256 newRemainingBalance = remainingBalance(_batchId) / (1 << depthChange);\n\n        // expire batches up to current block before amending validChunkCount to include\n        // the new chunks resultant of the depth increase\n        expireLimited(type(uint256).max);\n        validChunkCount += (1 << _newDepth) - (1 << batch.depth);\n\n        // update by removing batch and then reinserting\n        tree.remove(_batchId, batch.normalisedBalance);\n        batch.depth = _newDepth;\n        batch.normalisedBalance = currentTotalOutPayment() + (newRemainingBalance);\n        tree.insert(_batchId, batch.normalisedBalance);\n\n        emit BatchDepthIncrease(_batchId, _newDepth, batch.normalisedBalance);\n    }\n\n    /**\n     * @notice Return the per chunk balance not yet used up.\n     * @param _batchId The id of an existing batch.\n     */\n    function remainingBalance(bytes32 _batchId) public view returns (uint256) {\n        Batch storage batch = batches[_batchId];\n        require(batch.owner != address(0), \"batch does not exist or expired\");\n        if (batch.normalisedBalance <= currentTotalOutPayment()) {\n            return 0;\n        }\n        return batch.normalisedBalance - currentTotalOutPayment();\n    }\n\n    /**\n     * @notice Set a new price.\n     * @dev Can only be called by the price oracle role.\n     * @param _price The new price.\n     */\n    function setPrice(uint256 _price) external {\n        require(hasRole(PRICE_ORACLE_ROLE, msg.sender), \"only price oracle can set the price\");\n\n        // if there was a last price, add the outpayment since the last update\n        // using the last price to _totalOutPayment_. if there was not a lastPrice,\n        // the lastprice must have been zero.\n        if (lastPrice != 0) {\n            totalOutPayment = currentTotalOutPayment();\n        }\n\n        lastPrice = _price;\n        lastUpdatedBlock = block.number;\n\n        emit PriceUpdate(_price);\n    }\n\n    /**\n     * @notice Total per-chunk cost since the contract's deployment.\n     * @dev Returns the total normalised all-time per chunk payout.\n     * Only Batches with a normalised balance greater than this are valid.\n     */\n    function currentTotalOutPayment() public view returns (uint256) {\n        uint256 blocks = block.number - lastUpdatedBlock;\n        uint256 increaseSinceLastUpdate = lastPrice * (blocks);\n        return totalOutPayment + (increaseSinceLastUpdate);\n    }\n\n    /**\n     * @notice Pause the contract.\n     * @dev Can only be called by the pauser when not paused.\n     * The contract can be provably stopped by renouncing the pauser role and the admin role once paused.\n     */\n    function pause() public {\n        require(hasRole(PAUSER_ROLE, msg.sender), \"only pauser can pause\");\n        _pause();\n    }\n\n    /**\n     * @notice Unpause the contract.\n     * @dev Can only be called by the pauser role while paused.\n     */\n    function unPause() public {\n        require(hasRole(PAUSER_ROLE, msg.sender), \"only pauser can unpause\");\n        _unpause();\n    }\n\n    /**\n     * @notice Return true if no batches exist\n     */\n    function empty() public view returns (bool) {\n        return tree.count() == 0;\n    }\n\n    /**\n     * @notice Get the first batch id ordered by ascending normalised balance.\n     * @dev If more than one batch id, return index at 0, if no batches, revert.\n     */\n    function firstBatchId() public view returns (bytes32) {\n        uint256 val = tree.first();\n        require(val > 0, \"no batches exist\");\n        return tree.valueKeyAtIndex(val, 0);\n    }\n\n    /**\n     * @notice Reclaims a limited number of expired batches\n     * @dev Can be used if reclaiming all expired batches would exceed the block gas limit, causing other\n     * contract method calls to fail.\n     * @param limit The maximum number of batches to expire.\n     */\n    function expireLimited(uint256 limit) public {\n        // the lower bound of the normalised balance for which we will check if batches have expired\n        uint256 leb = lastExpiryBalance;\n        uint256 i;\n        for (i = 0; i < limit; i++) {\n            if (empty()) {\n                lastExpiryBalance = currentTotalOutPayment();\n                break;\n            }\n            // get the batch with the smallest normalised balance\n            bytes32 fbi = firstBatchId();\n            // if the batch with the smallest balance has not yet expired\n            // we have already reached the end of the batches we need\n            // to expire, so exit the loop\n            if (remainingBalance(fbi) > 0) {\n                // the upper bound of the normalised balance for which we will check if batches have expired\n                // value is updated when there are no expired batches left\n                lastExpiryBalance = currentTotalOutPayment();\n                break;\n            }\n            // otherwise, the batch with the smallest balance has expired,\n            // so we must remove the chunks this batch contributes to the global validChunkCount\n            Batch storage batch = batches[fbi];\n            uint256 batchSize = 1 << batch.depth;\n            require(validChunkCount >= batchSize , \"insufficient valid chunk count\");\n            validChunkCount -= batchSize;\n            // since the batch expired _during_ the period we must add\n            // remaining normalised payout for this batch only\n            pot += batchSize * (batch.normalisedBalance - leb);\n            tree.remove(fbi, batch.normalisedBalance);\n            delete batches[fbi];\n        }\n        // then, for all batches that have _not_ expired during the period\n        // add the total normalised payout of all batches\n        // multiplied by the remaining total valid chunk count\n        // to the pot for the period since the last expiry\n\n        require(lastExpiryBalance >= leb, \"current total outpayment should never decrease\");\n\n        // then, for all batches that have _not_ expired during the period\n        // add the total normalised payout of all batches\n        // multiplied by the remaining total valid chunk count\n        // to the pot for the period since the last expiry\n        pot += validChunkCount * (lastExpiryBalance - leb);\n    }\n\n    /**\n     * @notice Indicates whether expired batches exist.\n     */\n    function expiredBatchesExist() public view returns (bool) {\n        if (empty()){\n            return false;\n        }\n        return (remainingBalance(firstBatchId()) <= 0);\n    }\n\n    /**\n     * @notice The current pot.\n     */\n    function totalPot() public returns (uint256) {\n        expireLimited(type(uint256).max);\n        uint256 balance = ERC20(bzzToken).balanceOf(address(this));\n        return pot < balance ? pot : balance;\n    }\n\n    /**\n     * @notice Withdraw the pot, authorised callers only.\n     * @param beneficiary Recieves the current total pot.\n     */\n\n    function withdraw(address beneficiary) external {\n        require(hasRole(REDISTRIBUTOR_ROLE, msg.sender), \"only redistributor can withdraw from the contract\");\n        require(ERC20(bzzToken).transfer(beneficiary, totalPot()), \"failed transfer\");\n        pot = 0;\n    }\n\n    /**\n     * @notice Topup the pot.\n     * @param amount Amount of tokens the pot will be topped up by.\n     */\n    function topupPot(uint256 amount) external {\n        require(ERC20(bzzToken).transferFrom(msg.sender, address(this), amount), \"failed transfer\");\n        pot += amount;\n    }\n}\n\n",
  "sourcePath": "/home/daniel/Sync/Master/MasterThesisSSC/SwarmStorageContractBank/contracts/PostageStamp.sol",
  "compiler": {
    "name": "solc",
    "version": "0.8.21+commit.d9974bed.Emscripten.clang"
  },
  "schemaVersion": "3.4.16",
  "updatedAt": "2024-03-07T13:22:52.018Z",
  "devdoc": {
    "author": "The Swarm Authors",
    "details": "The postage stamp contracts allows users to create and manage postage stamp batches. The current balance for each batch is stored ordered in descending order of normalised balance. Balance is normalised to be per chunk and the total spend since the contract was deployed, i.e. when a batch is bought, its per-chunk balance is supplemented with the current cost of storing one chunk since the beginning of time, as if the batch had existed since the contract's inception. During the _expiry_ process, each of these balances is checked against the _currentTotalOutPayment_, a similarly normalised figure that represents the current cost of storing one chunk since the beginning of time. A batch with a normalised balance less than _currentTotalOutPayment_ is treated as expired. The _currentTotalOutPayment_ is calculated using _totalOutPayment_ which is updated during _setPrice_ events so that the applicable per-chunk prices can be charged for the relevant periods of time. This can then be multiplied by the amount of chunks which are allowed to be stamped by each batch to get the actual cost of storage. The amount of chunks a batch can stamp is determined by the _bucketDepth_. A batch may store a maximum of 2^depth chunks. The global figure for the currently allowed chunks is tracked by _validChunkCount_ and updated during batch _expiry_ events.",
    "events": {
      "BatchCreated(bytes32,uint256,uint256,address,uint8,uint8,bool)": {
        "details": "Emitted when a new batch is created."
      },
      "BatchDepthIncrease(bytes32,uint8,uint256)": {
        "details": "Emitted when the depth of an existing batch increases."
      },
      "BatchTopUp(bytes32,uint256,uint256)": {
        "details": "Emitted when an existing batch is topped up."
      },
      "Paused(address)": {
        "details": "Emitted when the pause is triggered by `account`."
      },
      "PriceUpdate(uint256)": {
        "details": "Emitted on every price update."
      },
      "RoleAdminChanged(bytes32,bytes32,bytes32)": {
        "details": "Emitted when `newAdminRole` is set as ``role``'s admin role, replacing `previousAdminRole` `DEFAULT_ADMIN_ROLE` is the starting admin for all roles, despite {RoleAdminChanged} not being emitted signaling this. _Available since v3.1._"
      },
      "RoleGranted(bytes32,address,address)": {
        "details": "Emitted when `account` is granted `role`. `sender` is the account that originated the contract call, an admin role bearer except when using {_setupRole}."
      },
      "RoleRevoked(bytes32,address,address)": {
        "details": "Emitted when `account` is revoked `role`. `sender` is the account that originated the contract call:   - if using `revokeRole`, it is the admin role bearer   - if using `renounceRole`, it is the role bearer (i.e. `account`)"
      },
      "Unpaused(address)": {
        "details": "Emitted when the pause is lifted by `account`."
      }
    },
    "kind": "dev",
    "methods": {
      "constructor": {
        "params": {
          "_bzzToken": "The ERC20 token address to reference in this contract.",
          "_minimumBucketDepth": "The minimum bucket depth of batches that can be purchased."
        }
      },
      "copyBatch(address,uint256,uint8,uint8,bytes32,bool)": {
        "details": "At least `_initialBalancePerChunk*2^depth` tokens must be approved in the ERC20 token contract.",
        "params": {
          "_batchId": "BatchId being copied (from previous version contract data).",
          "_depth": "Initial depth of the new batch.",
          "_immutable": "Whether the batch is mutable.",
          "_initialBalancePerChunk": "Initial balance per chunk of the batch.",
          "_owner": "Owner of the new batch."
        }
      },
      "createBatch(address,uint256,uint8,uint8,bytes32,bool)": {
        "details": "At least `_initialBalancePerChunk*2^depth` tokens must be approved in the ERC20 token contract.",
        "params": {
          "_depth": "Initial depth of the new batch.",
          "_immutable": "Whether the batch is mutable.",
          "_initialBalancePerChunk": "Initial balance per chunk.",
          "_nonce": "A random value used in the batch id derivation to allow multiple batches per owner.",
          "_owner": "Owner of the new batch."
        }
      },
      "currentTotalOutPayment()": {
        "details": "Returns the total normalised all-time per chunk payout. Only Batches with a normalised balance greater than this are valid."
      },
      "expireLimited(uint256)": {
        "details": "Can be used if reclaiming all expired batches would exceed the block gas limit, causing other contract method calls to fail.",
        "params": {
          "limit": "The maximum number of batches to expire."
        }
      },
      "firstBatchId()": {
        "details": "If more than one batch id, return index at 0, if no batches, revert."
      },
      "getRoleAdmin(bytes32)": {
        "details": "Returns the admin role that controls `role`. See {grantRole} and {revokeRole}. To change a role's admin, use {_setRoleAdmin}."
      },
      "grantRole(bytes32,address)": {
        "details": "Grants `role` to `account`. If `account` had not been already granted `role`, emits a {RoleGranted} event. Requirements: - the caller must have ``role``'s admin role."
      },
      "hasRole(bytes32,address)": {
        "details": "Returns `true` if `account` has been granted `role`."
      },
      "increaseDepth(bytes32,uint8)": {
        "details": "Can only be called by the owner of the batch.",
        "params": {
          "_batchId": "the id of an existing batch.",
          "_newDepth": "the new (larger than the previous one) depth for this batch."
        }
      },
      "pause()": {
        "details": "Can only be called by the pauser when not paused. The contract can be provably stopped by renouncing the pauser role and the admin role once paused."
      },
      "paused()": {
        "details": "Returns true if the contract is paused, and false otherwise."
      },
      "remainingBalance(bytes32)": {
        "params": {
          "_batchId": "The id of an existing batch."
        }
      },
      "renounceRole(bytes32,address)": {
        "details": "Revokes `role` from the calling account. Roles are often managed via {grantRole} and {revokeRole}: this function's purpose is to provide a mechanism for accounts to lose their privileges if they are compromised (such as when a trusted device is misplaced). If the calling account had been granted `role`, emits a {RoleRevoked} event. Requirements: - the caller must be `account`."
      },
      "revokeRole(bytes32,address)": {
        "details": "Revokes `role` from `account`. If `account` had been granted `role`, emits a {RoleRevoked} event. Requirements: - the caller must have ``role``'s admin role."
      },
      "setPrice(uint256)": {
        "details": "Can only be called by the price oracle role.",
        "params": {
          "_price": "The new price."
        }
      },
      "supportsInterface(bytes4)": {
        "details": "See {IERC165-supportsInterface}."
      },
      "topUp(bytes32,uint256)": {
        "details": "At least `_topupAmountPerChunk*2^depth` tokens must be approved in the ERC20 token contract.",
        "params": {
          "_batchId": "The id of an existing batch.",
          "_topupAmountPerChunk": "The amount of additional tokens to add per chunk."
        }
      },
      "topupPot(uint256)": {
        "params": {
          "amount": "Amount of tokens the pot will be topped up by."
        }
      },
      "unPause()": {
        "details": "Can only be called by the pauser role while paused."
      },
      "withdraw(address)": {
        "params": {
          "beneficiary": "Recieves the current total pot."
        }
      }
    },
    "title": "PostageStamp contract",
    "version": 1
  },
  "userdoc": {
    "kind": "user",
    "methods": {
      "copyBatch(address,uint256,uint8,uint8,bytes32,bool)": {
        "notice": "Manually create a new batch when faciliatating migration, can only be called by the Admin role."
      },
      "createBatch(address,uint256,uint8,uint8,bytes32,bool)": {
        "notice": "Create a new batch."
      },
      "currentTotalOutPayment()": {
        "notice": "Total per-chunk cost since the contract's deployment."
      },
      "empty()": {
        "notice": "Return true if no batches exist"
      },
      "expireLimited(uint256)": {
        "notice": "Reclaims a limited number of expired batches"
      },
      "expiredBatchesExist()": {
        "notice": "Indicates whether expired batches exist."
      },
      "firstBatchId()": {
        "notice": "Get the first batch id ordered by ascending normalised balance."
      },
      "increaseDepth(bytes32,uint8)": {
        "notice": "Increase the depth of an existing batch."
      },
      "pause()": {
        "notice": "Pause the contract."
      },
      "remainingBalance(bytes32)": {
        "notice": "Return the per chunk balance not yet used up."
      },
      "setPrice(uint256)": {
        "notice": "Set a new price."
      },
      "topUp(bytes32,uint256)": {
        "notice": "Top up an existing batch."
      },
      "topupPot(uint256)": {
        "notice": "Topup the pot."
      },
      "totalPot()": {
        "notice": "The current pot."
      },
      "unPause()": {
        "notice": "Unpause the contract."
      },
      "withdraw(address)": {
        "notice": "Withdraw the pot, authorised callers only."
      }
    },
    "version": 1
  }
}