{
  "contractName": "PriceOracle",
  "abi": [
    {
      "inputs": [
        {
          "internalType": "address",
          "name": "_postageStamp",
          "type": "address"
        }
      ],
      "stateMutability": "nonpayable",
      "type": "constructor"
    },
    {
      "anonymous": false,
      "inputs": [
        {
          "indexed": false,
          "internalType": "uint256",
          "name": "price",
          "type": "uint256"
        }
      ],
      "name": "PriceUpdate",
      "type": "event"
    },
    {
      "anonymous": false,
      "inputs": [
        {
          "indexed": true,
          "internalType": "bytes32",
          "name": "role",
          "type": "bytes32"
        },
        {
          "indexed": true,
          "internalType": "bytes32",
          "name": "previousAdminRole",
          "type": "bytes32"
        },
        {
          "indexed": true,
          "internalType": "bytes32",
          "name": "newAdminRole",
          "type": "bytes32"
        }
      ],
      "name": "RoleAdminChanged",
      "type": "event"
    },
    {
      "anonymous": false,
      "inputs": [
        {
          "indexed": true,
          "internalType": "bytes32",
          "name": "role",
          "type": "bytes32"
        },
        {
          "indexed": true,
          "internalType": "address",
          "name": "account",
          "type": "address"
        },
        {
          "indexed": true,
          "internalType": "address",
          "name": "sender",
          "type": "address"
        }
      ],
      "name": "RoleGranted",
      "type": "event"
    },
    {
      "anonymous": false,
      "inputs": [
        {
          "indexed": true,
          "internalType": "bytes32",
          "name": "role",
          "type": "bytes32"
        },
        {
          "indexed": true,
          "internalType": "address",
          "name": "account",
          "type": "address"
        },
        {
          "indexed": true,
          "internalType": "address",
          "name": "sender",
          "type": "address"
        }
      ],
      "name": "RoleRevoked",
      "type": "event"
    },
    {
      "inputs": [],
      "name": "DEFAULT_ADMIN_ROLE",
      "outputs": [
        {
          "internalType": "bytes32",
          "name": "",
          "type": "bytes32"
        }
      ],
      "stateMutability": "view",
      "type": "function"
    },
    {
      "inputs": [],
      "name": "PRICE_UPDATER_ROLE",
      "outputs": [
        {
          "internalType": "bytes32",
          "name": "",
          "type": "bytes32"
        }
      ],
      "stateMutability": "view",
      "type": "function"
    },
    {
      "inputs": [],
      "name": "currentPrice",
      "outputs": [
        {
          "internalType": "uint256",
          "name": "",
          "type": "uint256"
        }
      ],
      "stateMutability": "view",
      "type": "function"
    },
    {
      "inputs": [
        {
          "internalType": "bytes32",
          "name": "role",
          "type": "bytes32"
        }
      ],
      "name": "getRoleAdmin",
      "outputs": [
        {
          "internalType": "bytes32",
          "name": "",
          "type": "bytes32"
        }
      ],
      "stateMutability": "view",
      "type": "function"
    },
    {
      "inputs": [
        {
          "internalType": "bytes32",
          "name": "role",
          "type": "bytes32"
        },
        {
          "internalType": "address",
          "name": "account",
          "type": "address"
        }
      ],
      "name": "grantRole",
      "outputs": [],
      "stateMutability": "nonpayable",
      "type": "function"
    },
    {
      "inputs": [
        {
          "internalType": "bytes32",
          "name": "role",
          "type": "bytes32"
        },
        {
          "internalType": "address",
          "name": "account",
          "type": "address"
        }
      ],
      "name": "hasRole",
      "outputs": [
        {
          "internalType": "bool",
          "name": "",
          "type": "bool"
        }
      ],
      "stateMutability": "view",
      "type": "function"
    },
    {
      "inputs": [
        {
          "internalType": "uint256",
          "name": "",
          "type": "uint256"
        }
      ],
      "name": "increaseRate",
      "outputs": [
        {
          "internalType": "uint256",
          "name": "",
          "type": "uint256"
        }
      ],
      "stateMutability": "view",
      "type": "function"
    },
    {
      "inputs": [],
      "name": "isPaused",
      "outputs": [
        {
          "internalType": "bool",
          "name": "",
          "type": "bool"
        }
      ],
      "stateMutability": "view",
      "type": "function"
    },
    {
      "inputs": [],
      "name": "minimumPrice",
      "outputs": [
        {
          "internalType": "uint256",
          "name": "",
          "type": "uint256"
        }
      ],
      "stateMutability": "view",
      "type": "function"
    },
    {
      "inputs": [],
      "name": "postageStamp",
      "outputs": [
        {
          "internalType": "contract PostageStamp",
          "name": "",
          "type": "address"
        }
      ],
      "stateMutability": "view",
      "type": "function"
    },
    {
      "inputs": [
        {
          "internalType": "bytes32",
          "name": "role",
          "type": "bytes32"
        },
        {
          "internalType": "address",
          "name": "account",
          "type": "address"
        }
      ],
      "name": "renounceRole",
      "outputs": [],
      "stateMutability": "nonpayable",
      "type": "function"
    },
    {
      "inputs": [
        {
          "internalType": "bytes32",
          "name": "role",
          "type": "bytes32"
        },
        {
          "internalType": "address",
          "name": "account",
          "type": "address"
        }
      ],
      "name": "revokeRole",
      "outputs": [],
      "stateMutability": "nonpayable",
      "type": "function"
    },
    {
      "inputs": [
        {
          "internalType": "bytes4",
          "name": "interfaceId",
          "type": "bytes4"
        }
      ],
      "name": "supportsInterface",
      "outputs": [
        {
          "internalType": "bool",
          "name": "",
          "type": "bool"
        }
      ],
      "stateMutability": "view",
      "type": "function"
    },
    {
      "inputs": [
        {
          "internalType": "uint256",
          "name": "_price",
          "type": "uint256"
        }
      ],
      "name": "setPrice",
      "outputs": [],
      "stateMutability": "nonpayable",
      "type": "function"
    },
    {
      "inputs": [],
      "name": "pause",
      "outputs": [],
      "stateMutability": "nonpayable",
      "type": "function"
    },
    {
      "inputs": [],
      "name": "unPause",
      "outputs": [],
      "stateMutability": "nonpayable",
      "type": "function"
    },
    {
      "inputs": [
        {
          "internalType": "uint256",
          "name": "redundancy",
          "type": "uint256"
        }
      ],
      "name": "adjustPrice",
      "outputs": [],
      "stateMutability": "nonpayable",
      "type": "function"
    }
  ],
  "bytecode": "0x60806040526104006001556040518061012001604052805f61ffff16815260200161042d61ffff16815260200161041861ffff16815260200161040861ffff16815260200161040061ffff1681526020016103fd61ffff1681526020016103f761ffff1681526020016103eb61ffff1681526020016103d461ffff16815250600290600962000090929190620002e0565b50600460035f6101000a81548161ffff021916908361ffff1602179055506004600360026101000a81548161ffff021916908361ffff1602179055506001600360046101000a81548160ff021916908315150217905550348015620000f3575f80fd5b506040516200176f3803806200176f8339818101604052810190620001199190620003b8565b6200012d5f801b336200017560201b60201c565b80600360056101000a81548173ffffffffffffffffffffffffffffffffffffffff021916908373ffffffffffffffffffffffffffffffffffffffff16021790555050620003e8565b6200018782826200018b60201b60201c565b5050565b6200019d82826200027660201b60201c565b620002725760015f808481526020019081526020015f205f015f8373ffffffffffffffffffffffffffffffffffffffff1673ffffffffffffffffffffffffffffffffffffffff1681526020019081526020015f205f6101000a81548160ff02191690831515021790555062000217620002d960201b60201c565b73ffffffffffffffffffffffffffffffffffffffff168173ffffffffffffffffffffffffffffffffffffffff16837f2f8788117e7eff1d82e926ec794901d17c78024a50270940304540a733656f0d60405160405180910390a45b5050565b5f805f8481526020019081526020015f205f015f8373ffffffffffffffffffffffffffffffffffffffff1673ffffffffffffffffffffffffffffffffffffffff1681526020019081526020015f205f9054906101000a900460ff16905092915050565b5f33905090565b828054828255905f5260205f2090810192821562000323579160200282015b8281111562000322578251829061ffff16905591602001919060010190620002ff565b5b50905062000332919062000336565b5090565b5b808211156200034f575f815f90555060010162000337565b5090565b5f80fd5b5f73ffffffffffffffffffffffffffffffffffffffff82169050919050565b5f620003828262000357565b9050919050565b620003948162000376565b81146200039f575f80fd5b50565b5f81519050620003b28162000389565b92915050565b5f60208284031215620003d057620003cf62000353565b5b5f620003df84828501620003a2565b91505092915050565b61137980620003f65f395ff3fe608060405234801561000f575f80fd5b5060043610610108575f3560e01c806391b7f5ed116100a0578063b187bd261161006f578063b187bd26146102a0578063d547741f146102be578063e0632c64146102da578063f7b188a5146102f8578063fb8d81011461030257610108565b806391b7f5ed1461021857806391d14854146102345780639d1b464a14610264578063a217fddf1461028257610108565b806336568abe116100dc57806336568abe146101b857806372bf079e146101d45780637f386b6c146101f05780638456cb591461020e57610108565b806280248f1461010c57806301ffc9a71461013c578063248a9ca31461016c5780632f2ff15d1461019c575b5f80fd5b61012660048036038101906101219190610c7f565b610320565b6040516101339190610cb9565b60405180910390f35b61015660048036038101906101519190610d27565b610340565b6040516101639190610d6c565b60405180910390f35b61018660048036038101906101819190610db8565b6103b9565b6040516101939190610df2565b60405180910390f35b6101b660048036038101906101b19190610e65565b6103d5565b005b6101d260048036038101906101cd9190610e65565b61043b565b005b6101ee60048036038101906101e99190610c7f565b6104be565b005b6101f86106ef565b6040516102059190610cb9565b60405180910390f35b6102166106f5565b005b610232600480360381019061022d9190610c7f565b61075d565b005b61024e60048036038101906102499190610e65565b61088b565b60405161025b9190610d6c565b60405180910390f35b61026c6108ee565b6040516102799190610cb9565b60405180910390f35b61028a6108f4565b6040516102979190610df2565b60405180910390f35b6102a86108fa565b6040516102b59190610d6c565b60405180910390f35b6102d860048036038101906102d39190610e65565b61090d565b005b6102e2610973565b6040516102ef9190610efe565b60405180910390f35b610300610999565b005b61030a610a00565b6040516103179190610df2565b60405180910390f35b6002818154811061032f575f80fd5b905f5260205f20015f915090505481565b5f7f7965db0b000000000000000000000000000000000000000000000000000000007bffffffffffffffffffffffffffffffffffffffffffffffffffffffff1916827bffffffffffffffffffffffffffffffffffffffffffffffffffffffff191614806103b257506103b182610a24565b5b9050919050565b5f805f8381526020019081526020015f20600101549050919050565b6103ee6103e1836103b9565b6103e9610a8d565b61088b565b61042d576040517f08c379a000000000000000000000000000000000000000000000000000000000815260040161042490610f97565b60405180910390fd5b6104378282610a94565b5050565b610443610a8d565b73ffffffffffffffffffffffffffffffffffffffff168173ffffffffffffffffffffffffffffffffffffffff16146104b0576040517f08c379a00000000000000000000000000000000000000000000000000000000081526004016104a790611025565b60405180910390fd5b6104ba8282610b6e565b5050565b5f1515600360049054906101000a900460ff161515036106ec576105027f74b366a297145849fa9687e16ecad1e3a60cf84f6c2256ae73e20a9f766698043361088b565b610541576040517f08c379a00000000000000000000000000000000000000000000000000000000081526004016105389061108d565b60405180910390fd5b5f61040090505f8290505f831161058d576040517f08c379a0000000000000000000000000000000000000000000000000000000008152600401610584906110f5565b60405180910390fd5b5f600360029054906101000a900461ffff1660035f9054906101000a900461ffff166105b9919061114d565b90508061ffff168411156105cf578061ffff1691505b5f600283815481106105e4576105e3611182565b5b905f5260205f200154905083600154826105fe91906111af565b610608919061121d565b6001819055506104006001541015610624576104006001819055505b600360059054906101000a900473ffffffffffffffffffffffffffffffffffffffff1673ffffffffffffffffffffffffffffffffffffffff166391b7f5ed6001546040518263ffffffff1660e01b81526004016106819190610cb9565b5f604051808303815f87803b158015610698575f80fd5b505af11580156106aa573d5f803e3d5ffd5b505050507fae46785019700e30375a5d7b4f91e32f8060ef085111f896ebf889450aa2ab5a6001546040516106df9190610cb9565b60405180910390a1505050505b50565b61040081565b6107015f801b3361088b565b610740576040517f08c379a000000000000000000000000000000000000000000000000000000000815260040161073790611297565b60405180910390fd5b6001600360046101000a81548160ff021916908315150217905550565b6107695f801b3361088b565b6107a8576040517f08c379a000000000000000000000000000000000000000000000000000000000815260040161079f90611297565b60405180910390fd5b8060018190555061040060015410156107c5576104006001819055505b600360059054906101000a900473ffffffffffffffffffffffffffffffffffffffff1673ffffffffffffffffffffffffffffffffffffffff166391b7f5ed6001546040518263ffffffff1660e01b81526004016108229190610cb9565b5f604051808303815f87803b158015610839575f80fd5b505af115801561084b573d5f803e3d5ffd5b505050507fae46785019700e30375a5d7b4f91e32f8060ef085111f896ebf889450aa2ab5a6001546040516108809190610cb9565b60405180910390a150565b5f805f8481526020019081526020015f205f015f8373ffffffffffffffffffffffffffffffffffffffff1673ffffffffffffffffffffffffffffffffffffffff1681526020019081526020015f205f9054906101000a900460ff16905092915050565b60015481565b5f801b81565b600360049054906101000a900460ff1681565b610926610919836103b9565b610921610a8d565b61088b565b610965576040517f08c379a000000000000000000000000000000000000000000000000000000000815260040161095c90611325565b60405180910390fd5b61096f8282610b6e565b5050565b600360059054906101000a900473ffffffffffffffffffffffffffffffffffffffff1681565b6109a55f801b3361088b565b6109e4576040517f08c379a00000000000000000000000000000000000000000000000000000000081526004016109db90611297565b60405180910390fd5b5f600360046101000a81548160ff021916908315150217905550565b7f74b366a297145849fa9687e16ecad1e3a60cf84f6c2256ae73e20a9f7666980481565b5f7f01ffc9a7000000000000000000000000000000000000000000000000000000007bffffffffffffffffffffffffffffffffffffffffffffffffffffffff1916827bffffffffffffffffffffffffffffffffffffffffffffffffffffffff1916149050919050565b5f33905090565b610a9e828261088b565b610b6a5760015f808481526020019081526020015f205f015f8373ffffffffffffffffffffffffffffffffffffffff1673ffffffffffffffffffffffffffffffffffffffff1681526020019081526020015f205f6101000a81548160ff021916908315150217905550610b0f610a8d565b73ffffffffffffffffffffffffffffffffffffffff168173ffffffffffffffffffffffffffffffffffffffff16837f2f8788117e7eff1d82e926ec794901d17c78024a50270940304540a733656f0d60405160405180910390a45b5050565b610b78828261088b565b15610c44575f805f8481526020019081526020015f205f015f8373ffffffffffffffffffffffffffffffffffffffff1673ffffffffffffffffffffffffffffffffffffffff1681526020019081526020015f205f6101000a81548160ff021916908315150217905550610be9610a8d565b73ffffffffffffffffffffffffffffffffffffffff168173ffffffffffffffffffffffffffffffffffffffff16837ff6391f5c32d9c69d2a47ea670b442974b53935d1edc7fd64eb21e047a839171b60405160405180910390a45b5050565b5f80fd5b5f819050919050565b610c5e81610c4c565b8114610c68575f80fd5b50565b5f81359050610c7981610c55565b92915050565b5f60208284031215610c9457610c93610c48565b5b5f610ca184828501610c6b565b91505092915050565b610cb381610c4c565b82525050565b5f602082019050610ccc5f830184610caa565b92915050565b5f7fffffffff0000000000000000000000000000000000000000000000000000000082169050919050565b610d0681610cd2565b8114610d10575f80fd5b50565b5f81359050610d2181610cfd565b92915050565b5f60208284031215610d3c57610d3b610c48565b5b5f610d4984828501610d13565b91505092915050565b5f8115159050919050565b610d6681610d52565b82525050565b5f602082019050610d7f5f830184610d5d565b92915050565b5f819050919050565b610d9781610d85565b8114610da1575f80fd5b50565b5f81359050610db281610d8e565b92915050565b5f60208284031215610dcd57610dcc610c48565b5b5f610dda84828501610da4565b91505092915050565b610dec81610d85565b82525050565b5f602082019050610e055f830184610de3565b92915050565b5f73ffffffffffffffffffffffffffffffffffffffff82169050919050565b5f610e3482610e0b565b9050919050565b610e4481610e2a565b8114610e4e575f80fd5b50565b5f81359050610e5f81610e3b565b92915050565b5f8060408385031215610e7b57610e7a610c48565b5b5f610e8885828601610da4565b9250506020610e9985828601610e51565b9150509250929050565b5f819050919050565b5f610ec6610ec1610ebc84610e0b565b610ea3565b610e0b565b9050919050565b5f610ed782610eac565b9050919050565b5f610ee882610ecd565b9050919050565b610ef881610ede565b82525050565b5f602082019050610f115f830184610eef565b92915050565b5f82825260208201905092915050565b7f416363657373436f6e74726f6c3a2073656e646572206d75737420626520616e5f8201527f2061646d696e20746f206772616e740000000000000000000000000000000000602082015250565b5f610f81602f83610f17565b9150610f8c82610f27565b604082019050919050565b5f6020820190508181035f830152610fae81610f75565b9050919050565b7f416363657373436f6e74726f6c3a2063616e206f6e6c792072656e6f756e63655f8201527f20726f6c657320666f722073656c660000000000000000000000000000000000602082015250565b5f61100f602f83610f17565b915061101a82610fb5565b604082019050919050565b5f6020820190508181035f83015261103c81611003565b9050919050565b7f63616c6c6572206973206e6f74206120707269636520757064617465720000005f82015250565b5f611077601d83610f17565b915061108282611043565b602082019050919050565b5f6020820190508181035f8301526110a48161106b565b9050919050565b7f756e6578706563746564207a65726f00000000000000000000000000000000005f82015250565b5f6110df600f83610f17565b91506110ea826110ab565b602082019050919050565b5f6020820190508181035f83015261110c816110d3565b9050919050565b5f61ffff82169050919050565b7f4e487b71000000000000000000000000000000000000000000000000000000005f52601160045260245ffd5b5f61115782611113565b915061116283611113565b9250828201905061ffff81111561117c5761117b611120565b5b92915050565b7f4e487b71000000000000000000000000000000000000000000000000000000005f52603260045260245ffd5b5f6111b982610c4c565b91506111c483610c4c565b92508282026111d281610c4c565b915082820484148315176111e9576111e8611120565b5b5092915050565b7f4e487b71000000000000000000000000000000000000000000000000000000005f52601260045260245ffd5b5f61122782610c4c565b915061123283610c4c565b925082611242576112416111f0565b5b828204905092915050565b7f63616c6c6572206973206e6f74207468652061646d696e0000000000000000005f82015250565b5f611281601783610f17565b915061128c8261124d565b602082019050919050565b5f6020820190508181035f8301526112ae81611275565b9050919050565b7f416363657373436f6e74726f6c3a2073656e646572206d75737420626520616e5f8201527f2061646d696e20746f207265766f6b6500000000000000000000000000000000602082015250565b5f61130f603083610f17565b915061131a826112b5565b604082019050919050565b5f6020820190508181035f83015261133c81611303565b905091905056fea26469706673582212204e4827942b48443687407e3439ab40f84860353bade59f135760ae4c4b09246164736f6c63430008150033",
  "immutableReferences": {},
  "source": "// SPDX-License-Identifier: BSD-3-Clause\npragma solidity ^0.8.1;\nimport \"./@openzeppelin/contracts/access/AccessControl.sol\";\nimport \"./PostageStamp.sol\";\n\n/**\n * @title PriceOracle contract.\n * @author The Swarm Authors.\n * @dev The price oracle contract emits a price feed using events.\n */\ncontract PriceOracle is AccessControl {\n    /**\n     *@dev Emitted on every price update.\n     */\n    event PriceUpdate(uint256 price);\n\n    // Role allowed to update price\n    bytes32 public constant PRICE_UPDATER_ROLE = keccak256(\"PRICE_UPDATER\");\n\n    // The minimum price allowed\n    uint256 public constant minimumPrice = 1024;\n\n    // The current price is the atomic unit.\n    uint256 public currentPrice = minimumPrice;\n\n    // Constants used to modulate the price, see below usage\n    uint256[] public increaseRate = [0, 1069, 1048, 1032, 1024, 1021, 1015, 1003, 980];\n\n    uint16 targetRedundancy = 4;\n    uint16 maxConsideredExtraRedundancy = 4;\n\n    // When the contract is paused, price changes are not effective\n    bool public isPaused = true;\n\n    // The address of the linked PostageStamp contract\n    PostageStamp public postageStamp;\n\n    constructor(address _postageStamp) {\n        _setupRole(DEFAULT_ADMIN_ROLE, msg.sender);\n        postageStamp = PostageStamp(_postageStamp);\n    }\n\n    /**\n     * @notice Manually set the price.\n     * @dev Can only be called by the admin role.\n     * @param _price The new price.\n     */\n    function setPrice(uint256 _price) external {\n        require(hasRole(DEFAULT_ADMIN_ROLE, msg.sender), \"caller is not the admin\");\n        currentPrice = _price;\n\n        //enforce minimum price\n        if (currentPrice < minimumPrice) {\n            currentPrice = minimumPrice;\n        }\n\n        postageStamp.setPrice(currentPrice);\n        emit PriceUpdate(currentPrice);\n    }\n\n    /**\n     * @notice Pause the contract.\n     * @dev Can only be called by the admin role.\n     */\n    function pause() external {\n        require(hasRole(DEFAULT_ADMIN_ROLE, msg.sender), \"caller is not the admin\");\n        isPaused = true;\n    }\n\n    /**\n     * @notice Unpause the contract.\n     * @dev Can only be called by the admin role.\n     */\n    function unPause() external {\n        require(hasRole(DEFAULT_ADMIN_ROLE, msg.sender), \"caller is not the admin\");\n        isPaused = false;\n    }\n\n    /**\n     * @notice Automatically adjusts the price, called from the Redistribution contract\n     * @dev The ideal redundancy in Swarm is 4 nodes per neighbourhood. Each round, the\n     * Redistribution contract reports the current amount of nodes in the neighbourhood\n     * who have commited and revealed truthy reserve commitment hashes, this is called\n     * the redundancy signal. The target redundancy is 4, so, if the redundancy signal is 4,\n     * no action is taken. If the redundancy signal is greater than 4, i.e. there is extra\n     * redundancy, a price decrease is applied in order to reduce the incentive to run a node.\n     * If the redundancy signal is less than 4, a price increase is applied in order to\n     * increase the incentive to run a node. If the redundancy signal is more than 8, we\n     * apply the max price decrease as if there were just four extra nodes.\n     *\n     * Can only be called by the price updater role, this should be set to be the deployed\n     * Redistribution contract's address. Rounds down to return an integer.\n     */\n    function adjustPrice(uint256 redundancy) external {\n        if (isPaused == false) {\n            require(hasRole(PRICE_UPDATER_ROLE, msg.sender), \"caller is not a price updater\");\n\n            uint256 multiplier = minimumPrice;\n            uint256 usedRedundancy = redundancy;\n\n            // redundancy may not be zero\n            require(redundancy > 0, \"unexpected zero\");\n\n            // enforce maximum considered extra redundancy\n            uint16 maxConsideredRedundancy = targetRedundancy + maxConsideredExtraRedundancy;\n            if (redundancy > maxConsideredRedundancy) {\n                usedRedundancy = maxConsideredRedundancy;\n            }\n\n            // use the increaseRate array of constants to determine\n            // the rate at which the price will modulate - if usedRedundancy\n            // is the target value 4 there is no change, > 4 causes an increase\n            // and < 4 a decrease.\n            uint256 ir = increaseRate[usedRedundancy];\n\n            // the multiplier is used to ensure whole number\n            currentPrice = (ir * currentPrice) / multiplier;\n\n            //enforce minimum price\n            if (currentPrice < minimumPrice) {\n                currentPrice = minimumPrice;\n            }\n\n            postageStamp.setPrice(currentPrice);\n            emit PriceUpdate(currentPrice);\n        }\n    }\n}\n\n",
  "sourcePath": "/home/daniel/Sync/Master/MasterThesisSSC/SwarmStorageContractBank/contracts/PriceOracle.sol",
  "compiler": {
    "name": "solc",
    "version": "0.8.21+commit.d9974bed.Emscripten.clang"
  },
  "schemaVersion": "3.4.16",
  "updatedAt": "2024-03-07T13:22:52.032Z",
  "devdoc": {
    "author": "The Swarm Authors.",
    "details": "The price oracle contract emits a price feed using events.",
    "events": {
      "PriceUpdate(uint256)": {
        "details": "Emitted on every price update."
      },
      "RoleAdminChanged(bytes32,bytes32,bytes32)": {
        "details": "Emitted when `newAdminRole` is set as ``role``'s admin role, replacing `previousAdminRole` `DEFAULT_ADMIN_ROLE` is the starting admin for all roles, despite {RoleAdminChanged} not being emitted signaling this. _Available since v3.1._"
      },
      "RoleGranted(bytes32,address,address)": {
        "details": "Emitted when `account` is granted `role`. `sender` is the account that originated the contract call, an admin role bearer except when using {_setupRole}."
      },
      "RoleRevoked(bytes32,address,address)": {
        "details": "Emitted when `account` is revoked `role`. `sender` is the account that originated the contract call:   - if using `revokeRole`, it is the admin role bearer   - if using `renounceRole`, it is the role bearer (i.e. `account`)"
      }
    },
    "kind": "dev",
    "methods": {
      "adjustPrice(uint256)": {
        "details": "The ideal redundancy in Swarm is 4 nodes per neighbourhood. Each round, the Redistribution contract reports the current amount of nodes in the neighbourhood who have commited and revealed truthy reserve commitment hashes, this is called the redundancy signal. The target redundancy is 4, so, if the redundancy signal is 4, no action is taken. If the redundancy signal is greater than 4, i.e. there is extra redundancy, a price decrease is applied in order to reduce the incentive to run a node. If the redundancy signal is less than 4, a price increase is applied in order to increase the incentive to run a node. If the redundancy signal is more than 8, we apply the max price decrease as if there were just four extra nodes. Can only be called by the price updater role, this should be set to be the deployed Redistribution contract's address. Rounds down to return an integer."
      },
      "getRoleAdmin(bytes32)": {
        "details": "Returns the admin role that controls `role`. See {grantRole} and {revokeRole}. To change a role's admin, use {_setRoleAdmin}."
      },
      "grantRole(bytes32,address)": {
        "details": "Grants `role` to `account`. If `account` had not been already granted `role`, emits a {RoleGranted} event. Requirements: - the caller must have ``role``'s admin role."
      },
      "hasRole(bytes32,address)": {
        "details": "Returns `true` if `account` has been granted `role`."
      },
      "pause()": {
        "details": "Can only be called by the admin role."
      },
      "renounceRole(bytes32,address)": {
        "details": "Revokes `role` from the calling account. Roles are often managed via {grantRole} and {revokeRole}: this function's purpose is to provide a mechanism for accounts to lose their privileges if they are compromised (such as when a trusted device is misplaced). If the calling account had been granted `role`, emits a {RoleRevoked} event. Requirements: - the caller must be `account`."
      },
      "revokeRole(bytes32,address)": {
        "details": "Revokes `role` from `account`. If `account` had been granted `role`, emits a {RoleRevoked} event. Requirements: - the caller must have ``role``'s admin role."
      },
      "setPrice(uint256)": {
        "details": "Can only be called by the admin role.",
        "params": {
          "_price": "The new price."
        }
      },
      "supportsInterface(bytes4)": {
        "details": "See {IERC165-supportsInterface}."
      },
      "unPause()": {
        "details": "Can only be called by the admin role."
      }
    },
    "title": "PriceOracle contract.",
    "version": 1
  },
  "userdoc": {
    "kind": "user",
    "methods": {
      "adjustPrice(uint256)": {
        "notice": "Automatically adjusts the price, called from the Redistribution contract"
      },
      "pause()": {
        "notice": "Pause the contract."
      },
      "setPrice(uint256)": {
        "notice": "Manually set the price."
      },
      "unPause()": {
        "notice": "Unpause the contract."
      }
    },
    "version": 1
  }
}