{
  "contractName": "StakeRegistry",
  "abi": [
    {
      "inputs": [
        {
          "internalType": "address",
          "name": "_bzzToken",
          "type": "address"
        },
        {
          "internalType": "uint64",
          "name": "_NetworkId",
          "type": "uint64"
        }
      ],
      "stateMutability": "nonpayable",
      "type": "constructor"
    },
    {
      "anonymous": false,
      "inputs": [
        {
          "indexed": false,
          "internalType": "address",
          "name": "account",
          "type": "address"
        }
      ],
      "name": "Paused",
      "type": "event"
    },
    {
      "anonymous": false,
      "inputs": [
        {
          "indexed": true,
          "internalType": "bytes32",
          "name": "role",
          "type": "bytes32"
        },
        {
          "indexed": true,
          "internalType": "bytes32",
          "name": "previousAdminRole",
          "type": "bytes32"
        },
        {
          "indexed": true,
          "internalType": "bytes32",
          "name": "newAdminRole",
          "type": "bytes32"
        }
      ],
      "name": "RoleAdminChanged",
      "type": "event"
    },
    {
      "anonymous": false,
      "inputs": [
        {
          "indexed": true,
          "internalType": "bytes32",
          "name": "role",
          "type": "bytes32"
        },
        {
          "indexed": true,
          "internalType": "address",
          "name": "account",
          "type": "address"
        },
        {
          "indexed": true,
          "internalType": "address",
          "name": "sender",
          "type": "address"
        }
      ],
      "name": "RoleGranted",
      "type": "event"
    },
    {
      "anonymous": false,
      "inputs": [
        {
          "indexed": true,
          "internalType": "bytes32",
          "name": "role",
          "type": "bytes32"
        },
        {
          "indexed": true,
          "internalType": "address",
          "name": "account",
          "type": "address"
        },
        {
          "indexed": true,
          "internalType": "address",
          "name": "sender",
          "type": "address"
        }
      ],
      "name": "RoleRevoked",
      "type": "event"
    },
    {
      "anonymous": false,
      "inputs": [
        {
          "indexed": false,
          "internalType": "bytes32",
          "name": "slashed",
          "type": "bytes32"
        },
        {
          "indexed": false,
          "internalType": "uint256",
          "name": "time",
          "type": "uint256"
        }
      ],
      "name": "StakeFrozen",
      "type": "event"
    },
    {
      "anonymous": false,
      "inputs": [
        {
          "indexed": false,
          "internalType": "bytes32",
          "name": "slashed",
          "type": "bytes32"
        },
        {
          "indexed": false,
          "internalType": "uint256",
          "name": "amount",
          "type": "uint256"
        }
      ],
      "name": "StakeSlashed",
      "type": "event"
    },
    {
      "anonymous": false,
      "inputs": [
        {
          "indexed": true,
          "internalType": "bytes32",
          "name": "overlay",
          "type": "bytes32"
        },
        {
          "indexed": false,
          "internalType": "uint256",
          "name": "stakeAmount",
          "type": "uint256"
        },
        {
          "indexed": false,
          "internalType": "address",
          "name": "owner",
          "type": "address"
        },
        {
          "indexed": false,
          "internalType": "uint256",
          "name": "lastUpdatedBlock",
          "type": "uint256"
        }
      ],
      "name": "StakeUpdated",
      "type": "event"
    },
    {
      "anonymous": false,
      "inputs": [
        {
          "indexed": false,
          "internalType": "address",
          "name": "account",
          "type": "address"
        }
      ],
      "name": "Unpaused",
      "type": "event"
    },
    {
      "inputs": [],
      "name": "DEFAULT_ADMIN_ROLE",
      "outputs": [
        {
          "internalType": "bytes32",
          "name": "",
          "type": "bytes32"
        }
      ],
      "stateMutability": "view",
      "type": "function"
    },
    {
      "inputs": [],
      "name": "PAUSER_ROLE",
      "outputs": [
        {
          "internalType": "bytes32",
          "name": "",
          "type": "bytes32"
        }
      ],
      "stateMutability": "view",
      "type": "function"
    },
    {
      "inputs": [],
      "name": "REDISTRIBUTOR_ROLE",
      "outputs": [
        {
          "internalType": "bytes32",
          "name": "",
          "type": "bytes32"
        }
      ],
      "stateMutability": "view",
      "type": "function"
    },
    {
      "inputs": [],
      "name": "bzzToken",
      "outputs": [
        {
          "internalType": "address",
          "name": "",
          "type": "address"
        }
      ],
      "stateMutability": "view",
      "type": "function"
    },
    {
      "inputs": [
        {
          "internalType": "bytes32",
          "name": "role",
          "type": "bytes32"
        }
      ],
      "name": "getRoleAdmin",
      "outputs": [
        {
          "internalType": "bytes32",
          "name": "",
          "type": "bytes32"
        }
      ],
      "stateMutability": "view",
      "type": "function"
    },
    {
      "inputs": [
        {
          "internalType": "bytes32",
          "name": "role",
          "type": "bytes32"
        },
        {
          "internalType": "address",
          "name": "account",
          "type": "address"
        }
      ],
      "name": "grantRole",
      "outputs": [],
      "stateMutability": "nonpayable",
      "type": "function"
    },
    {
      "inputs": [
        {
          "internalType": "bytes32",
          "name": "role",
          "type": "bytes32"
        },
        {
          "internalType": "address",
          "name": "account",
          "type": "address"
        }
      ],
      "name": "hasRole",
      "outputs": [
        {
          "internalType": "bool",
          "name": "",
          "type": "bool"
        }
      ],
      "stateMutability": "view",
      "type": "function"
    },
    {
      "inputs": [],
      "name": "paused",
      "outputs": [
        {
          "internalType": "bool",
          "name": "",
          "type": "bool"
        }
      ],
      "stateMutability": "view",
      "type": "function"
    },
    {
      "inputs": [
        {
          "internalType": "bytes32",
          "name": "role",
          "type": "bytes32"
        },
        {
          "internalType": "address",
          "name": "account",
          "type": "address"
        }
      ],
      "name": "renounceRole",
      "outputs": [],
      "stateMutability": "nonpayable",
      "type": "function"
    },
    {
      "inputs": [
        {
          "internalType": "bytes32",
          "name": "role",
          "type": "bytes32"
        },
        {
          "internalType": "address",
          "name": "account",
          "type": "address"
        }
      ],
      "name": "revokeRole",
      "outputs": [],
      "stateMutability": "nonpayable",
      "type": "function"
    },
    {
      "inputs": [
        {
          "internalType": "bytes32",
          "name": "",
          "type": "bytes32"
        }
      ],
      "name": "stakes",
      "outputs": [
        {
          "internalType": "bytes32",
          "name": "overlay",
          "type": "bytes32"
        },
        {
          "internalType": "uint256",
          "name": "stakeAmount",
          "type": "uint256"
        },
        {
          "internalType": "address",
          "name": "owner",
          "type": "address"
        },
        {
          "internalType": "uint256",
          "name": "lastUpdatedBlockNumber",
          "type": "uint256"
        },
        {
          "internalType": "bool",
          "name": "isValue",
          "type": "bool"
        }
      ],
      "stateMutability": "view",
      "type": "function"
    },
    {
      "inputs": [
        {
          "internalType": "bytes4",
          "name": "interfaceId",
          "type": "bytes4"
        }
      ],
      "name": "supportsInterface",
      "outputs": [
        {
          "internalType": "bool",
          "name": "",
          "type": "bool"
        }
      ],
      "stateMutability": "view",
      "type": "function"
    },
    {
      "inputs": [
        {
          "internalType": "bytes32",
          "name": "overlay",
          "type": "bytes32"
        }
      ],
      "name": "stakeOfOverlay",
      "outputs": [
        {
          "internalType": "uint256",
          "name": "",
          "type": "uint256"
        }
      ],
      "stateMutability": "view",
      "type": "function"
    },
    {
      "inputs": [
        {
          "internalType": "bytes32",
          "name": "overlay",
          "type": "bytes32"
        }
      ],
      "name": "usableStakeOfOverlay",
      "outputs": [
        {
          "internalType": "uint256",
          "name": "",
          "type": "uint256"
        }
      ],
      "stateMutability": "view",
      "type": "function"
    },
    {
      "inputs": [
        {
          "internalType": "bytes32",
          "name": "overlay",
          "type": "bytes32"
        }
      ],
      "name": "lastUpdatedBlockNumberOfOverlay",
      "outputs": [
        {
          "internalType": "uint256",
          "name": "",
          "type": "uint256"
        }
      ],
      "stateMutability": "view",
      "type": "function"
    },
    {
      "inputs": [
        {
          "internalType": "bytes32",
          "name": "overlay",
          "type": "bytes32"
        }
      ],
      "name": "ownerOfOverlay",
      "outputs": [
        {
          "internalType": "address",
          "name": "",
          "type": "address"
        }
      ],
      "stateMutability": "view",
      "type": "function"
    },
    {
      "inputs": [
        {
          "internalType": "address",
          "name": "_owner",
          "type": "address"
        },
        {
          "internalType": "bytes32",
          "name": "nonce",
          "type": "bytes32"
        },
        {
          "internalType": "uint256",
          "name": "amount",
          "type": "uint256"
        }
      ],
      "name": "depositStake",
      "outputs": [],
      "stateMutability": "nonpayable",
      "type": "function"
    },
    {
      "inputs": [
        {
          "internalType": "bytes32",
          "name": "overlay",
          "type": "bytes32"
        },
        {
          "internalType": "uint256",
          "name": "amount",
          "type": "uint256"
        }
      ],
      "name": "withdrawFromStake",
      "outputs": [],
      "stateMutability": "nonpayable",
      "type": "function"
    },
    {
      "inputs": [
        {
          "internalType": "bytes32",
          "name": "overlay",
          "type": "bytes32"
        },
        {
          "internalType": "uint256",
          "name": "time",
          "type": "uint256"
        }
      ],
      "name": "freezeDeposit",
      "outputs": [],
      "stateMutability": "nonpayable",
      "type": "function"
    },
    {
      "inputs": [
        {
          "internalType": "bytes32",
          "name": "overlay",
          "type": "bytes32"
        },
        {
          "internalType": "uint256",
          "name": "amount",
          "type": "uint256"
        }
      ],
      "name": "slashDeposit",
      "outputs": [],
      "stateMutability": "nonpayable",
      "type": "function"
    },
    {
      "inputs": [],
      "name": "pause",
      "outputs": [],
      "stateMutability": "nonpayable",
      "type": "function"
    },
    {
      "inputs": [],
      "name": "unPause",
      "outputs": [],
      "stateMutability": "nonpayable",
      "type": "function"
    },
    {
      "inputs": [
        {
          "internalType": "address",
          "name": "_owner",
          "type": "address"
        },
        {
          "internalType": "bytes32",
          "name": "overlay",
          "type": "bytes32"
        },
        {
          "internalType": "uint256",
          "name": "amount",
          "type": "uint256"
        }
      ],
      "name": "depositStakeForSimulation",
      "outputs": [],
      "stateMutability": "nonpayable",
      "type": "function"
    }
  ],
  "bytecode": "0x608060405234801562000010575f80fd5b50604051620029fd380380620029fd833981810160405281019062000036919062000318565b5f60015f6101000a81548160ff0219169083151502179055508060035f6101000a81548167ffffffffffffffff021916908367ffffffffffffffff16021790555081600360086101000a81548173ffffffffffffffffffffffffffffffffffffffff021916908373ffffffffffffffffffffffffffffffffffffffff160217905550620000cc5f801b336200010660201b60201c565b620000fe7f65d7a28e3265b37a6474929f336521b332c1681b933f6cb9f3376673440d862a336200010660201b60201c565b50506200035d565b6200011882826200011c60201b60201c565b5050565b6200012e82826200020760201b60201c565b620002035760015f808481526020019081526020015f205f015f8373ffffffffffffffffffffffffffffffffffffffff1673ffffffffffffffffffffffffffffffffffffffff1681526020019081526020015f205f6101000a81548160ff021916908315150217905550620001a86200026a60201b60201c565b73ffffffffffffffffffffffffffffffffffffffff168173ffffffffffffffffffffffffffffffffffffffff16837f2f8788117e7eff1d82e926ec794901d17c78024a50270940304540a733656f0d60405160405180910390a45b5050565b5f805f8481526020019081526020015f205f015f8373ffffffffffffffffffffffffffffffffffffffff1673ffffffffffffffffffffffffffffffffffffffff1681526020019081526020015f205f9054906101000a900460ff16905092915050565b5f33905090565b5f80fd5b5f73ffffffffffffffffffffffffffffffffffffffff82169050919050565b5f620002a08262000275565b9050919050565b620002b28162000294565b8114620002bd575f80fd5b50565b5f81519050620002d081620002a7565b92915050565b5f67ffffffffffffffff82169050919050565b620002f481620002d6565b8114620002ff575f80fd5b50565b5f815190506200031281620002e9565b92915050565b5f806040838503121562000331576200033062000271565b5b5f6200034085828601620002c0565b9250506020620003538582860162000302565b9150509250929050565b612692806200036b5f395ff3fe608060405234801561000f575f80fd5b506004361061014b575f3560e01c80638fee6407116100c1578063abe385431161007a578063abe385431461039d578063d547741f146103cd578063e34c4527146103e9578063e63ab1e914610405578063ede4130214610423578063f7b188a5146104535761014b565b80638fee6407146102b157806391d14854146102e5578063a0d22b2114610315578063a217fddf14610345578063a6471a1d14610363578063a6ce31d4146103815761014b565b8063420fc4db11610113578063420fc4db1461020357806348962b931461022157806349492cb6146102515780635c975abb1461026d578063837fd16a1461028b5780638456cb59146102a75761014b565b806301ffc9a71461014f5780631ed2cd401461017f578063248a9ca31461019b5780632f2ff15d146101cb57806336568abe146101e7575b5f80fd5b61016960048036038101906101649190611a78565b61045d565b6040516101769190611abd565b60405180910390f35b61019960048036038101906101949190611b96565b6104d6565b005b6101b560048036038101906101b09190611be6565b610862565b6040516101c29190611c20565b60405180910390f35b6101e560048036038101906101e09190611c39565b61087e565b005b61020160048036038101906101fc9190611c39565b6108e4565b005b61020b610967565b6040516102189190611c86565b60405180910390f35b61023b60048036038101906102369190611be6565b61098d565b6040516102489190611cae565b60405180910390f35b61026b60048036038101906102669190611b96565b6109aa565b005b610275610cea565b6040516102829190611abd565b60405180910390f35b6102a560048036038101906102a09190611cc7565b610cff565b005b6102af610df0565b005b6102cb60048036038101906102c69190611be6565b610e63565b6040516102dc959493929190611d05565b60405180910390f35b6102ff60048036038101906102fa9190611c39565b610ec0565b60405161030c9190611abd565b60405180910390f35b61032f600480360381019061032a9190611be6565b610f23565b60405161033c9190611c86565b60405180910390f35b61034d610f5f565b60405161035a9190611c20565b60405180910390f35b61036b610f65565b6040516103789190611c20565b60405180910390f35b61039b60048036038101906103969190611cc7565b610f89565b005b6103b760048036038101906103b29190611be6565b61111c565b6040516103c49190611cae565b60405180910390f35b6103e760048036038101906103e29190611c39565b61114d565b005b61040360048036038101906103fe9190611cc7565b6111b3565b005b61040d611556565b60405161041a9190611c20565b60405180910390f35b61043d60048036038101906104389190611be6565b61157a565b60405161044a9190611cae565b60405180910390f35b61045b611597565b005b5f7f7965db0b000000000000000000000000000000000000000000000000000000007bffffffffffffffffffffffffffffffffffffffffffffffffffffffff1916827bffffffffffffffffffffffffffffffffffffffffffffffffffffffff191614806104cf57506104ce8261160a565b5b9050919050565b6104de610cea565b1561051e576040517f08c379a000000000000000000000000000000000000000000000000000000000815260040161051590611db0565b60405180910390fd5b3373ffffffffffffffffffffffffffffffffffffffff168373ffffffffffffffffffffffffffffffffffffffff161461058c576040517f08c379a000000000000000000000000000000000000000000000000000000000815260040161058390611e18565b60405180910390fd5b5f836105ac60035f9054906101000a900467ffffffffffffffff16611673565b846040516020016105bf93929190611ee2565b6040516020818303038152906040528051906020012090505f82905060025f8381526020019081526020015f206004015f9054906101000a900460ff161561066c5761060a82611704565b610649576040517f08c379a000000000000000000000000000000000000000000000000000000000815260040161064090611f68565b60405180910390fd5b60025f8381526020019081526020015f2060010154836106699190611fb3565b90505b600360089054906101000a900473ffffffffffffffffffffffffffffffffffffffff1673ffffffffffffffffffffffffffffffffffffffff166323b872dd3330866040518463ffffffff1660e01b81526004016106cb93929190611fe6565b6020604051808303815f875af11580156106e7573d5f803e3d5ffd5b505050506040513d601f19601f8201168201806040525081019061070b9190612045565b61074a576040517f08c379a0000000000000000000000000000000000000000000000000000000008152600401610741906120ba565b60405180910390fd5b817f61e979698346a2aa868a3a9f08d30c846174841dc9b074bbf2a82d20554bc68282874360405161077e939291906120d8565b60405180910390a26040518060a001604052808381526020018281526020018673ffffffffffffffffffffffffffffffffffffffff1681526020014381526020016001151581525060025f8481526020019081526020015f205f820151815f0155602082015181600101556040820151816002015f6101000a81548173ffffffffffffffffffffffffffffffffffffffff021916908373ffffffffffffffffffffffffffffffffffffffff160217905550606082015181600301556080820151816004015f6101000a81548160ff0219169083151502179055509050505050505050565b5f805f8381526020019081526020015f20600101549050919050565b61089761088a83610862565b610892611723565b610ec0565b6108d6576040517f08c379a00000000000000000000000000000000000000000000000000000000081526004016108cd9061217d565b60405180910390fd5b6108e0828261172a565b5050565b6108ec611723565b73ffffffffffffffffffffffffffffffffffffffff168173ffffffffffffffffffffffffffffffffffffffff1614610959576040517f08c379a00000000000000000000000000000000000000000000000000000000081526004016109509061220b565b60405180910390fd5b6109638282611804565b5050565b600360089054906101000a900473ffffffffffffffffffffffffffffffffffffffff1681565b5f60025f8381526020019081526020015f20600101549050919050565b6109b2610cea565b156109f2576040517f08c379a00000000000000000000000000000000000000000000000000000000081526004016109e990611db0565b60405180910390fd5b3373ffffffffffffffffffffffffffffffffffffffff168373ffffffffffffffffffffffffffffffffffffffff1614610a60576040517f08c379a0000000000000000000000000000000000000000000000000000000008152600401610a5790611e18565b60405180910390fd5b5f81905060025f8481526020019081526020015f206004015f9054906101000a900460ff1615610af557610a9383611704565b610ad2576040517f08c379a0000000000000000000000000000000000000000000000000000000008152600401610ac990611f68565b60405180910390fd5b60025f8481526020019081526020015f206001015482610af29190611fb3565b90505b600360089054906101000a900473ffffffffffffffffffffffffffffffffffffffff1673ffffffffffffffffffffffffffffffffffffffff166323b872dd3330856040518463ffffffff1660e01b8152600401610b5493929190611fe6565b6020604051808303815f875af1158015610b70573d5f803e3d5ffd5b505050506040513d601f19601f82011682018060405250810190610b949190612045565b610bd3576040517f08c379a0000000000000000000000000000000000000000000000000000000008152600401610bca906120ba565b60405180910390fd5b827f61e979698346a2aa868a3a9f08d30c846174841dc9b074bbf2a82d20554bc682828643604051610c07939291906120d8565b60405180910390a26040518060a001604052808481526020018281526020018573ffffffffffffffffffffffffffffffffffffffff1681526020014381526020016001151581525060025f8581526020019081526020015f205f820151815f0155602082015181600101556040820151816002015f6101000a81548173ffffffffffffffffffffffffffffffffffffffff021916908373ffffffffffffffffffffffffffffffffffffffff160217905550606082015181600301556080820151816004015f6101000a81548160ff02191690831515021790555090505050505050565b5f60015f9054906101000a900460ff16905090565b610d297f3e35b14a9f4fef84b59f9bdcd3044fc28783144b7e42bfb2cd075e6a02cb082833610ec0565b610d68576040517f08c379a0000000000000000000000000000000000000000000000000000000008152600401610d5f90612299565b60405180910390fd5b60025f8381526020019081526020015f206004015f9054906101000a900460ff1615610dec577f340439a63c1ee2404f5b7010cab559b4dcbfc28b8baab9acade354fd688ae2b98282604051610dbf9291906122b7565b60405180910390a18043610dd39190611fb3565b60025f8481526020019081526020015f20600301819055505b5050565b610e1a7f65d7a28e3265b37a6474929f336521b332c1681b933f6cb9f3376673440d862a33610ec0565b610e59576040517f08c379a0000000000000000000000000000000000000000000000000000000008152600401610e5090612328565b60405180910390fd5b610e616118de565b565b6002602052805f5260405f205f91509050805f015490806001015490806002015f9054906101000a900473ffffffffffffffffffffffffffffffffffffffff1690806003015490806004015f9054906101000a900460ff16905085565b5f805f8481526020019081526020015f205f015f8373ffffffffffffffffffffffffffffffffffffffff1673ffffffffffffffffffffffffffffffffffffffff1681526020019081526020015f205f9054906101000a900460ff16905092915050565b5f60025f8381526020019081526020015f206002015f9054906101000a900473ffffffffffffffffffffffffffffffffffffffff169050919050565b5f801b81565b7f3e35b14a9f4fef84b59f9bdcd3044fc28783144b7e42bfb2cd075e6a02cb082881565b610fb37f3e35b14a9f4fef84b59f9bdcd3044fc28783144b7e42bfb2cd075e6a02cb082833610ec0565b610ff2576040517f08c379a0000000000000000000000000000000000000000000000000000000008152600401610fe9906123b6565b60405180910390fd5b7f0956b50d4d586f6b9c90800d4e713bd2b866e044decd047e6d70ea20314ab30882826040516110239291906122b7565b60405180910390a160025f8381526020019081526020015f206004015f9054906101000a900460ff1615611118578060025f8481526020019081526020015f206001015411156110b5578060025f8481526020019081526020015f206001015f82825461109091906123d4565b925050819055504360025f8481526020019081526020015f2060030181905550611117565b60025f8381526020019081526020015f205f8082015f9055600182015f9055600282015f6101000a81549073ffffffffffffffffffffffffffffffffffffffff0219169055600382015f9055600482015f6101000a81549060ff021916905550505b5b5050565b5f61112682611704565b611130575f611146565b60025f8381526020019081526020015f20600101545b9050919050565b61116661115983610862565b611161611723565b610ec0565b6111a5576040517f08c379a000000000000000000000000000000000000000000000000000000000815260040161119c90612477565b60405180910390fd5b6111af8282611804565b5050565b6111bb610cea565b6111fa576040517f08c379a00000000000000000000000000000000000000000000000000000000081526004016111f1906124df565b60405180910390fd5b3373ffffffffffffffffffffffffffffffffffffffff1660025f8481526020019081526020015f206002015f9054906101000a900473ffffffffffffffffffffffffffffffffffffffff1673ffffffffffffffffffffffffffffffffffffffff161461129b576040517f08c379a000000000000000000000000000000000000000000000000000000000815260040161129290612547565b60405180910390fd5b5f81905060025f8481526020019081526020015f20600101548211156112d35760025f8481526020019081526020015f206001015490505b60025f8481526020019081526020015f2060010154811015611413578060025f8581526020019081526020015f206001015f82825461131291906123d4565b925050819055504360025f8581526020019081526020015f2060030181905550600360089054906101000a900473ffffffffffffffffffffffffffffffffffffffff1673ffffffffffffffffffffffffffffffffffffffff1663a9059cbb33836040518363ffffffff1660e01b815260040161138f929190612565565b6020604051808303815f875af11580156113ab573d5f803e3d5ffd5b505050506040513d601f19601f820116820180604052508101906113cf9190612045565b61140e576040517f08c379a0000000000000000000000000000000000000000000000000000000008152600401611405906125d6565b60405180910390fd5b611551565b60025f8481526020019081526020015f205f8082015f9055600182015f9055600282015f6101000a81549073ffffffffffffffffffffffffffffffffffffffff0219169055600382015f9055600482015f6101000a81549060ff02191690555050600360089054906101000a900473ffffffffffffffffffffffffffffffffffffffff1673ffffffffffffffffffffffffffffffffffffffff1663a9059cbb33836040518363ffffffff1660e01b81526004016114d1929190612565565b6020604051808303815f875af11580156114ed573d5f803e3d5ffd5b505050506040513d601f19601f820116820180604052508101906115119190612045565b611550576040517f08c379a0000000000000000000000000000000000000000000000000000000008152600401611547906125d6565b60405180910390fd5b5b505050565b7f65d7a28e3265b37a6474929f336521b332c1681b933f6cb9f3376673440d862a81565b5f60025f8381526020019081526020015f20600301549050919050565b6115c17f65d7a28e3265b37a6474929f336521b332c1681b933f6cb9f3376673440d862a33610ec0565b611600576040517f08c379a00000000000000000000000000000000000000000000000000000000081526004016115f79061263e565b60405180910390fd5b61160861197f565b565b5f7f01ffc9a7000000000000000000000000000000000000000000000000000000007bffffffffffffffffffffffffffffffffffffffffffffffffffffffff1916827bffffffffffffffffffffffffffffffffffffffffffffffffffffffff1916149050919050565b5f819050600866ff00ff00ff00ff821667ffffffffffffffff16901b600867ff00ff00ff00ff00831667ffffffffffffffff16901c179050601065ffff0000ffff821667ffffffffffffffff16901b601067ffff0000ffff0000831667ffffffffffffffff16901c17905060208167ffffffffffffffff16901b60208267ffffffffffffffff16901c179050919050565b5f4360025f8481526020019081526020015f2060030154109050919050565b5f33905090565b6117348282610ec0565b6118005760015f808481526020019081526020015f205f015f8373ffffffffffffffffffffffffffffffffffffffff1673ffffffffffffffffffffffffffffffffffffffff1681526020019081526020015f205f6101000a81548160ff0219169083151502179055506117a5611723565b73ffffffffffffffffffffffffffffffffffffffff168173ffffffffffffffffffffffffffffffffffffffff16837f2f8788117e7eff1d82e926ec794901d17c78024a50270940304540a733656f0d60405160405180910390a45b5050565b61180e8282610ec0565b156118da575f805f8481526020019081526020015f205f015f8373ffffffffffffffffffffffffffffffffffffffff1673ffffffffffffffffffffffffffffffffffffffff1681526020019081526020015f205f6101000a81548160ff02191690831515021790555061187f611723565b73ffffffffffffffffffffffffffffffffffffffff168173ffffffffffffffffffffffffffffffffffffffff16837ff6391f5c32d9c69d2a47ea670b442974b53935d1edc7fd64eb21e047a839171b60405160405180910390a45b5050565b6118e6610cea565b15611926576040517f08c379a000000000000000000000000000000000000000000000000000000000815260040161191d90611db0565b60405180910390fd5b6001805f6101000a81548160ff0219169083151502179055507f62e78cea01bee320cd4e420270b5ea74000d11b0c9f74754ebdbfc544b05a258611968611723565b6040516119759190611c86565b60405180910390a1565b611987610cea565b6119c6576040517f08c379a00000000000000000000000000000000000000000000000000000000081526004016119bd906124df565b60405180910390fd5b5f60015f6101000a81548160ff0219169083151502179055507f5db9ee0a495bf2e6ff9c91a7834c1ba4fdd244a5e8aa4e537bd38aeae4b073aa611a08611723565b604051611a159190611c86565b60405180910390a1565b5f80fd5b5f7fffffffff0000000000000000000000000000000000000000000000000000000082169050919050565b611a5781611a23565b8114611a61575f80fd5b50565b5f81359050611a7281611a4e565b92915050565b5f60208284031215611a8d57611a8c611a1f565b5b5f611a9a84828501611a64565b91505092915050565b5f8115159050919050565b611ab781611aa3565b82525050565b5f602082019050611ad05f830184611aae565b92915050565b5f73ffffffffffffffffffffffffffffffffffffffff82169050919050565b5f611aff82611ad6565b9050919050565b611b0f81611af5565b8114611b19575f80fd5b50565b5f81359050611b2a81611b06565b92915050565b5f819050919050565b611b4281611b30565b8114611b4c575f80fd5b50565b5f81359050611b5d81611b39565b92915050565b5f819050919050565b611b7581611b63565b8114611b7f575f80fd5b50565b5f81359050611b9081611b6c565b92915050565b5f805f60608486031215611bad57611bac611a1f565b5b5f611bba86828701611b1c565b9350506020611bcb86828701611b4f565b9250506040611bdc86828701611b82565b9150509250925092565b5f60208284031215611bfb57611bfa611a1f565b5b5f611c0884828501611b4f565b91505092915050565b611c1a81611b30565b82525050565b5f602082019050611c335f830184611c11565b92915050565b5f8060408385031215611c4f57611c4e611a1f565b5b5f611c5c85828601611b4f565b9250506020611c6d85828601611b1c565b9150509250929050565b611c8081611af5565b82525050565b5f602082019050611c995f830184611c77565b92915050565b611ca881611b63565b82525050565b5f602082019050611cc15f830184611c9f565b92915050565b5f8060408385031215611cdd57611cdc611a1f565b5b5f611cea85828601611b4f565b9250506020611cfb85828601611b82565b9150509250929050565b5f60a082019050611d185f830188611c11565b611d256020830187611c9f565b611d326040830186611c77565b611d3f6060830185611c9f565b611d4c6080830184611aae565b9695505050505050565b5f82825260208201905092915050565b7f5061757361626c653a20706175736564000000000000000000000000000000005f82015250565b5f611d9a601083611d56565b9150611da582611d66565b602082019050919050565b5f6020820190508181035f830152611dc781611d8e565b9050919050565b7f6f6e6c79206f776e65722063616e20757064617465207374616b6500000000005f82015250565b5f611e02601b83611d56565b9150611e0d82611dce565b602082019050919050565b5f6020820190508181035f830152611e2f81611df6565b9050919050565b5f8160601b9050919050565b5f611e4c82611e36565b9050919050565b5f611e5d82611e42565b9050919050565b611e75611e7082611af5565b611e53565b82525050565b5f67ffffffffffffffff82169050919050565b5f8160c01b9050919050565b5f611ea482611e8e565b9050919050565b611ebc611eb782611e7b565b611e9a565b82525050565b5f819050919050565b611edc611ed782611b30565b611ec2565b82525050565b5f611eed8286611e64565b601482019150611efd8285611eab565b600882019150611f0d8284611ecb565b602082019150819050949350505050565b7f6f7665726c61792063757272656e746c792066726f7a656e00000000000000005f82015250565b5f611f52601883611d56565b9150611f5d82611f1e565b602082019050919050565b5f6020820190508181035f830152611f7f81611f46565b9050919050565b7f4e487b71000000000000000000000000000000000000000000000000000000005f52601160045260245ffd5b5f611fbd82611b63565b9150611fc883611b63565b9250828201905080821115611fe057611fdf611f86565b5b92915050565b5f606082019050611ff95f830186611c77565b6120066020830185611c77565b6120136040830184611c9f565b949350505050565b61202481611aa3565b811461202e575f80fd5b50565b5f8151905061203f8161201b565b92915050565b5f6020828403121561205a57612059611a1f565b5b5f61206784828501612031565b91505092915050565b7f6661696c6564207472616e7366657200000000000000000000000000000000005f82015250565b5f6120a4600f83611d56565b91506120af82612070565b602082019050919050565b5f6020820190508181035f8301526120d181612098565b9050919050565b5f6060820190506120eb5f830186611c9f565b6120f86020830185611c77565b6121056040830184611c9f565b949350505050565b7f416363657373436f6e74726f6c3a2073656e646572206d75737420626520616e5f8201527f2061646d696e20746f206772616e740000000000000000000000000000000000602082015250565b5f612167602f83611d56565b91506121728261210d565b604082019050919050565b5f6020820190508181035f8301526121948161215b565b9050919050565b7f416363657373436f6e74726f6c3a2063616e206f6e6c792072656e6f756e63655f8201527f20726f6c657320666f722073656c660000000000000000000000000000000000602082015250565b5f6121f5602f83611d56565b91506122008261219b565b604082019050919050565b5f6020820190508181035f830152612222816121e9565b9050919050565b7f6f6e6c792072656469737472696275746f722063616e20667265657a652073745f8201527f616b650000000000000000000000000000000000000000000000000000000000602082015250565b5f612283602383611d56565b915061228e82612229565b604082019050919050565b5f6020820190508181035f8301526122b081612277565b9050919050565b5f6040820190506122ca5f830185611c11565b6122d76020830184611c9f565b9392505050565b7f6f6e6c79207061757365722063616e20706175736500000000000000000000005f82015250565b5f612312601583611d56565b915061231d826122de565b602082019050919050565b5f6020820190508181035f83015261233f81612306565b9050919050565b7f6f6e6c792072656469737472696275746f722063616e20736c617368207374615f8201527f6b65000000000000000000000000000000000000000000000000000000000000602082015250565b5f6123a0602283611d56565b91506123ab82612346565b604082019050919050565b5f6020820190508181035f8301526123cd81612394565b9050919050565b5f6123de82611b63565b91506123e983611b63565b925082820390508181111561240157612400611f86565b5b92915050565b7f416363657373436f6e74726f6c3a2073656e646572206d75737420626520616e5f8201527f2061646d696e20746f207265766f6b6500000000000000000000000000000000602082015250565b5f612461603083611d56565b915061246c82612407565b604082019050919050565b5f6020820190508181035f83015261248e81612455565b9050919050565b7f5061757361626c653a206e6f74207061757365640000000000000000000000005f82015250565b5f6124c9601483611d56565b91506124d482612495565b602082019050919050565b5f6020820190508181035f8301526124f6816124bd565b9050919050565b7f6f6e6c79206f776e65722063616e207769746864726177207374616b650000005f82015250565b5f612531601d83611d56565b915061253c826124fd565b602082019050919050565b5f6020820190508181035f83015261255e81612525565b9050919050565b5f6040820190506125785f830185611c77565b6125856020830184611c9f565b9392505050565b7f6661696c6564207769746864726177616c0000000000000000000000000000005f82015250565b5f6125c0601183611d56565b91506125cb8261258c565b602082019050919050565b5f6020820190508181035f8301526125ed816125b4565b9050919050565b7f6f6e6c79207061757365722063616e20756e70617573650000000000000000005f82015250565b5f612628601783611d56565b9150612633826125f4565b602082019050919050565b5f6020820190508181035f8301526126558161261c565b905091905056fea26469706673582212203f81232c0a93e2bd2761ea9ae504261ac8ddd34ead10a786bdf3a26827f9dc7f64736f6c63430008150033",
  "immutableReferences": {},
  "source": "// SPDX-License-Identifier: BSD-3-Clause\npragma solidity ^0.8.1;\nimport \"./@openzeppelin/contracts/token/ERC20/ERC20.sol\";\nimport \"./@openzeppelin/contracts/access/AccessControl.sol\";\nimport \"./@openzeppelin/contracts/security/Pausable.sol\";\n\n/**\n * @title Staking contract for the Swarm storage incentives\n * @author The Swarm Authors\n * @dev Allows users to stake tokens in order to be eligible for the Redistribution Schelling co-ordination game.\n * Stakes are not withdrawable unless the contract is paused, e.g. in the event of migration to a new staking\n * contract. Stakes are frozen or slashed by the Redistribution contract in response to violations of the\n * protocol.\n */\n\ncontract StakeRegistry is AccessControl, Pausable {\n    /**\n     * @dev Emitted when a stake is created or updated by `owner` of the `overlay` by `stakeamount`, during `lastUpdatedBlock`.\n     */\n    event StakeUpdated(bytes32 indexed overlay, uint256 stakeAmount, address owner, uint256 lastUpdatedBlock);\n\n    /**\n     * @dev Emitted when a stake for overlay `slashed` is slashed by `amount`.\n     */\n    event StakeSlashed(bytes32 slashed, uint256 amount);\n\n    /**\n     * @dev Emitted when a stake for overlay `frozen` for `time` blocks.\n     */\n    event StakeFrozen(bytes32 slashed, uint256 time);\n\n    struct Stake {\n        // Overlay of the node that is being staked\n        bytes32 overlay;\n        // Amount of tokens staked\n        uint256 stakeAmount;\n        // Owner of `overlay`\n        address owner;\n        // Block height the stake was updated\n        uint256 lastUpdatedBlockNumber;\n        // Used to indicate presents in stakes struct\n        bool isValue;\n    }\n\n    // Associate every stake id with overlay data.\n    mapping(bytes32 => Stake) public stakes;\n\n    // Role allowed to pause\n    bytes32 public constant PAUSER_ROLE = keccak256(\"PAUSER_ROLE\");\n    // Role allowed to freeze and slash entries\n    bytes32 public constant REDISTRIBUTOR_ROLE = keccak256(\"REDISTRIBUTOR_ROLE\");\n\n    // Swarm network ID\n    uint64 NetworkId;\n\n    // Address of the staked ERC20 token\n    address public bzzToken;\n\n    /**\n     * @param _bzzToken Address of the staked ERC20 token\n     * @param _NetworkId Swarm network ID\n     */\n    constructor(address _bzzToken, uint64 _NetworkId) {\n        NetworkId = _NetworkId;\n        bzzToken = _bzzToken;\n        _setupRole(DEFAULT_ADMIN_ROLE, msg.sender);\n        _setupRole(PAUSER_ROLE, msg.sender);\n    }\n\n    /**\n     * @dev Checks to see if `overlay` is frozen.\n     * @param overlay Overlay of staked overlay\n     *\n     * Returns a boolean value indicating whether the operation succeeded.\n     */\n    function overlayNotFrozen(bytes32 overlay) internal view returns (bool) {\n        return stakes[overlay].lastUpdatedBlockNumber < block.number;\n    }\n\n    /**\n     * @dev Returns the current `stakeAmount` of `overlay`.\n     * @param overlay Overlay of node\n     */\n    function stakeOfOverlay(bytes32 overlay) public view returns (uint256) {\n        return stakes[overlay].stakeAmount;\n    }\n\n    /**\n     * @dev Returns the current usable `stakeAmount` of `overlay`.\n     * Checks whether the stake is currently frozen.\n     * @param overlay Overlay of node\n     */\n    function usableStakeOfOverlay(bytes32 overlay) public view returns (uint256) {\n        return overlayNotFrozen(overlay) ? stakes[overlay].stakeAmount : 0;\n    }\n\n    /**\n     * @dev Returns the `lastUpdatedBlockNumber` of `overlay`.\n     */\n    function lastUpdatedBlockNumberOfOverlay(bytes32 overlay) public view returns (uint256) {\n        return stakes[overlay].lastUpdatedBlockNumber;\n    }\n\n    /**\n     * @dev Returns the eth address of the owner of `overlay`.\n     * @param overlay Overlay of node\n     */\n    function ownerOfOverlay(bytes32 overlay) public view returns (address) {\n        return stakes[overlay].owner;\n    }\n\n    /**\n     * @dev Please both Endians .\n     * @param input Eth address used for overlay calculation.\n     */\n    function reverse(uint64 input) internal pure returns (uint64 v) {\n        v = input;\n\n        // swap bytes\n        v = ((v & 0xFF00FF00FF00FF00) >> 8) | ((v & 0x00FF00FF00FF00FF) << 8);\n\n        // swap 2-byte long pairs\n        v = ((v & 0xFFFF0000FFFF0000) >> 16) | ((v & 0x0000FFFF0000FFFF) << 16);\n\n        // swap 4-byte long pairs\n        v = (v >> 32) | (v << 32);\n    }\n\n    /**\n     * @notice Create a new stake or update an existing one.\n     * @dev At least `_initialBalancePerChunk*2^depth` number of tokens need to be preapproved for this contract.\n     * @param _owner Eth address used for overlay calculation.\n     * @param nonce Nonce that was used for overlay calculation.\n     * @param amount Deposited amount of ERC20 tokens.\n     */\n    function depositStake(\n        address _owner,\n        bytes32 nonce,\n        uint256 amount\n    ) external whenNotPaused {\n        require(_owner == msg.sender, \"only owner can update stake\");\n\n        bytes32 overlay = keccak256(abi.encodePacked(_owner, reverse(NetworkId), nonce));\n\n        uint256 updatedAmount = amount;\n\n        if (stakes[overlay].isValue) {\n            require(overlayNotFrozen(overlay), \"overlay currently frozen\");\n            updatedAmount = amount + stakes[overlay].stakeAmount;\n        }\n\n        require(ERC20(bzzToken).transferFrom(msg.sender, address(this), amount), \"failed transfer\");\n\n        emit StakeUpdated(overlay, updatedAmount, _owner, block.number);\n\n        stakes[overlay] = Stake({\n            owner: _owner,\n            overlay: overlay,\n            stakeAmount: updatedAmount,\n            lastUpdatedBlockNumber: block.number,\n            isValue: true\n        });\n    }\n\n    /**\n     * @dev Withdraw stake only when the staking contract is paused,\n     * can only be called by the owner specific to the associated `overlay`\n     * @param overlay The overlay to withdraw from\n     * @param amount The amount of ERC20 tokens to be withdrawn\n     */\n    function withdrawFromStake(bytes32 overlay, uint256 amount) external whenPaused {\n        require(stakes[overlay].owner == msg.sender, \"only owner can withdraw stake\");\n        uint256 withDrawLimit = amount;\n        if (amount > stakes[overlay].stakeAmount) {\n            withDrawLimit = stakes[overlay].stakeAmount;\n        }\n\n        if (withDrawLimit < stakes[overlay].stakeAmount) {\n            stakes[overlay].stakeAmount -= withDrawLimit;\n            stakes[overlay].lastUpdatedBlockNumber = block.number;\n            require(ERC20(bzzToken).transfer(msg.sender, withDrawLimit), \"failed withdrawal\");\n        } else {\n            delete stakes[overlay];\n            require(ERC20(bzzToken).transfer(msg.sender, withDrawLimit), \"failed withdrawal\");\n        }\n    }\n\n    /**\n     * @dev Freeze an existing stake, can only be called by the redistributor\n     * @param overlay the overlay selected\n     * @param time penalty length in blocknumbers\n     */\n    function freezeDeposit(bytes32 overlay, uint256 time) external {\n        require(hasRole(REDISTRIBUTOR_ROLE, msg.sender), \"only redistributor can freeze stake\");\n\n        if (stakes[overlay].isValue) {\n            emit StakeFrozen(overlay, time);\n            stakes[overlay].lastUpdatedBlockNumber = block.number + time;\n        }\n    }\n\n    /**\n     * @dev Slash an existing stake, can only be called by the `redistributor`\n     * @param overlay the overlay selected\n     * @param amount the amount to be slashed\n     */\n    function slashDeposit(bytes32 overlay, uint256 amount) external {\n        require(hasRole(REDISTRIBUTOR_ROLE, msg.sender), \"only redistributor can slash stake\");\n        emit StakeSlashed(overlay, amount);\n        if (stakes[overlay].isValue) {\n            if (stakes[overlay].stakeAmount > amount) {\n                stakes[overlay].stakeAmount -= amount;\n                stakes[overlay].lastUpdatedBlockNumber = block.number;\n            } else {\n                delete stakes[overlay];\n            }\n        }\n    }\n\n    /**\n     * @dev Pause the contract. The contract is provably stopped by renouncing\n     the pauser role and the admin role after pausing, can only be called by the `PAUSER`\n     */\n    function pause() public {\n        require(hasRole(PAUSER_ROLE, msg.sender), \"only pauser can pause\");\n        _pause();\n    }\n\n    /**\n     * @dev Unpause the contract, can only be called by the pauser when paused\n     */\n    function unPause() public {\n        require(hasRole(PAUSER_ROLE, msg.sender), \"only pauser can unpause\");\n        _unpause();\n    }\n\n\n//function added to allow me to set an overlay with stake, rather than mine for it.\n    function depositStakeForSimulation(\n        address _owner,\n        bytes32 overlay,\n        uint256 amount\n    ) external whenNotPaused {\n        require(_owner == msg.sender, \"only owner can update stake\");\n\n        uint256 updatedAmount = amount;\n\n        if (stakes[overlay].isValue) {\n            require(overlayNotFrozen(overlay), \"overlay currently frozen\");\n            updatedAmount = amount + stakes[overlay].stakeAmount;\n        }\n\n        require(ERC20(bzzToken).transferFrom(msg.sender, address(this), amount), \"failed transfer\");\n\n        emit StakeUpdated(overlay, updatedAmount, _owner, block.number);\n\n        stakes[overlay] = Stake({\n            owner: _owner,\n            overlay: overlay,\n            stakeAmount: updatedAmount,\n            lastUpdatedBlockNumber: block.number,\n            isValue: true\n        });\n    }\n\n\n\n\n\n\n\n\n\n\n\n\n\n\n\n\n\n}\n\n",
  "sourcePath": "/home/daniel/Sync/Master/MasterThesisSSC/SwarmStorageContractBank/contracts/Staking.sol",
  "compiler": {
    "name": "solc",
    "version": "0.8.21+commit.d9974bed.Emscripten.clang"
  },
  "schemaVersion": "3.4.16",
  "updatedAt": "2024-03-07T13:22:52.061Z",
  "devdoc": {
    "author": "The Swarm Authors",
    "details": "Allows users to stake tokens in order to be eligible for the Redistribution Schelling co-ordination game. Stakes are not withdrawable unless the contract is paused, e.g. in the event of migration to a new staking contract. Stakes are frozen or slashed by the Redistribution contract in response to violations of the protocol.",
    "events": {
      "Paused(address)": {
        "details": "Emitted when the pause is triggered by `account`."
      },
      "RoleAdminChanged(bytes32,bytes32,bytes32)": {
        "details": "Emitted when `newAdminRole` is set as ``role``'s admin role, replacing `previousAdminRole` `DEFAULT_ADMIN_ROLE` is the starting admin for all roles, despite {RoleAdminChanged} not being emitted signaling this. _Available since v3.1._"
      },
      "RoleGranted(bytes32,address,address)": {
        "details": "Emitted when `account` is granted `role`. `sender` is the account that originated the contract call, an admin role bearer except when using {_setupRole}."
      },
      "RoleRevoked(bytes32,address,address)": {
        "details": "Emitted when `account` is revoked `role`. `sender` is the account that originated the contract call:   - if using `revokeRole`, it is the admin role bearer   - if using `renounceRole`, it is the role bearer (i.e. `account`)"
      },
      "StakeFrozen(bytes32,uint256)": {
        "details": "Emitted when a stake for overlay `frozen` for `time` blocks."
      },
      "StakeSlashed(bytes32,uint256)": {
        "details": "Emitted when a stake for overlay `slashed` is slashed by `amount`."
      },
      "StakeUpdated(bytes32,uint256,address,uint256)": {
        "details": "Emitted when a stake is created or updated by `owner` of the `overlay` by `stakeamount`, during `lastUpdatedBlock`."
      },
      "Unpaused(address)": {
        "details": "Emitted when the pause is lifted by `account`."
      }
    },
    "kind": "dev",
    "methods": {
      "constructor": {
        "params": {
          "_NetworkId": "Swarm network ID",
          "_bzzToken": "Address of the staked ERC20 token"
        }
      },
      "depositStake(address,bytes32,uint256)": {
        "details": "At least `_initialBalancePerChunk*2^depth` number of tokens need to be preapproved for this contract.",
        "params": {
          "_owner": "Eth address used for overlay calculation.",
          "amount": "Deposited amount of ERC20 tokens.",
          "nonce": "Nonce that was used for overlay calculation."
        }
      },
      "freezeDeposit(bytes32,uint256)": {
        "details": "Freeze an existing stake, can only be called by the redistributor",
        "params": {
          "overlay": "the overlay selected",
          "time": "penalty length in blocknumbers"
        }
      },
      "getRoleAdmin(bytes32)": {
        "details": "Returns the admin role that controls `role`. See {grantRole} and {revokeRole}. To change a role's admin, use {_setRoleAdmin}."
      },
      "grantRole(bytes32,address)": {
        "details": "Grants `role` to `account`. If `account` had not been already granted `role`, emits a {RoleGranted} event. Requirements: - the caller must have ``role``'s admin role."
      },
      "hasRole(bytes32,address)": {
        "details": "Returns `true` if `account` has been granted `role`."
      },
      "lastUpdatedBlockNumberOfOverlay(bytes32)": {
        "details": "Returns the `lastUpdatedBlockNumber` of `overlay`."
      },
      "ownerOfOverlay(bytes32)": {
        "details": "Returns the eth address of the owner of `overlay`.",
        "params": {
          "overlay": "Overlay of node"
        }
      },
      "pause()": {
        "details": "Pause the contract. The contract is provably stopped by renouncing the pauser role and the admin role after pausing, can only be called by the `PAUSER`"
      },
      "paused()": {
        "details": "Returns true if the contract is paused, and false otherwise."
      },
      "renounceRole(bytes32,address)": {
        "details": "Revokes `role` from the calling account. Roles are often managed via {grantRole} and {revokeRole}: this function's purpose is to provide a mechanism for accounts to lose their privileges if they are compromised (such as when a trusted device is misplaced). If the calling account had been granted `role`, emits a {RoleRevoked} event. Requirements: - the caller must be `account`."
      },
      "revokeRole(bytes32,address)": {
        "details": "Revokes `role` from `account`. If `account` had been granted `role`, emits a {RoleRevoked} event. Requirements: - the caller must have ``role``'s admin role."
      },
      "slashDeposit(bytes32,uint256)": {
        "details": "Slash an existing stake, can only be called by the `redistributor`",
        "params": {
          "amount": "the amount to be slashed",
          "overlay": "the overlay selected"
        }
      },
      "stakeOfOverlay(bytes32)": {
        "details": "Returns the current `stakeAmount` of `overlay`.",
        "params": {
          "overlay": "Overlay of node"
        }
      },
      "supportsInterface(bytes4)": {
        "details": "See {IERC165-supportsInterface}."
      },
      "unPause()": {
        "details": "Unpause the contract, can only be called by the pauser when paused"
      },
      "usableStakeOfOverlay(bytes32)": {
        "details": "Returns the current usable `stakeAmount` of `overlay`. Checks whether the stake is currently frozen.",
        "params": {
          "overlay": "Overlay of node"
        }
      },
      "withdrawFromStake(bytes32,uint256)": {
        "details": "Withdraw stake only when the staking contract is paused, can only be called by the owner specific to the associated `overlay`",
        "params": {
          "amount": "The amount of ERC20 tokens to be withdrawn",
          "overlay": "The overlay to withdraw from"
        }
      }
    },
    "title": "Staking contract for the Swarm storage incentives",
    "version": 1
  },
  "userdoc": {
    "kind": "user",
    "methods": {
      "depositStake(address,bytes32,uint256)": {
        "notice": "Create a new stake or update an existing one."
      }
    },
    "version": 1
  }
}