{
  "contractName": "Redistribution",
  "abi": [
    {
      "inputs": [
        {
          "internalType": "address",
          "name": "staking",
          "type": "address"
        },
        {
          "internalType": "address",
          "name": "postageContract",
          "type": "address"
        },
        {
          "internalType": "address",
          "name": "oracleContract",
          "type": "address"
        }
      ],
      "stateMutability": "nonpayable",
      "type": "constructor"
    },
    {
      "anonymous": false,
      "inputs": [
        {
          "indexed": false,
          "internalType": "uint256",
          "name": "validChunkCount",
          "type": "uint256"
        }
      ],
      "name": "ChunkCount",
      "type": "event"
    },
    {
      "anonymous": false,
      "inputs": [
        {
          "indexed": false,
          "internalType": "uint256",
          "name": "roundNumber",
          "type": "uint256"
        },
        {
          "indexed": false,
          "internalType": "bytes32",
          "name": "overlay",
          "type": "bytes32"
        }
      ],
      "name": "Committed",
      "type": "event"
    },
    {
      "anonymous": false,
      "inputs": [
        {
          "indexed": false,
          "internalType": "uint256",
          "name": "_count",
          "type": "uint256"
        }
      ],
      "name": "CountCommits",
      "type": "event"
    },
    {
      "anonymous": false,
      "inputs": [
        {
          "indexed": false,
          "internalType": "uint256",
          "name": "_count",
          "type": "uint256"
        }
      ],
      "name": "CountReveals",
      "type": "event"
    },
    {
      "anonymous": false,
      "inputs": [
        {
          "indexed": false,
          "internalType": "uint256",
          "name": "roundNumber",
          "type": "uint256"
        },
        {
          "indexed": false,
          "internalType": "bytes32",
          "name": "anchor",
          "type": "bytes32"
        }
      ],
      "name": "CurrentRevealAnchor",
      "type": "event"
    },
    {
      "anonymous": false,
      "inputs": [
        {
          "indexed": false,
          "internalType": "address",
          "name": "account",
          "type": "address"
        }
      ],
      "name": "Paused",
      "type": "event"
    },
    {
      "anonymous": false,
      "inputs": [
        {
          "indexed": false,
          "internalType": "uint256",
          "name": "roundNumber",
          "type": "uint256"
        },
        {
          "indexed": false,
          "internalType": "bytes32",
          "name": "overlay",
          "type": "bytes32"
        },
        {
          "indexed": false,
          "internalType": "uint256",
          "name": "stake",
          "type": "uint256"
        },
        {
          "indexed": false,
          "internalType": "uint256",
          "name": "stakeDensity",
          "type": "uint256"
        },
        {
          "indexed": false,
          "internalType": "bytes32",
          "name": "reserveCommitment",
          "type": "bytes32"
        },
        {
          "indexed": false,
          "internalType": "uint8",
          "name": "depth",
          "type": "uint8"
        }
      ],
      "name": "Revealed",
      "type": "event"
    },
    {
      "anonymous": false,
      "inputs": [
        {
          "indexed": true,
          "internalType": "bytes32",
          "name": "role",
          "type": "bytes32"
        },
        {
          "indexed": true,
          "internalType": "bytes32",
          "name": "previousAdminRole",
          "type": "bytes32"
        },
        {
          "indexed": true,
          "internalType": "bytes32",
          "name": "newAdminRole",
          "type": "bytes32"
        }
      ],
      "name": "RoleAdminChanged",
      "type": "event"
    },
    {
      "anonymous": false,
      "inputs": [
        {
          "indexed": true,
          "internalType": "bytes32",
          "name": "role",
          "type": "bytes32"
        },
        {
          "indexed": true,
          "internalType": "address",
          "name": "account",
          "type": "address"
        },
        {
          "indexed": true,
          "internalType": "address",
          "name": "sender",
          "type": "address"
        }
      ],
      "name": "RoleGranted",
      "type": "event"
    },
    {
      "anonymous": false,
      "inputs": [
        {
          "indexed": true,
          "internalType": "bytes32",
          "name": "role",
          "type": "bytes32"
        },
        {
          "indexed": true,
          "internalType": "address",
          "name": "account",
          "type": "address"
        },
        {
          "indexed": true,
          "internalType": "address",
          "name": "sender",
          "type": "address"
        }
      ],
      "name": "RoleRevoked",
      "type": "event"
    },
    {
      "anonymous": false,
      "inputs": [
        {
          "indexed": false,
          "internalType": "bytes32",
          "name": "hash",
          "type": "bytes32"
        },
        {
          "indexed": false,
          "internalType": "uint8",
          "name": "depth",
          "type": "uint8"
        }
      ],
      "name": "TruthSelected",
      "type": "event"
    },
    {
      "anonymous": false,
      "inputs": [
        {
          "indexed": false,
          "internalType": "address",
          "name": "account",
          "type": "address"
        }
      ],
      "name": "Unpaused",
      "type": "event"
    },
    {
      "anonymous": false,
      "inputs": [
        {
          "components": [
            {
              "internalType": "address",
              "name": "owner",
              "type": "address"
            },
            {
              "internalType": "bytes32",
              "name": "overlay",
              "type": "bytes32"
            },
            {
              "internalType": "uint256",
              "name": "stake",
              "type": "uint256"
            },
            {
              "internalType": "uint256",
              "name": "stakeDensity",
              "type": "uint256"
            },
            {
              "internalType": "bytes32",
              "name": "hash",
              "type": "bytes32"
            },
            {
              "internalType": "uint8",
              "name": "depth",
              "type": "uint8"
            }
          ],
          "indexed": false,
          "internalType": "struct Redistribution.Reveal",
          "name": "winner",
          "type": "tuple"
        }
      ],
      "name": "WinnerSelected",
      "type": "event"
    },
    {
      "inputs": [],
      "name": "DEFAULT_ADMIN_ROLE",
      "outputs": [
        {
          "internalType": "bytes32",
          "name": "",
          "type": "bytes32"
        }
      ],
      "stateMutability": "view",
      "type": "function"
    },
    {
      "inputs": [],
      "name": "OracleContract",
      "outputs": [
        {
          "internalType": "contract PriceOracle",
          "name": "",
          "type": "address"
        }
      ],
      "stateMutability": "view",
      "type": "function"
    },
    {
      "inputs": [],
      "name": "PAUSER_ROLE",
      "outputs": [
        {
          "internalType": "bytes32",
          "name": "",
          "type": "bytes32"
        }
      ],
      "stateMutability": "view",
      "type": "function"
    },
    {
      "inputs": [],
      "name": "PostageContract",
      "outputs": [
        {
          "internalType": "contract PostageStamp",
          "name": "",
          "type": "address"
        }
      ],
      "stateMutability": "view",
      "type": "function"
    },
    {
      "inputs": [],
      "name": "Stakes",
      "outputs": [
        {
          "internalType": "contract StakeRegistry",
          "name": "",
          "type": "address"
        }
      ],
      "stateMutability": "view",
      "type": "function"
    },
    {
      "inputs": [],
      "name": "currentClaimRound",
      "outputs": [
        {
          "internalType": "uint256",
          "name": "",
          "type": "uint256"
        }
      ],
      "stateMutability": "view",
      "type": "function"
    },
    {
      "inputs": [],
      "name": "currentCommitRound",
      "outputs": [
        {
          "internalType": "uint256",
          "name": "",
          "type": "uint256"
        }
      ],
      "stateMutability": "view",
      "type": "function"
    },
    {
      "inputs": [
        {
          "internalType": "uint256",
          "name": "",
          "type": "uint256"
        }
      ],
      "name": "currentCommits",
      "outputs": [
        {
          "internalType": "bytes32",
          "name": "overlay",
          "type": "bytes32"
        },
        {
          "internalType": "address",
          "name": "owner",
          "type": "address"
        },
        {
          "internalType": "uint256",
          "name": "stake",
          "type": "uint256"
        },
        {
          "internalType": "bytes32",
          "name": "obfuscatedHash",
          "type": "bytes32"
        },
        {
          "internalType": "bool",
          "name": "revealed",
          "type": "bool"
        },
        {
          "internalType": "uint256",
          "name": "revealIndex",
          "type": "uint256"
        }
      ],
      "stateMutability": "view",
      "type": "function"
    },
    {
      "inputs": [],
      "name": "currentRevealRound",
      "outputs": [
        {
          "internalType": "uint256",
          "name": "",
          "type": "uint256"
        }
      ],
      "stateMutability": "view",
      "type": "function"
    },
    {
      "inputs": [
        {
          "internalType": "uint256",
          "name": "",
          "type": "uint256"
        }
      ],
      "name": "currentReveals",
      "outputs": [
        {
          "internalType": "address",
          "name": "owner",
          "type": "address"
        },
        {
          "internalType": "bytes32",
          "name": "overlay",
          "type": "bytes32"
        },
        {
          "internalType": "uint256",
          "name": "stake",
          "type": "uint256"
        },
        {
          "internalType": "uint256",
          "name": "stakeDensity",
          "type": "uint256"
        },
        {
          "internalType": "bytes32",
          "name": "hash",
          "type": "bytes32"
        },
        {
          "internalType": "uint8",
          "name": "depth",
          "type": "uint8"
        }
      ],
      "stateMutability": "view",
      "type": "function"
    },
    {
      "inputs": [
        {
          "internalType": "bytes32",
          "name": "role",
          "type": "bytes32"
        }
      ],
      "name": "getRoleAdmin",
      "outputs": [
        {
          "internalType": "bytes32",
          "name": "",
          "type": "bytes32"
        }
      ],
      "stateMutability": "view",
      "type": "function"
    },
    {
      "inputs": [
        {
          "internalType": "bytes32",
          "name": "role",
          "type": "bytes32"
        },
        {
          "internalType": "address",
          "name": "account",
          "type": "address"
        }
      ],
      "name": "grantRole",
      "outputs": [],
      "stateMutability": "nonpayable",
      "type": "function"
    },
    {
      "inputs": [
        {
          "internalType": "bytes32",
          "name": "role",
          "type": "bytes32"
        },
        {
          "internalType": "address",
          "name": "account",
          "type": "address"
        }
      ],
      "name": "hasRole",
      "outputs": [
        {
          "internalType": "bool",
          "name": "",
          "type": "bool"
        }
      ],
      "stateMutability": "view",
      "type": "function"
    },
    {
      "inputs": [],
      "name": "minimumStake",
      "outputs": [
        {
          "internalType": "uint256",
          "name": "",
          "type": "uint256"
        }
      ],
      "stateMutability": "view",
      "type": "function"
    },
    {
      "inputs": [],
      "name": "paused",
      "outputs": [
        {
          "internalType": "bool",
          "name": "",
          "type": "bool"
        }
      ],
      "stateMutability": "view",
      "type": "function"
    },
    {
      "inputs": [],
      "name": "penaltyMultiplierDisagreement",
      "outputs": [
        {
          "internalType": "uint256",
          "name": "",
          "type": "uint256"
        }
      ],
      "stateMutability": "view",
      "type": "function"
    },
    {
      "inputs": [],
      "name": "penaltyMultiplierNonRevealed",
      "outputs": [
        {
          "internalType": "uint256",
          "name": "",
          "type": "uint256"
        }
      ],
      "stateMutability": "view",
      "type": "function"
    },
    {
      "inputs": [
        {
          "internalType": "bytes32",
          "name": "role",
          "type": "bytes32"
        },
        {
          "internalType": "address",
          "name": "account",
          "type": "address"
        }
      ],
      "name": "renounceRole",
      "outputs": [],
      "stateMutability": "nonpayable",
      "type": "function"
    },
    {
      "inputs": [
        {
          "internalType": "bytes32",
          "name": "role",
          "type": "bytes32"
        },
        {
          "internalType": "address",
          "name": "account",
          "type": "address"
        }
      ],
      "name": "revokeRole",
      "outputs": [],
      "stateMutability": "nonpayable",
      "type": "function"
    },
    {
      "inputs": [],
      "name": "roundLength",
      "outputs": [
        {
          "internalType": "uint256",
          "name": "",
          "type": "uint256"
        }
      ],
      "stateMutability": "view",
      "type": "function"
    },
    {
      "inputs": [
        {
          "internalType": "bytes4",
          "name": "interfaceId",
          "type": "bytes4"
        }
      ],
      "name": "supportsInterface",
      "outputs": [
        {
          "internalType": "bool",
          "name": "",
          "type": "bool"
        }
      ],
      "stateMutability": "view",
      "type": "function"
    },
    {
      "inputs": [],
      "name": "winner",
      "outputs": [
        {
          "internalType": "address",
          "name": "owner",
          "type": "address"
        },
        {
          "internalType": "bytes32",
          "name": "overlay",
          "type": "bytes32"
        },
        {
          "internalType": "uint256",
          "name": "stake",
          "type": "uint256"
        },
        {
          "internalType": "uint256",
          "name": "stakeDensity",
          "type": "uint256"
        },
        {
          "internalType": "bytes32",
          "name": "hash",
          "type": "bytes32"
        },
        {
          "internalType": "uint8",
          "name": "depth",
          "type": "uint8"
        }
      ],
      "stateMutability": "view",
      "type": "function"
    },
    {
      "inputs": [],
      "name": "pause",
      "outputs": [],
      "stateMutability": "nonpayable",
      "type": "function"
    },
    {
      "inputs": [],
      "name": "unPause",
      "outputs": [],
      "stateMutability": "nonpayable",
      "type": "function"
    },
    {
      "inputs": [
        {
          "internalType": "uint256",
          "name": "_penaltyMultiplierDisagreement",
          "type": "uint256"
        },
        {
          "internalType": "uint256",
          "name": "_penaltyMultiplierNonRevealed",
          "type": "uint256"
        }
      ],
      "name": "setFreezingParams",
      "outputs": [],
      "stateMutability": "nonpayable",
      "type": "function"
    },
    {
      "inputs": [],
      "name": "currentRound",
      "outputs": [
        {
          "internalType": "uint256",
          "name": "",
          "type": "uint256"
        }
      ],
      "stateMutability": "view",
      "type": "function"
    },
    {
      "inputs": [],
      "name": "currentPhaseCommit",
      "outputs": [
        {
          "internalType": "bool",
          "name": "",
          "type": "bool"
        }
      ],
      "stateMutability": "view",
      "type": "function"
    },
    {
      "inputs": [],
      "name": "currentPhaseReveal",
      "outputs": [
        {
          "internalType": "bool",
          "name": "",
          "type": "bool"
        }
      ],
      "stateMutability": "view",
      "type": "function"
    },
    {
      "inputs": [],
      "name": "currentPhaseClaim",
      "outputs": [
        {
          "internalType": "bool",
          "name": "",
          "type": "bool"
        }
      ],
      "stateMutability": "view",
      "type": "function"
    },
    {
      "inputs": [],
      "name": "currentRoundReveals",
      "outputs": [
        {
          "components": [
            {
              "internalType": "address",
              "name": "owner",
              "type": "address"
            },
            {
              "internalType": "bytes32",
              "name": "overlay",
              "type": "bytes32"
            },
            {
              "internalType": "uint256",
              "name": "stake",
              "type": "uint256"
            },
            {
              "internalType": "uint256",
              "name": "stakeDensity",
              "type": "uint256"
            },
            {
              "internalType": "bytes32",
              "name": "hash",
              "type": "bytes32"
            },
            {
              "internalType": "uint8",
              "name": "depth",
              "type": "uint8"
            }
          ],
          "internalType": "struct Redistribution.Reveal[]",
          "name": "",
          "type": "tuple[]"
        }
      ],
      "stateMutability": "view",
      "type": "function"
    },
    {
      "inputs": [
        {
          "internalType": "bytes32",
          "name": "_obfuscatedHash",
          "type": "bytes32"
        },
        {
          "internalType": "bytes32",
          "name": "_overlay",
          "type": "bytes32"
        },
        {
          "internalType": "uint256",
          "name": "_roundNumber",
          "type": "uint256"
        }
      ],
      "name": "commit",
      "outputs": [],
      "stateMutability": "nonpayable",
      "type": "function"
    },
    {
      "inputs": [],
      "name": "currentSeed",
      "outputs": [
        {
          "internalType": "bytes32",
          "name": "",
          "type": "bytes32"
        }
      ],
      "stateMutability": "view",
      "type": "function"
    },
    {
      "inputs": [],
      "name": "nextSeed",
      "outputs": [
        {
          "internalType": "bytes32",
          "name": "",
          "type": "bytes32"
        }
      ],
      "stateMutability": "view",
      "type": "function"
    },
    {
      "inputs": [
        {
          "internalType": "bytes32",
          "name": "A",
          "type": "bytes32"
        },
        {
          "internalType": "bytes32",
          "name": "B",
          "type": "bytes32"
        },
        {
          "internalType": "uint8",
          "name": "minimum",
          "type": "uint8"
        }
      ],
      "name": "inProximity",
      "outputs": [
        {
          "internalType": "bool",
          "name": "",
          "type": "bool"
        }
      ],
      "stateMutability": "pure",
      "type": "function"
    },
    {
      "inputs": [
        {
          "internalType": "bytes32",
          "name": "_overlay",
          "type": "bytes32"
        },
        {
          "internalType": "uint8",
          "name": "_depth",
          "type": "uint8"
        },
        {
          "internalType": "bytes32",
          "name": "_hash",
          "type": "bytes32"
        },
        {
          "internalType": "bytes32",
          "name": "revealNonce",
          "type": "bytes32"
        }
      ],
      "name": "wrapCommit",
      "outputs": [
        {
          "internalType": "bytes32",
          "name": "",
          "type": "bytes32"
        }
      ],
      "stateMutability": "pure",
      "type": "function"
    },
    {
      "inputs": [
        {
          "internalType": "bytes32",
          "name": "_overlay",
          "type": "bytes32"
        },
        {
          "internalType": "uint8",
          "name": "_depth",
          "type": "uint8"
        },
        {
          "internalType": "bytes32",
          "name": "_hash",
          "type": "bytes32"
        },
        {
          "internalType": "bytes32",
          "name": "_revealNonce",
          "type": "bytes32"
        }
      ],
      "name": "reveal",
      "outputs": [],
      "stateMutability": "nonpayable",
      "type": "function"
    },
    {
      "inputs": [
        {
          "internalType": "bytes32",
          "name": "_overlay",
          "type": "bytes32"
        }
      ],
      "name": "isWinner",
      "outputs": [
        {
          "internalType": "bool",
          "name": "",
          "type": "bool"
        }
      ],
      "stateMutability": "view",
      "type": "function"
    },
    {
      "inputs": [
        {
          "internalType": "bytes32",
          "name": "overlay",
          "type": "bytes32"
        },
        {
          "internalType": "uint8",
          "name": "depth",
          "type": "uint8"
        }
      ],
      "name": "isParticipatingInUpcomingRound",
      "outputs": [
        {
          "internalType": "bool",
          "name": "",
          "type": "bool"
        }
      ],
      "stateMutability": "view",
      "type": "function"
    },
    {
      "inputs": [],
      "name": "currentRoundAnchor",
      "outputs": [
        {
          "internalType": "bytes32",
          "name": "returnVal",
          "type": "bytes32"
        }
      ],
      "stateMutability": "view",
      "type": "function"
    },
    {
      "inputs": [],
      "name": "claim",
      "outputs": [],
      "stateMutability": "nonpayable",
      "type": "function"
    }
  ],
  "bytecode": "0x6080604052600160065560026007556fffffffffffffffffffffffffffffffff5f1b60085567016345785d8a0000600b556098600f5534801562000041575f80fd5b50604051620057153803806200571583398181016040528101906200006791906200035f565b5f60015f6101000a81548160ff0219169083151502179055508260035f6101000a81548173ffffffffffffffffffffffffffffffffffffffff021916908373ffffffffffffffffffffffffffffffffffffffff160217905550816001806101000a81548173ffffffffffffffffffffffffffffffffffffffff021916908373ffffffffffffffffffffffffffffffffffffffff1602179055508060025f6101000a81548173ffffffffffffffffffffffffffffffffffffffff021916908373ffffffffffffffffffffffffffffffffffffffff160217905550620001545f801b336200018f60201b60201c565b620001867f65d7a28e3265b37a6474929f336521b332c1681b933f6cb9f3376673440d862a336200018f60201b60201c565b505050620003b8565b620001a18282620001a560201b60201c565b5050565b620001b782826200029060201b60201c565b6200028c5760015f808481526020019081526020015f205f015f8373ffffffffffffffffffffffffffffffffffffffff1673ffffffffffffffffffffffffffffffffffffffff1681526020019081526020015f205f6101000a81548160ff02191690831515021790555062000231620002f360201b60201c565b73ffffffffffffffffffffffffffffffffffffffff168173ffffffffffffffffffffffffffffffffffffffff16837f2f8788117e7eff1d82e926ec794901d17c78024a50270940304540a733656f0d60405160405180910390a45b5050565b5f805f8481526020019081526020015f205f015f8373ffffffffffffffffffffffffffffffffffffffff1673ffffffffffffffffffffffffffffffffffffffff1681526020019081526020015f205f9054906101000a900460ff16905092915050565b5f33905090565b5f80fd5b5f73ffffffffffffffffffffffffffffffffffffffff82169050919050565b5f6200032982620002fe565b9050919050565b6200033b816200031d565b811462000346575f80fd5b50565b5f81519050620003598162000330565b92915050565b5f805f60608486031215620003795762000378620002fa565b5b5f620003888682870162000349565b93505060206200039b8682870162000349565b9250506040620003ae8682870162000349565b9150509250925092565b61534f80620003c65f395ff3fe608060405234801561000f575f80fd5b5060043610610246575f3560e01c806382b39b1b11610139578063c203ce52116100b6578063dfbf53ae1161007a578063dfbf53ae146106ca578063e63ab1e9146106ed578063ec5ffac21461070b578063f7b188a514610729578063fb00f2f31461073357610246565b8063c203ce5214610626578063ce98774514610644578063d1e8b63d14610674578063d547741f14610692578063d9106d25146106ae57610246565b80638d8b6428116100fd5780638d8b64281461056e57806391d148541461058c578063a217fddf146105bc578063b78a52a7146105da578063c1d810d51461060a57610246565b806382b39b1b146104d5578063832206261461050a5780638456cb59146105285780638a19c8bc146105325780638b649b941461055057610246565b80635c975abb116101c757806369da91141161018b57806369da9114146104165780636f94aaf21461043457806372286cba1461045257806377c75d10146104875780637fe019c6146104b757610246565b80635c975abb146103805780635d4844ea1461039e57806362fd29ae146103bc57806364c34a85146103da57806369bfac01146103f857610246565b80632f3906da1161020e5780632f3906da1461030257806336568abe146103205780634a2e75981461033c5780634e3727d2146103585780634e71d92d1461037657610246565b806301ffc9a71461024a578063183500961461027a578063248a9ca3146102985780632a4e6249146102c85780632f2ff15d146102e6575b5f80fd5b610264600480360381019061025f9190613542565b610763565b6040516102719190613587565b60405180910390f35b6102826107dc565b60405161028f919061361a565b60405180910390f35b6102b260048036038101906102ad9190613666565b610800565b6040516102bf91906136a0565b60405180910390f35b6102d061081c565b6040516102dd919061383c565b60405180910390f35b61030060048036038101906102fb9190613886565b6109a7565b005b61030a610a0d565b6040516103179190613587565b60405180910390f35b61033a60048036038101906103359190613886565b610a61565b005b610356600480360381019061035191906138ee565b610ae4565b005b61036061112b565b60405161036d919061394d565b60405180910390f35b61037e611131565b005b610388611b41565b6040516103959190613587565b60405180910390f35b6103a6611b56565b6040516103b39190613986565b60405180910390f35b6103c4611b7b565b6040516103d191906136a0565b60405180910390f35b6103e2611c01565b6040516103ef91906136a0565b60405180910390f35b610400611cc4565b60405161040d919061394d565b60405180910390f35b61041e611cca565b60405161042b91906139bf565b60405180910390f35b61043c611cef565b604051610449919061394d565b60405180910390f35b61046c600480360381019061046791906139d8565b611cf5565b60405161047e96959493929190613a12565b60405180910390f35b6104a1600480360381019061049c9190613666565b611d67565b6040516104ae9190613587565b60405180910390f35b6104bf6121e9565b6040516104cc919061394d565b60405180910390f35b6104ef60048036038101906104ea91906139d8565b6121ef565b60405161050196959493929190613a80565b60405180910390f35b610512612261565b60405161051f91906136a0565b60405180910390f35b6105306122db565b005b61053a61234e565b604051610547919061394d565b60405180910390f35b610558612362565b604051610565919061394d565b60405180910390f35b610576612368565b6040516105839190613587565b60405180910390f35b6105a660048036038101906105a19190613886565b61239b565b6040516105b39190613587565b60405180910390f35b6105c46123fe565b6040516105d191906136a0565b60405180910390f35b6105f460048036038101906105ef9190613b09565b612404565b6040516106019190613587565b60405180910390f35b610624600480360381019061061f9190613b47565b612645565b005b61062e612c44565b60405161063b919061394d565b60405180910390f35b61065e60048036038101906106599190613b47565b612c4a565b60405161066b91906136a0565b60405180910390f35b61067c612c82565b6040516106899190613587565b60405180910390f35b6106ac60048036038101906106a79190613886565b612cb6565b005b6106c860048036038101906106c39190613bab565b612d1c565b005b6106d2612d79565b6040516106e496959493929190613a80565b60405180910390f35b6106f5612dcd565b60405161070291906136a0565b60405180910390f35b610713612df1565b604051610720919061394d565b60405180910390f35b610731612df7565b005b61074d60048036038101906107489190613be9565b612e6a565b60405161075a9190613587565b60405180910390f35b5f7f7965db0b000000000000000000000000000000000000000000000000000000007bffffffffffffffffffffffffffffffffffffffffffffffffffffffff1916827bffffffffffffffffffffffffffffffffffffffffffffffffffffffff191614806107d557506107d482612eab565b5b9050919050565b60018054906101000a900473ffffffffffffffffffffffffffffffffffffffff1681565b5f805f8381526020019081526020015f20600101549050919050565b6060610826612368565b610865576040517f08c379a000000000000000000000000000000000000000000000000000000000815260040161085c90613c93565b60405180910390fd5b5f61086e61234e565b9050600d5481146108b4576040517f08c379a00000000000000000000000000000000000000000000000000000000081526004016108ab90613cfb565b60405180910390fd5b6005805480602002602001604051908101604052809291908181526020015f905b8282101561099d578382905f5260205f2090600602016040518060c00160405290815f82015f9054906101000a900473ffffffffffffffffffffffffffffffffffffffff1673ffffffffffffffffffffffffffffffffffffffff1673ffffffffffffffffffffffffffffffffffffffff16815260200160018201548152602001600282015481526020016003820154815260200160048201548152602001600582015f9054906101000a900460ff1660ff1660ff1681525050815260200190600101906108d5565b5050505091505090565b6109c06109b383610800565b6109bb612f14565b61239b565b6109ff576040517f08c379a00000000000000000000000000000000000000000000000000000000081526004016109f690613d89565b60405180910390fd5b610a098282612f1b565b5050565b5f80600f5443610a1d9190613dd4565b90506004600f54610a2e9190613e31565b8110158015610a4a57506002600f54610a479190613e31565b81105b15610a59576001915050610a5e565b5f9150505b90565b610a69612f14565b73ffffffffffffffffffffffffffffffffffffffff168173ffffffffffffffffffffffffffffffffffffffff1614610ad6576040517f08c379a0000000000000000000000000000000000000000000000000000000008152600401610acd90613ed1565b60405180910390fd5b610ae08282612ff5565b5050565b610aec611b41565b15610b2c576040517f08c379a0000000000000000000000000000000000000000000000000000000008152600401610b2390613f39565b60405180910390fd5b610b34612c82565b610b73576040517f08c379a0000000000000000000000000000000000000000000000000000000008152600401610b6a90613fa1565b60405180910390fd5b60016004600f54610b849190613e31565b610b8e9190613fbf565b600f5443610b9c9190613dd4565b03610bdc576040517f08c379a0000000000000000000000000000000000000000000000000000000008152600401610bd390614062565b60405180910390fd5b5f610be561234e565b905081811115610c2a576040517f08c379a0000000000000000000000000000000000000000000000000000000008152600401610c21906140ca565b60405180910390fd5b81811015610c6d576040517f08c379a0000000000000000000000000000000000000000000000000000000008152600401610c6490614132565b60405180910390fd5b5f60035f9054906101000a900473ffffffffffffffffffffffffffffffffffffffff1673ffffffffffffffffffffffffffffffffffffffff166348962b93856040518263ffffffff1660e01b8152600401610cc891906136a0565b602060405180830381865afa158015610ce3573d5f803e3d5ffd5b505050506040513d601f19601f82011682018060405250810190610d079190614164565b9050600b54811015610d4e576040517f08c379a0000000000000000000000000000000000000000000000000000000008152600401610d45906141d9565b60405180910390fd5b3373ffffffffffffffffffffffffffffffffffffffff1660035f9054906101000a900473ffffffffffffffffffffffffffffffffffffffff1673ffffffffffffffffffffffffffffffffffffffff1663a0d22b21866040518263ffffffff1660e01b8152600401610dbf91906136a0565b602060405180830381865afa158015610dda573d5f803e3d5ffd5b505050506040513d601f19601f82011682018060405250810190610dfe919061420b565b73ffffffffffffffffffffffffffffffffffffffff1614610e54576040517f08c379a0000000000000000000000000000000000000000000000000000000008152600401610e4b90614280565b60405180910390fd5b600f546002610e63919061429e565b43610e6e9190613fbf565b60035f9054906101000a900473ffffffffffffffffffffffffffffffffffffffff1673ffffffffffffffffffffffffffffffffffffffff1663ede41302866040518263ffffffff1660e01b8152600401610ec891906136a0565b602060405180830381865afa158015610ee3573d5f803e3d5ffd5b505050506040513d601f19601f82011682018060405250810190610f079190614164565b10610f47576040517f08c379a0000000000000000000000000000000000000000000000000000000008152600401610f3e90614329565b60405180910390fd5b600c548214610f655760045f610f5d91906133d1565b81600c819055505b5f60048054905090505f5b81811015610fef578560048281548110610f8d57610f8c614347565b5b905f5260205f2090600602015f015403610fdc576040517f08c379a0000000000000000000000000000000000000000000000000000000008152600401610fd3906143be565b60405180910390fd5b8080610fe7906143dc565b915050610f70565b5060046040518060c001604052808781526020013373ffffffffffffffffffffffffffffffffffffffff1681526020018481526020018881526020015f151581526020015f815250908060018154018082558091505060019003905f5260205f2090600602015f909190919091505f820151815f01556020820151816001015f6101000a81548173ffffffffffffffffffffffffffffffffffffffff021916908373ffffffffffffffffffffffffffffffffffffffff16021790555060408201518160020155606082015181600301556080820151816004015f6101000a81548160ff02191690831515021790555060a0820151816005015550507f68e0867601a98978930107aee7f425665e61edd70ca594c68ca5da9e81f84c29848660405161111b929190614423565b60405180910390a1505050505050565b60065481565b611139611b41565b15611179576040517f08c379a000000000000000000000000000000000000000000000000000000000815260040161117090613f39565b60405180910390fd5b611181612368565b6111c0576040517f08c379a00000000000000000000000000000000000000000000000000000000081526004016111b790613c93565b60405180910390fd5b5f6111c961234e565b9050600d54811461120f576040517f08c379a000000000000000000000000000000000000000000000000000000000815260040161120690613cfb565b60405180910390fd5b600e548111611253576040517f08c379a000000000000000000000000000000000000000000000000000000000815260040161124a906144ba565b60405180910390fd5b5f61125c6130cf565b90505f805f805f805f60048054905090505f60058054905090507f6752c5e71c95fb93bc7137adeb115a33fa4e54e2683e33d3f90c2bb1c4b6c2a5826040516112a5919061394d565b60405180910390a17f4c03de6a759749c0c9387b7014634dc5c6af610e1366023d90751c783a998f8d816040516112dc919061394d565b60405180910390a15f805f90505f5b8481101561147f576004818154811061130757611306614347565b5b905f5260205f2090600602016004015f9054906101000a900460ff161561146c576004818154811061133c5761133b614347565b5b905f5260205f2090600602016005015492506005838154811061136257611361614347565b5b905f5260205f209060060201600301548b61137d91906144d8565b9a508b82604051602001611392929190614597565b60405160208183030381529060405280519060200120985060085489165f1c975060016008545f1c6113c491906144d8565b600584815481106113d8576113d7614347565b5b905f5260205f209060060201600301546113f2919061429e565b8b896113fe919061429e565b101561145d576005838154811061141857611417614347565b5b905f5260205f2090600602016004015496506005838154811061143e5761143d614347565b5b905f5260205f2090600602016005015f9054906101000a900460ff1695505b8180611468906143dc565b9250505b8080611477906143dc565b9150506112eb565b507f34e8eda4cd857cd2865becf58a47748f31415f4a382cbb2cc0c64b9a27c717be86866040516114b19291906145be565b60405180910390a15f90505f6114c561318f565b90505f5b858110156118ff57600481815481106114e5576114e4614347565b5b905f5260205f2090600602016005015493506004818154811061150b5761150a614347565b5b905f5260205f2090600602016004015f9054906101000a900460ff161561181557600584815481106115405761153f614347565b5b905f5260205f209060060201600401548814801561159257506005848154811061156d5761156c614347565b5b905f5260205f2090600602016005015f9054906101000a900460ff1660ff168760ff16145b1561173d57600584815481106115ab576115aa614347565b5b905f5260205f209060060201600301548b6115c691906144d8565b9a5081836040516020016115db929190614597565b6040516020818303038152906040528051906020012099506008548a165f1c985060016008545f1c61160d91906144d8565b6005858154811061162157611620614347565b5b905f5260205f2090600602016003015461163b919061429e565b8b8a611647919061429e565b101561172a576005848154811061166157611660614347565b5b905f5260205f20906006020160105f82015f9054906101000a900473ffffffffffffffffffffffffffffffffffffffff16815f015f6101000a81548173ffffffffffffffffffffffffffffffffffffffff021916908373ffffffffffffffffffffffffffffffffffffffff16021790555060018201548160010155600282015481600201556003820154816003015560048201548160040155600582015f9054906101000a900460ff16816005015f6101000a81548160ff021916908360ff1602179055509050505b8280611735906143dc565b935050611810565b60035f9054906101000a900473ffffffffffffffffffffffffffffffffffffffff1673ffffffffffffffffffffffffffffffffffffffff1663837fd16a6005868154811061178e5761178d614347565b5b905f5260205f209060060201600101548960026117ab9190614714565b600f546006546117bb919061429e565b6117c5919061429e565b6040518363ffffffff1660e01b81526004016117e292919061475e565b5f604051808303815f87803b1580156117f9575f80fd5b505af115801561180b573d5f803e3d5ffd5b505050505b6118eb565b60035f9054906101000a900473ffffffffffffffffffffffffffffffffffffffff1673ffffffffffffffffffffffffffffffffffffffff1663837fd16a6004838154811061186657611865614347565b5b905f5260205f2090600602015f01548960026118829190614714565b600f54600754611892919061429e565b61189c919061429e565b6040518363ffffffff1660e01b81526004016118b992919061475e565b5f604051808303815f87803b1580156118d0575f80fd5b505af11580156118e2573d5f803e3d5ffd5b505050506118ec565b5b80806118f7906143dc565b9150506114c9565b507f2756aa512df0e32847d196f374c5b2fa5f30705f2fe3a75b8baeac52f2af5b39601060405161193091906148ee565b60405180910390a160018054906101000a900473ffffffffffffffffffffffffffffffffffffffff1673ffffffffffffffffffffffffffffffffffffffff166351cff8d960105f015f9054906101000a900473ffffffffffffffffffffffffffffffffffffffff166040518263ffffffff1660e01b81526004016119b49190614907565b5f604051808303815f87803b1580156119cb575f80fd5b505af11580156119dd573d5f803e3d5ffd5b505050507fbee3fc8a3523c1a65fa9308ce1f2b8fd90c24975b141b754603194597846e4dd60018054906101000a900473ffffffffffffffffffffffffffffffffffffffff1673ffffffffffffffffffffffffffffffffffffffff16638a5e8e326040518163ffffffff1660e01b8152600401602060405180830381865afa158015611a6b573d5f803e3d5ffd5b505050506040513d601f19601f82011682018060405250810190611a8f9190614164565b604051611a9c919061394d565b60405180910390a160025f9054906101000a900473ffffffffffffffffffffffffffffffffffffffff1673ffffffffffffffffffffffffffffffffffffffff166372bf079e836040518263ffffffff1660e01b8152600401611afe919061394d565b5f604051808303815f87803b158015611b15575f80fd5b505af1158015611b27573d5f803e3d5ffd5b505050508c600e8190555050505050505050505050505050565b5f60015f9054906101000a900460ff16905090565b60035f9054906101000a900473ffffffffffffffffffffffffffffffffffffffff1681565b5f806001611b8761234e565b611b9191906144d8565b90505f600a5490506001600d54611ba891906144d8565b821115611bf9575f6001600d5484611bc09190613fbf565b611bca9190613fbf565b90508181604051602001611bdf929190614940565b604051602081830303815290604052805190602001209150505b809250505090565b5f80611c0b61234e565b9050611c15612c82565b80611c325750600d5481118015611c315750611c2f612368565b155b5b15611c4757611c3f612261565b915050611cc1565b611c4f610a0d565b8015611c5c5750600d5481145b15611ca2575f611ca1576040517f08c379a0000000000000000000000000000000000000000000000000000000008152600401611c98906149db565b60405180910390fd5b5b611caa612368565b15611cbf57611cb7611b7b565b915050611cc1565b505b90565b600c5481565b60025f9054906101000a900473ffffffffffffffffffffffffffffffffffffffff1681565b600e5481565b60048181548110611d04575f80fd5b905f5260205f2090600602015f91509050805f015490806001015f9054906101000a900473ffffffffffffffffffffffffffffffffffffffff1690806002015490806003015490806004015f9054906101000a900460ff16908060050154905086565b5f611d70612368565b611daf576040517f08c379a0000000000000000000000000000000000000000000000000000000008152600401611da690614a43565b60405180910390fd5b5f611db861234e565b9050600d548114611dfe576040517f08c379a0000000000000000000000000000000000000000000000000000000008152600401611df590613cfb565b60405180910390fd5b600e548111611e42576040517f08c379a0000000000000000000000000000000000000000000000000000000008152600401611e39906144ba565b60405180910390fd5b5f611e4b6130cf565b90505f805f805f805f60048054905090505f805f90505f5b83811015611ff45760048181548110611e7f57611e7e614347565b5b905f5260205f2090600602016004015f9054906101000a900460ff1615611fe15760048181548110611eb457611eb3614347565b5b905f5260205f20906006020160050154925060058381548110611eda57611ed9614347565b5b905f5260205f209060060201600301548a611ef591906144d8565b99508a82604051602001611f0a929190614597565b60405160208183030381529060405280519060200120965060016008545f1c611f3391906144d8565b60058481548110611f4757611f46614347565b5b905f5260205f20906006020160030154611f61919061429e565b8a60085489165f1c611f73919061429e565b1015611fd25760058381548110611f8d57611f8c614347565b5b905f5260205f20906006020160040154955060058381548110611fb357611fb2614347565b5b905f5260205f2090600602016005015f9054906101000a900460ff1694505b8180611fdd906143dc565b9250505b8080611fec906143dc565b915050611e63565b505f90505f61200161318f565b90505f5b848110156121d2576004818154811061202157612020614347565b5b905f5260205f2090600602016005015493506004818154811061204757612046614347565b5b905f5260205f2090600602016004015f9054906101000a900460ff16801561209157506005848154811061207e5761207d614347565b5b905f5260205f2090600602016004015487145b80156120d15750600584815481106120ac576120ab614347565b5b905f5260205f2090600602016005015f9054906101000a900460ff1660ff168660ff16145b156121bf57600584815481106120ea576120e9614347565b5b905f5260205f209060060201600301548a61210591906144d8565b9950818360405160200161211a929190614597565b60405160208183030381529060405280519060200120975060016008545f1c61214391906144d8565b6005858154811061215757612156614347565b5b905f5260205f20906006020160030154612171919061429e565b8a6008548a165f1c612183919061429e565b10156121b0576005848154811061219d5761219c614347565b5b905f5260205f2090600602016001015498505b82806121bb906143dc565b9350505b80806121ca906143dc565b915050612005565b508d88149c50505050505050505050505050919050565b600d5481565b600581815481106121fe575f80fd5b905f5260205f2090600602015f91509050805f015f9054906101000a900473ffffffffffffffffffffffffffffffffffffffff1690806001015490806002015490806003015490806004015490806005015f9054906101000a900460ff16905086565b5f8061226b61234e565b90505f600a5490506001600d5461228291906144d8565b8211156122d3575f6001600d548461229a9190613fbf565b6122a49190613fbf565b905081816040516020016122b9929190614940565b604051602081830303815290604052805190602001209150505b809250505090565b6123057f65d7a28e3265b37a6474929f336521b332c1681b933f6cb9f3376673440d862a3361239b565b612344576040517f08c379a000000000000000000000000000000000000000000000000000000000815260040161233b90614aab565b60405180910390fd5b61234c61324f565b565b5f600f544361235d9190613e31565b905090565b600f5481565b5f6002600f546123789190613e31565b600f54436123869190613dd4565b106123945760019050612398565b5f90505b90565b5f805f8481526020019081526020015f205f015f8373ffffffffffffffffffffffffffffffffffffffff1673ffffffffffffffffffffffffffffffffffffffff1681526020019081526020015f205f9054906101000a900460ff16905092915050565b5f801b81565b5f61240d612368565b8061241c575061241b612c82565b5b61245b576040517f08c379a000000000000000000000000000000000000000000000000000000000815260040161245290614b39565b60405180910390fd5b600f54600261246a919061429e565b436124759190613fbf565b60035f9054906101000a900473ffffffffffffffffffffffffffffffffffffffff1673ffffffffffffffffffffffffffffffffffffffff1663ede41302856040518263ffffffff1660e01b81526004016124cf91906136a0565b602060405180830381865afa1580156124ea573d5f803e3d5ffd5b505050506040513d601f19601f8201168201806040525081019061250e9190614164565b1061254e576040517f08c379a000000000000000000000000000000000000000000000000000000000815260040161254590614ba1565b60405180910390fd5b600b5460035f9054906101000a900473ffffffffffffffffffffffffffffffffffffffff1673ffffffffffffffffffffffffffffffffffffffff166348962b93856040518263ffffffff1660e01b81526004016125ab91906136a0565b602060405180830381865afa1580156125c6573d5f803e3d5ffd5b505050506040513d601f19601f820116820180604052508101906125ea9190614164565b101561262b576040517f08c379a000000000000000000000000000000000000000000000000000000000815260040161262290614c2f565b60405180910390fd5b61263d83612637611c01565b84612e6a565b905092915050565b61264d611b41565b1561268d576040517f08c379a000000000000000000000000000000000000000000000000000000000815260040161268490613f39565b60405180910390fd5b612695610a0d565b6126d4576040517f08c379a00000000000000000000000000000000000000000000000000000000081526004016126cb90614c97565b60405180910390fd5b5f6126dd61234e565b9050600c548114612723576040517f08c379a000000000000000000000000000000000000000000000000000000000815260040161271a90614cff565b60405180910390fd5b600d54811461279257612734611c01565b60098190555060055f61274791906133f2565b80600d819055507ff0ae472da9c8da86bda4991a549c03a3cb328b5f360ea11a5b8814f32bb8517681600954604051612781929190614423565b60405180910390a16127916132f0565b5b5f61279f86868686612c4a565b90505f60048054905090505f5b81811015612bf95787600482815481106127c9576127c8614347565b5b905f5260205f2090600602015f01541480156128075750600481815481106127f4576127f3614347565b5b905f5260205f2090600602016003015483145b15612be65761283b6004828154811061282357612822614347565b5b905f5260205f2090600602015f015460095489612e6a565b61287a576040517f08c379a000000000000000000000000000000000000000000000000000000000815260040161287190614d8d565b60405180910390fd5b5f15156004828154811061289157612890614347565b5b905f5260205f2090600602016004015f9054906101000a900460ff161515146128ef576040517f08c379a00000000000000000000000000000000000000000000000000000000081526004016128e690614df5565b60405180910390fd5b60016004828154811061290557612904614347565b5b905f5260205f2090600602016004015f6101000a81548160ff0219169083151502179055506005805490506004828154811061294457612943614347565b5b905f5260205f2090600602016005018190555060056040518060c001604052806004848154811061297857612977614347565b5b905f5260205f2090600602016001015f9054906101000a900473ffffffffffffffffffffffffffffffffffffffff1673ffffffffffffffffffffffffffffffffffffffff168152602001600484815481106129d6576129d5614347565b5b905f5260205f2090600602015f01548152602001600484815481106129fe576129fd614347565b5b905f5260205f209060060201600201548152602001896002612a209190614714565b60048581548110612a3457612a33614347565b5b905f5260205f20906006020160020154612a4e919061429e565b81526020018881526020018960ff16815250908060018154018082558091505060019003905f5260205f2090600602015f909190919091505f820151815f015f6101000a81548173ffffffffffffffffffffffffffffffffffffffff021916908373ffffffffffffffffffffffffffffffffffffffff1602179055506020820151816001015560408201518160020155606082015181600301556080820151816004015560a0820151816005015f6101000a81548160ff021916908360ff1602179055505050612b1d85613323565b7f13fc17fd71632266fe82092de6dd91a06b4fa68d8dc950492e5421cbed55a6a58460048381548110612b5357612b52614347565b5b905f5260205f2090600602015f015460048481548110612b7657612b75614347565b5b905f5260205f209060060201600201548a6002612b939190614714565b60048681548110612ba757612ba6614347565b5b905f5260205f20906006020160020154612bc1919061429e565b8a8c604051612bd596959493929190614e13565b60405180910390a150505050612c3e565b8080612bf1906143dc565b9150506127ac565b505f612c3a576040517f08c379a0000000000000000000000000000000000000000000000000000000008152600401612c3190614ebc565b60405180910390fd5b5050505b50505050565b60075481565b5f84848484604051602001612c629493929190614f0e565b604051602081830303815290604052805190602001209050949350505050565b5f6004600f54612c929190613e31565b600f5443612ca09190613dd4565b1015612caf5760019050612cb3565b5f90505b90565b612ccf612cc283610800565b612cca612f14565b61239b565b612d0e576040517f08c379a0000000000000000000000000000000000000000000000000000000008152600401612d0590614fcb565b60405180910390fd5b612d188282612ff5565b5050565b612d285f801b3361239b565b612d67576040517f08c379a0000000000000000000000000000000000000000000000000000000008152600401612d5e90615033565b60405180910390fd5b81600681905550806007819055505050565b6010805f015f9054906101000a900473ffffffffffffffffffffffffffffffffffffffff1690806001015490806002015490806003015490806004015490806005015f9054906101000a900460ff16905086565b7f65d7a28e3265b37a6474929f336521b332c1681b933f6cb9f3376673440d862a81565b600b5481565b612e217f65d7a28e3265b37a6474929f336521b332c1681b933f6cb9f3376673440d862a3361239b565b612e60576040517f08c379a0000000000000000000000000000000000000000000000000000000008152600401612e579061509b565b60405180910390fd5b612e68613331565b565b5f808260ff1603612e7e5760019050612ea4565b8160ff16610100612e8f91906150c6565b6002612e9b91906150fb565b8385185f1c1090505b9392505050565b5f7f01ffc9a7000000000000000000000000000000000000000000000000000000007bffffffffffffffffffffffffffffffffffffffffffffffffffffffff1916827bffffffffffffffffffffffffffffffffffffffffffffffffffffffff1916149050919050565b5f33905090565b612f25828261239b565b612ff15760015f808481526020019081526020015f205f015f8373ffffffffffffffffffffffffffffffffffffffff1673ffffffffffffffffffffffffffffffffffffffff1681526020019081526020015f205f6101000a81548160ff021916908315150217905550612f96612f14565b73ffffffffffffffffffffffffffffffffffffffff168173ffffffffffffffffffffffffffffffffffffffff16837f2f8788117e7eff1d82e926ec794901d17c78024a50270940304540a733656f0d60405160405180910390a45b5050565b612fff828261239b565b156130cb575f805f8481526020019081526020015f205f015f8373ffffffffffffffffffffffffffffffffffffffff1673ffffffffffffffffffffffffffffffffffffffff1681526020019081526020015f205f6101000a81548160ff021916908315150217905550613070612f14565b73ffffffffffffffffffffffffffffffffffffffff168173ffffffffffffffffffffffffffffffffffffffff16837ff6391f5c32d9c69d2a47ea670b442974b53935d1edc7fd64eb21e047a839171b60405160405180910390a45b5050565b60606130d9612368565b613118576040517f08c379a000000000000000000000000000000000000000000000000000000000815260040161310f906151b5565b60405180910390fd5b5f61312161234e565b9050600d548114613167576040517f08c379a000000000000000000000000000000000000000000000000000000000815260040161315e90613cfb565b60405180910390fd5b600a5460405160200161317a919061521d565b60405160208183030381529060405291505090565b6060613199612368565b6131d8576040517f08c379a00000000000000000000000000000000000000000000000000000000081526004016131cf906151b5565b60405180910390fd5b5f6131e161234e565b9050600d548114613227576040517f08c379a000000000000000000000000000000000000000000000000000000000815260040161321e90613cfb565b60405180910390fd5b600a5460405160200161323a919061528c565b60405160208183030381529060405291505090565b613257611b41565b15613297576040517f08c379a000000000000000000000000000000000000000000000000000000000815260040161328e90613f39565b60405180910390fd5b6001805f6101000a81548160ff0219169083151502179055507f62e78cea01bee320cd4e420270b5ea74000d11b0c9f74754ebdbfc544b05a2586132d9612f14565b6040516132e69190614907565b60405180910390a1565b600a544460405160200161330592919061475e565b60405160208183030381529060405280519060200120600a81905550565b80600a5418600a8190555050565b613339611b41565b613378576040517f08c379a000000000000000000000000000000000000000000000000000000000815260040161336f906152fb565b60405180910390fd5b5f60015f6101000a81548160ff0219169083151502179055507f5db9ee0a495bf2e6ff9c91a7834c1ba4fdd244a5e8aa4e537bd38aeae4b073aa6133ba612f14565b6040516133c79190614907565b60405180910390a1565b5080545f8255600602905f5260205f20908101906133ef9190613413565b50565b5080545f8255600602905f5260205f2090810190613410919061347e565b50565b5b8082111561347a575f8082015f9055600182015f6101000a81549073ffffffffffffffffffffffffffffffffffffffff0219169055600282015f9055600382015f9055600482015f6101000a81549060ff0219169055600582015f905550600601613414565b5090565b5b808211156134e5575f8082015f6101000a81549073ffffffffffffffffffffffffffffffffffffffff0219169055600182015f9055600282015f9055600382015f9055600482015f9055600582015f6101000a81549060ff02191690555060060161347f565b5090565b5f80fd5b5f7fffffffff0000000000000000000000000000000000000000000000000000000082169050919050565b613521816134ed565b811461352b575f80fd5b50565b5f8135905061353c81613518565b92915050565b5f60208284031215613557576135566134e9565b5b5f6135648482850161352e565b91505092915050565b5f8115159050919050565b6135818161356d565b82525050565b5f60208201905061359a5f830184613578565b92915050565b5f73ffffffffffffffffffffffffffffffffffffffff82169050919050565b5f819050919050565b5f6135e26135dd6135d8846135a0565b6135bf565b6135a0565b9050919050565b5f6135f3826135c8565b9050919050565b5f613604826135e9565b9050919050565b613614816135fa565b82525050565b5f60208201905061362d5f83018461360b565b92915050565b5f819050919050565b61364581613633565b811461364f575f80fd5b50565b5f813590506136608161363c565b92915050565b5f6020828403121561367b5761367a6134e9565b5b5f61368884828501613652565b91505092915050565b61369a81613633565b82525050565b5f6020820190506136b35f830184613691565b92915050565b5f81519050919050565b5f82825260208201905092915050565b5f819050602082019050919050565b5f6136ec826135a0565b9050919050565b6136fc816136e2565b82525050565b61370b81613633565b82525050565b5f819050919050565b61372381613711565b82525050565b5f60ff82169050919050565b61373e81613729565b82525050565b60c082015f8201516137585f8501826136f3565b50602082015161376b6020850182613702565b50604082015161377e604085018261371a565b506060820151613791606085018261371a565b5060808201516137a46080850182613702565b5060a08201516137b760a0850182613735565b50505050565b5f6137c88383613744565b60c08301905092915050565b5f602082019050919050565b5f6137ea826136b9565b6137f481856136c3565b93506137ff836136d3565b805f5b8381101561382f57815161381688826137bd565b9750613821836137d4565b925050600181019050613802565b5085935050505092915050565b5f6020820190508181035f83015261385481846137e0565b905092915050565b613865816136e2565b811461386f575f80fd5b50565b5f813590506138808161385c565b92915050565b5f806040838503121561389c5761389b6134e9565b5b5f6138a985828601613652565b92505060206138ba85828601613872565b9150509250929050565b6138cd81613711565b81146138d7575f80fd5b50565b5f813590506138e8816138c4565b92915050565b5f805f60608486031215613905576139046134e9565b5b5f61391286828701613652565b935050602061392386828701613652565b9250506040613934868287016138da565b9150509250925092565b61394781613711565b82525050565b5f6020820190506139605f83018461393e565b92915050565b5f613970826135e9565b9050919050565b61398081613966565b82525050565b5f6020820190506139995f830184613977565b92915050565b5f6139a9826135e9565b9050919050565b6139b98161399f565b82525050565b5f6020820190506139d25f8301846139b0565b92915050565b5f602082840312156139ed576139ec6134e9565b5b5f6139fa848285016138da565b91505092915050565b613a0c816136e2565b82525050565b5f60c082019050613a255f830189613691565b613a326020830188613a03565b613a3f604083018761393e565b613a4c6060830186613691565b613a596080830185613578565b613a6660a083018461393e565b979650505050505050565b613a7a81613729565b82525050565b5f60c082019050613a935f830189613a03565b613aa06020830188613691565b613aad604083018761393e565b613aba606083018661393e565b613ac76080830185613691565b613ad460a0830184613a71565b979650505050505050565b613ae881613729565b8114613af2575f80fd5b50565b5f81359050613b0381613adf565b92915050565b5f8060408385031215613b1f57613b1e6134e9565b5b5f613b2c85828601613652565b9250506020613b3d85828601613af5565b9150509250929050565b5f805f8060808587031215613b5f57613b5e6134e9565b5b5f613b6c87828801613652565b9450506020613b7d87828801613af5565b9350506040613b8e87828801613652565b9250506060613b9f87828801613652565b91505092959194509250565b5f8060408385031215613bc157613bc06134e9565b5b5f613bce858286016138da565b9250506020613bdf858286016138da565b9150509250929050565b5f805f60608486031215613c0057613bff6134e9565b5b5f613c0d86828701613652565b9350506020613c1e86828701613652565b9250506040613c2f86828701613af5565b9150509250925092565b5f82825260208201905092915050565b7f6e6f7420696e20636c61696d20706861736500000000000000000000000000005f82015250565b5f613c7d601283613c39565b9150613c8882613c49565b602082019050919050565b5f6020820190508181035f830152613caa81613c71565b9050919050565b7f726f756e64207265636569766564206e6f2072657665616c73000000000000005f82015250565b5f613ce5601983613c39565b9150613cf082613cb1565b602082019050919050565b5f6020820190508181035f830152613d1281613cd9565b9050919050565b7f416363657373436f6e74726f6c3a2073656e646572206d75737420626520616e5f8201527f2061646d696e20746f206772616e740000000000000000000000000000000000602082015250565b5f613d73602f83613c39565b9150613d7e82613d19565b604082019050919050565b5f6020820190508181035f830152613da081613d67565b9050919050565b7f4e487b71000000000000000000000000000000000000000000000000000000005f52601260045260245ffd5b5f613dde82613711565b9150613de983613711565b925082613df957613df8613da7565b5b828206905092915050565b7f4e487b71000000000000000000000000000000000000000000000000000000005f52601160045260245ffd5b5f613e3b82613711565b9150613e4683613711565b925082613e5657613e55613da7565b5b828204905092915050565b7f416363657373436f6e74726f6c3a2063616e206f6e6c792072656e6f756e63655f8201527f20726f6c657320666f722073656c660000000000000000000000000000000000602082015250565b5f613ebb602f83613c39565b9150613ec682613e61565b604082019050919050565b5f6020820190508181035f830152613ee881613eaf565b9050919050565b7f5061757361626c653a20706175736564000000000000000000000000000000005f82015250565b5f613f23601083613c39565b9150613f2e82613eef565b602082019050919050565b5f6020820190508181035f830152613f5081613f17565b9050919050565b7f6e6f7420696e20636f6d6d6974207068617365000000000000000000000000005f82015250565b5f613f8b601383613c39565b9150613f9682613f57565b602082019050919050565b5f6020820190508181035f830152613fb881613f7f565b9050919050565b5f613fc982613711565b9150613fd483613711565b9250828203905081811115613fec57613feb613e04565b5b92915050565b7f63616e206e6f7420636f6d6d697420696e206c61737420626c6f636b206f66205f8201527f7068617365000000000000000000000000000000000000000000000000000000602082015250565b5f61404c602583613c39565b915061405782613ff2565b604082019050919050565b5f6020820190508181035f83015261407981614040565b9050919050565b7f636f6d6d697420726f756e64206f7665720000000000000000000000000000005f82015250565b5f6140b4601183613c39565b91506140bf82614080565b602082019050919050565b5f6020820190508181035f8301526140e1816140a8565b9050919050565b7f636f6d6d697420726f756e64206e6f74207374617274656420796574000000005f82015250565b5f61411c601c83613c39565b9150614127826140e8565b602082019050919050565b5f6020820190508181035f83015261414981614110565b9050919050565b5f8151905061415e816138c4565b92915050565b5f60208284031215614179576141786134e9565b5b5f61418684828501614150565b91505092915050565b7f7374616b65206d75737420657863656564206d696e696d756d000000000000005f82015250565b5f6141c3601983613c39565b91506141ce8261418f565b602082019050919050565b5f6020820190508181035f8301526141f0816141b7565b9050919050565b5f815190506142058161385c565b92915050565b5f602082840312156142205761421f6134e9565b5b5f61422d848285016141f7565b91505092915050565b7f6f776e6572206d757374206d617463682073656e6465720000000000000000005f82015250565b5f61426a601783613c39565b915061427582614236565b602082019050919050565b5f6020820190508181035f8301526142978161425e565b9050919050565b5f6142a882613711565b91506142b383613711565b92508282026142c181613711565b915082820484148315176142d8576142d7613e04565b5b5092915050565b7f6d7573742068617665207374616b6564203220726f756e6473207072696f72005f82015250565b5f614313601f83613c39565b915061431e826142df565b602082019050919050565b5f6020820190508181035f83015261434081614307565b9050919050565b7f4e487b71000000000000000000000000000000000000000000000000000000005f52603260045260245ffd5b7f6f6e6c79206f6e6520636f6d6d697420656163682070657220726f756e6400005f82015250565b5f6143a8601e83613c39565b91506143b382614374565b602082019050919050565b5f6020820190508181035f8301526143d58161439c565b9050919050565b5f6143e682613711565b91507fffffffffffffffffffffffffffffffffffffffffffffffffffffffffffffffff820361441857614417613e04565b5b600182019050919050565b5f6040820190506144365f83018561393e565b6144436020830184613691565b9392505050565b7f726f756e6420616c7265616479207265636569766564207375636365737366755f8201527f6c20636c61696d00000000000000000000000000000000000000000000000000602082015250565b5f6144a4602783613c39565b91506144af8261444a565b604082019050919050565b5f6020820190508181035f8301526144d181614498565b9050919050565b5f6144e282613711565b91506144ed83613711565b925082820190508082111561450557614504613e04565b5b92915050565b5f81519050919050565b5f81905092915050565b5f5b8381101561453c578082015181840152602081019050614521565b5f8484015250505050565b5f6145518261450b565b61455b8185614515565b935061456b81856020860161451f565b80840191505092915050565b5f819050919050565b61459161458c82613711565b614577565b82525050565b5f6145a28285614547565b91506145ae8284614580565b6020820191508190509392505050565b5f6040820190506145d15f830185613691565b6145de6020830184613a71565b9392505050565b5f8160011c9050919050565b5f808291508390505b600185111561463a5780860481111561461657614615613e04565b5b60018516156146255780820291505b8081029050614633856145e5565b94506145fa565b94509492505050565b5f82614652576001905061470d565b8161465f575f905061470d565b8160018114614675576002811461467f576146ae565b600191505061470d565b60ff84111561469157614690613e04565b5b8360020a9150848211156146a8576146a7613e04565b5b5061470d565b5060208310610133831016604e8410600b84101617156146e35782820a9050838111156146de576146dd613e04565b5b61470d565b6146f084848460016145f1565b9250905081840481111561470757614706613e04565b5b81810290505b9392505050565b5f61471e82613711565b915061472983613729565b92506147567fffffffffffffffffffffffffffffffffffffffffffffffffffffffffffffffff8484614643565b905092915050565b5f6040820190506147715f830185613691565b61477e602083018461393e565b9392505050565b5f815f1c9050919050565b5f73ffffffffffffffffffffffffffffffffffffffff82169050919050565b5f6147c16147bc83614785565b614790565b9050919050565b5f819050919050565b5f6147e36147de83614785565b6147c8565b9050919050565b5f819050919050565b5f61480561480083614785565b6147ea565b9050919050565b5f60ff82169050919050565b5f61482a61482583614785565b61480c565b9050919050565b60c082015f808301549050614845816147af565b6148515f8601826136f3565b5060018301549050614862816147d1565b61486f6020860182613702565b5060028301549050614880816147f3565b61488d604086018261371a565b506003830154905061489e816147f3565b6148ab606086018261371a565b50600483015490506148bc816147d1565b6148c96080860182613702565b50600583015490506148da81614818565b6148e760a0860182613735565b5050505050565b5f60c0820190506149015f830184614831565b92915050565b5f60208201905061491a5f830184613a03565b92915050565b5f819050919050565b61493a61493582613633565b614920565b82525050565b5f61494b8285614929565b60208201915061495b8284614580565b6020820191508190509392505050565b7f63616e27742072657475726e2076616c756520616674657220666972737420725f8201527f657665616c000000000000000000000000000000000000000000000000000000602082015250565b5f6149c5602583613c39565b91506149d08261496b565b604082019050919050565b5f6020820190508181035f8301526149f2816149b9565b9050919050565b7f77696e6e6572206e6f742064657465726d696e656420796574000000000000005f82015250565b5f614a2d601983613c39565b9150614a38826149f9565b602082019050919050565b5f6020820190508181035f830152614a5a81614a21565b9050919050565b7f6f6e6c79207061757365722063616e20706175736500000000000000000000005f82015250565b5f614a95601583613c39565b9150614aa082614a61565b602082019050919050565b5f6020820190508181035f830152614ac281614a89565b9050919050565b7f6e6f742064657465726d696e656420666f72207570636f6d696e6720726f756e5f8201527f6420796574000000000000000000000000000000000000000000000000000000602082015250565b5f614b23602583613c39565b9150614b2e82614ac9565b604082019050919050565b5f6020820190508181035f830152614b5081614b17565b9050919050565b7f7374616b65207570646174656420726563656e746c79000000000000000000005f82015250565b5f614b8b601683613c39565b9150614b9682614b57565b602082019050919050565b5f6020820190508181035f830152614bb881614b7f565b9050919050565b7f7374616b6520616d6f756e7420646f6573206e6f74206d656574206d696e696d5f8201527f756d000000000000000000000000000000000000000000000000000000000000602082015250565b5f614c19602283613c39565b9150614c2482614bbf565b604082019050919050565b5f6020820190508181035f830152614c4681614c0d565b9050919050565b7f6e6f7420696e2072657665616c207068617365000000000000000000000000005f82015250565b5f614c81601383613c39565b9150614c8c82614c4d565b602082019050919050565b5f6020820190508181035f830152614cae81614c75565b9050919050565b7f726f756e64207265636569766564206e6f20636f6d6d697473000000000000005f82015250565b5f614ce9601983613c39565b9150614cf482614cb5565b602082019050919050565b5f6020820190508181035f830152614d1681614cdd565b9050919050565b7f616e63686f72206f7574206f662073656c66207265706f7274656420646570745f8201527f6800000000000000000000000000000000000000000000000000000000000000602082015250565b5f614d77602183613c39565b9150614d8282614d1d565b604082019050919050565b5f6020820190508181035f830152614da481614d6b565b9050919050565b7f7061727469636970616e7420616c72656164792072657665616c6564000000005f82015250565b5f614ddf601c83613c39565b9150614dea82614dab565b602082019050919050565b5f6020820190508181035f830152614e0c81614dd3565b9050919050565b5f60c082019050614e265f83018961393e565b614e336020830188613691565b614e40604083018761393e565b614e4d606083018661393e565b614e5a6080830185613691565b614e6760a0830184613a71565b979650505050505050565b7f6e6f206d61746368696e6720636f6d6d6974206f7220686173680000000000005f82015250565b5f614ea6601a83613c39565b9150614eb182614e72565b602082019050919050565b5f6020820190508181035f830152614ed381614e9a565b9050919050565b5f8160f81b9050919050565b5f614ef082614eda565b9050919050565b614f08614f0382613729565b614ee6565b82525050565b5f614f198287614929565b602082019150614f298286614ef7565b600182019150614f398285614929565b602082019150614f498284614929565b60208201915081905095945050505050565b7f416363657373436f6e74726f6c3a2073656e646572206d75737420626520616e5f8201527f2061646d696e20746f207265766f6b6500000000000000000000000000000000602082015250565b5f614fb5603083613c39565b9150614fc082614f5b565b604082019050919050565b5f6020820190508181035f830152614fe281614fa9565b9050919050565b7f63616c6c6572206973206e6f74207468652061646d696e0000000000000000005f82015250565b5f61501d601783613c39565b915061502882614fe9565b602082019050919050565b5f6020820190508181035f83015261504a81615011565b9050919050565b7f6f6e6c79207061757365722063616e20756e70617573650000000000000000005f82015250565b5f615085601783613c39565b915061509082615051565b602082019050919050565b5f6020820190508181035f8301526150b281615079565b9050919050565b5f61ffff82169050919050565b5f6150d0826150b9565b91506150db836150b9565b9250828203905061ffff8111156150f5576150f4613e04565b5b92915050565b5f61510582613711565b9150615110836150b9565b925061513d7fffffffffffffffffffffffffffffffffffffffffffffffffffffffffffffffff8484614643565b905092915050565b7f6e6f742064657465726d696e656420666f722063757272656e7420726f756e645f8201527f2079657400000000000000000000000000000000000000000000000000000000602082015250565b5f61519f602483613c39565b91506151aa82615145565b604082019050919050565b5f6020820190508181035f8301526151cc81615193565b9050919050565b7f30000000000000000000000000000000000000000000000000000000000000005f82015250565b5f615207600183614515565b9150615212826151d3565b600182019050919050565b5f6152288284614929565b602082019150615237826151fb565b915081905092915050565b7f31000000000000000000000000000000000000000000000000000000000000005f82015250565b5f615276600183614515565b915061528182615242565b600182019050919050565b5f6152978284614929565b6020820191506152a68261526a565b915081905092915050565b7f5061757361626c653a206e6f74207061757365640000000000000000000000005f82015250565b5f6152e5601483613c39565b91506152f0826152b1565b602082019050919050565b5f6020820190508181035f830152615312816152d9565b905091905056fea26469706673582212201b1b51cc2943d494b053a5ec8a138becdc993bc733f4c057825cfc45c7808ca664736f6c63430008150033",
  "immutableReferences": {},
  "source": "// SPDX-License-Identifier: BSD-3-Clause\npragma solidity ^0.8.1;\nimport \"./@openzeppelin/contracts/access/AccessControl.sol\";\nimport \"./@openzeppelin/contracts/security/Pausable.sol\";\nimport \"./PostageStamp.sol\";\nimport \"./PriceOracle.sol\";\nimport \"./Staking.sol\";\n\n/**\n * @title Redistribution contract\n * @author The Swarm Authors\n * @dev Implements a Schelling Co-ordination game to form consensus around the Reserve Commitment hash. This takes\n * place in three phases: _commit_, _reveal_ and _claim_.\n *\n * A node, upon establishing that it _isParticipatingInUpcomingRound_, i.e. it's overlay falls within proximity order\n * of its reported depth with the _currentRoundAnchor_, prepares a \"reserve commitment hash\" using the chunks\n * it currently stores in its reserve and calculates the \"storage depth\" (see Bee for details). These values, if calculated\n * honestly, and with the right chunks stored, should be the same for every node in a neighbourhood. This is the Schelling point.\n * Each eligible node can then use these values, together with a random, single use, secret  _revealNonce_ and their\n * _overlay_ as the pre-image values for the obsfucated _commit_, using the _wrapCommit_ method.\n *\n * Once the _commit_ round has elapsed, participating nodes must provide the values used to calculate their obsfucated\n * _commit_ hash, which, once verified for correctness and proximity to the anchor are retained in the _currentReveals_.\n * Nodes that have commited but do not reveal the correct values used to create the pre-image will have their stake\n * \"frozen\" for a period of rounds proportional to their reported depth.\n *\n * During the _reveal_ round, randomness is updated after every successful reveal. Once the reveal round is concluded,\n * the _currentRoundAnchor_ is updated and users can determine if they will be eligible their overlay will be eligible\n * for the next commit phase using _isParticipatingInUpcomingRound_.\n *\n * When the _reveal_ phase has been concluded, the claim phase can begin. At this point, the truth teller and winner\n * are already determined. By calling _isWinner_, an applicant node can run the relevant logic to determine if they have\n * been selected as the beneficiary of this round. When calling _claim_, the current pot from the PostageStamp contract\n * is withdrawn and transferred to that beneficiaries address. Nodes that have revealed values that differ from the truth,\n * have their stakes \"frozen\" for a period of rounds proportional to their reported depth.\n */\ncontract Redistribution is AccessControl, Pausable {\n    // An eligible user may commit to an _obfuscatedHash_ during the commit phase...\n    struct Commit {\n        bytes32 overlay;\n        address owner;\n        uint256 stake;\n        bytes32 obfuscatedHash;\n        bool revealed;\n        uint256 revealIndex;\n    }\n    // ...then provide the actual values that are the constituents of the pre-image of the _obfuscatedHash_\n    // during the reveal phase.\n    struct Reveal {\n        address owner;\n        bytes32 overlay;\n        uint256 stake;\n        uint256 stakeDensity;\n        bytes32 hash;\n        uint8 depth;\n    }\n\n    // The address of the linked PostageStamp contract.\n    PostageStamp public PostageContract;\n    // The address of the linked PriceOracle contract.\n    PriceOracle public OracleContract;\n    // The address of the linked Staking contract.\n    StakeRegistry public Stakes;\n\n    // Commits for the current round.\n    Commit[] public currentCommits;\n    // Reveals for the current round.\n    Reveal[] public currentReveals;\n\n    // Role allowed to pause.\n    bytes32 public constant PAUSER_ROLE = keccak256(\"PAUSER_ROLE\");\n\n    uint256 public penaltyMultiplierDisagreement = 1;\n    uint256 public penaltyMultiplierNonRevealed = 2;\n\n    // Maximum value of the keccack256 hash.\n    bytes32 MaxH = bytes32(0x00000000000000000000000000000000ffffffffffffffffffffffffffffffff);\n\n    // The current anchor that being processed for the reveal and claim phases of the round.\n    bytes32 currentRevealRoundAnchor;\n\n    // The current random value from which we will random.\n    // inputs for selection of the truth teller and beneficiary.\n    bytes32 seed;\n\n    // The miniumum stake allowed to be staked using the Staking contract.\n    uint256 public minimumStake = 100000000000000000;\n\n    // The number of the currently active round phases.\n    uint256 public currentCommitRound;\n    uint256 public currentRevealRound;\n    uint256 public currentClaimRound;\n\n    // The length of a round in blocks.\n    uint256 public roundLength = 152;\n\n    // The reveal of the winner of the last round.\n    Reveal public winner;\n\n    /**\n    * @dev Pause the contract. The contract is provably stopped by renouncing\n     the pauser role and the admin role after pausing, can only be called by the `PAUSER`\n     */\n    function pause() public {\n        require(hasRole(PAUSER_ROLE, msg.sender), \"only pauser can pause\");\n        _pause();\n    }\n\n    /**\n     * @dev Unpause the contract, can only be called by the pauser when paused\n     */\n    function unPause() public {\n        require(hasRole(PAUSER_ROLE, msg.sender), \"only pauser can unpause\");\n        _unpause();\n    }\n\n    /**\n     * @param staking the address of the linked Staking contract.\n     * @param postageContract the address of the linked PostageStamp contract.\n     * @param oracleContract the address of the linked PriceOracle contract.\n     */\n    constructor(address staking, address postageContract, address oracleContract) {\n        Stakes = StakeRegistry(staking);\n        PostageContract = PostageStamp(postageContract);\n        OracleContract = PriceOracle(oracleContract);\n        _setupRole(DEFAULT_ADMIN_ROLE, msg.sender);\n        _setupRole(PAUSER_ROLE, msg.sender);\n    }\n\n    /**\n     * @dev Emitted when the winner of a round is selected in the claim phase\n     */\n    event WinnerSelected(Reveal winner);\n\n    /**\n     * @dev Emitted when the truth oracle of a round is selected in the claim phase.\n     */\n    event TruthSelected(bytes32 hash, uint8 depth);\n\n    // Next two events to be removed after testing phase pending some other usefulness being found.\n    /**\n     * @dev Emits the number of commits being processed by the claim phase.\n     */\n    event CountCommits(uint256 _count);\n\n    /**\n     * @dev Emits the number of reveals being processed by the claim phase.\n     */\n    event CountReveals(uint256 _count);\n\n    /**\n     * @dev Logs that an overlay has committed\n     */\n    event Committed(uint256 roundNumber, bytes32 overlay);\n    /**\n     * @dev Emit from Postagestamp contract valid chunk count at the end of claim\n     */\n    event ChunkCount(uint256 validChunkCount);\n\n    /**\n     * @dev Bytes32 anhor of current reveal round\n     */\n    event CurrentRevealAnchor(uint256 roundNumber, bytes32 anchor);\n\n    /**\n     * @dev Logs that an overlay has revealed\n     */\n    event Revealed(\n        uint256 roundNumber,\n        bytes32 overlay,\n        uint256 stake,\n        uint256 stakeDensity,\n        bytes32 reserveCommitment,\n        uint8 depth\n    );\n\n    /**\n     * @notice Set freezing parameters\n     */\n    function setFreezingParams(uint256 _penaltyMultiplierDisagreement, uint256 _penaltyMultiplierNonRevealed) external {\n        require(hasRole(DEFAULT_ADMIN_ROLE, msg.sender), \"caller is not the admin\");\n        penaltyMultiplierDisagreement = _penaltyMultiplierDisagreement;\n        penaltyMultiplierNonRevealed = _penaltyMultiplierNonRevealed;\n    }\n\n    /**\n     * @notice The number of the current round.\n     */\n    function currentRound() public view returns (uint256) {\n        return (block.number / roundLength);\n    }\n\n    /**\n     * @notice Returns true if current block is during commit phase.\n     */\n    function currentPhaseCommit() public view returns (bool) {\n        if (block.number % roundLength < roundLength / 4) {\n            return true;\n        }\n        return false;\n    }\n\n    /**\n     * @notice Returns true if current block is during reveal phase.\n     */\n    function currentPhaseReveal() public view returns (bool) {\n        uint256 number = block.number % roundLength;\n        if (number >= roundLength / 4 && number < roundLength / 2) {\n            return true;\n        }\n        return false;\n    }\n\n    /**\n     * @notice Returns true if current block is during claim phase.\n     */\n    function currentPhaseClaim() public view returns (bool) {\n        if (block.number % roundLength >= roundLength / 2) {\n            return true;\n        }\n        return false;\n    }\n\n    /**\n     * @notice Returns true if current block is during reveal phase.\n     */\n    function currentRoundReveals() public view returns (Reveal[] memory) {\n        require(currentPhaseClaim(), \"not in claim phase\");\n        uint256 cr = currentRound();\n        require(cr == currentRevealRound, \"round received no reveals\");\n        return currentReveals;\n    }\n\n    /**\n     * @notice Begin application for a round if eligible. Commit a hashed value for which the pre-image will be\n     * subsequently revealed.\n     * @dev If a node's overlay is _inProximity_(_depth_) of the _currentRoundAnchor_, that node may compute an\n     * _obfuscatedHash_ by providing their _overlay_, reported storage _depth_, reserve commitment _hash_ and a\n     * randomly generated, and secret _revealNonce_ to the _wrapCommit_ method.\n     * @param _obfuscatedHash The calculated hash resultant of the required pre-image values.\n     * @param _overlay The overlay referenced in the pre-image. Must be staked by at least the minimum value,\n     * and be derived from the same key pair as the message sender.\n     */\n    function commit(bytes32 _obfuscatedHash, bytes32 _overlay, uint256 _roundNumber) external whenNotPaused {\n        require(currentPhaseCommit(), \"not in commit phase\");\n        require(block.number % roundLength != (roundLength / 4) - 1, \"can not commit in last block of phase\");\n        uint256 cr = currentRound();\n        require(cr <= _roundNumber, \"commit round over\");\n        require(cr >= _roundNumber, \"commit round not started yet\");\n\n        uint256 nstake = Stakes.stakeOfOverlay(_overlay);\n        require(nstake >= minimumStake, \"stake must exceed minimum\");\n        require(Stakes.ownerOfOverlay(_overlay) == msg.sender, \"owner must match sender\");\n\n        require(\n            Stakes.lastUpdatedBlockNumberOfOverlay(_overlay) < block.number - 2 * roundLength,\n            \"must have staked 2 rounds prior\"\n        );\n\n        // if we are in a new commit phase, reset the array of commits and\n        // set the currentCommitRound to be the current one\n        if (cr != currentCommitRound) {\n            delete currentCommits;\n            currentCommitRound = cr;\n        }\n\n        uint256 commitsArrayLength = currentCommits.length;\n\n        for (uint256 i = 0; i < commitsArrayLength; i++) {\n            require(currentCommits[i].overlay != _overlay, \"only one commit each per round\");\n        }\n\n        currentCommits.push(\n            Commit({\n                owner: msg.sender,\n                overlay: _overlay,\n                stake: nstake,\n                obfuscatedHash: _obfuscatedHash,\n                revealed: false,\n                revealIndex: 0\n            })\n        );\n\n        emit Committed(_roundNumber, _overlay);\n    }\n\n    /**\n     * @notice Returns the current random seed which is used to determine later utilised random numbers.\n     * If rounds have elapsed without reveals, hash the seed with an incremented nonce to produce a new\n     * random seed and hence a new round anchor.\n     */\n    function currentSeed() public view returns (bytes32) {\n        uint256 cr = currentRound();\n        bytes32 currentSeedValue = seed;\n\n        if (cr > currentRevealRound + 1) {\n            uint256 difference = cr - currentRevealRound - 1;\n            currentSeedValue = keccak256(abi.encodePacked(currentSeedValue, difference));\n        }\n\n        return currentSeedValue;\n    }\n\n    /**\n     * @notice Returns the seed which will become current once the next commit phase begins.\n     * Used to determine what the next round's anchor will be.\n     */\n    function nextSeed() public view returns (bytes32) {\n        uint256 cr = currentRound() + 1;\n        bytes32 currentSeedValue = seed;\n\n        if (cr > currentRevealRound + 1) {\n            uint256 difference = cr - currentRevealRound - 1;\n            currentSeedValue = keccak256(abi.encodePacked(currentSeedValue, difference));\n        }\n\n        return currentSeedValue;\n    }\n\n    /**\n     * @notice Updates the source of randomness. Uses block.difficulty in pre-merge chains, this is substituted\n     * to block.prevrandao in post merge chains.\n     */\n    function updateRandomness() private {\n        seed = keccak256(abi.encode(seed, block.difficulty));\n    }\n\n    function nonceBasedRandomness(bytes32 nonce) private {\n        seed = seed ^ nonce;\n    }\n\n    /**\n     * @notice Returns true if an overlay address _A_ is within proximity order _minimum_ of _B_.\n     * @param A An overlay address to compare.\n     * @param B An overlay address to compare.\n     * @param minimum Minimum proximity order.\n     */\n    function inProximity(bytes32 A, bytes32 B, uint8 minimum) public pure returns (bool) {\n        if (minimum == 0) {\n            return true;\n        }\n        return uint256(A ^ B) < uint256(2 ** (256 - minimum));\n    }\n\n    /**\n     * @notice Hash the pre-image values to the obsfucated hash.\n     * @dev _revealNonce_ must be randomly generated, used once and kept secret until the reveal phase.\n     * @param _overlay The overlay address of the applicant.\n     * @param _depth The reported depth.\n     * @param _hash The reserve commitment hash.\n     * @param revealNonce A random, single use, secret nonce.\n     */\n    function wrapCommit(\n        bytes32 _overlay,\n        uint8 _depth,\n        bytes32 _hash,\n        bytes32 revealNonce\n    ) public pure returns (bytes32) {\n        return keccak256(abi.encodePacked(_overlay, _depth, _hash, revealNonce));\n    }\n\n    /**\n     * @notice Reveal the pre-image values used to generate commit provided during this round's commit phase.\n     * @param _overlay The overlay address of the applicant.\n     * @param _depth The reported depth.\n     * @param _hash The reserve commitment hash.\n     * @param _revealNonce The nonce used to generate the commit that is being revealed.\n     */\n    function reveal(bytes32 _overlay, uint8 _depth, bytes32 _hash, bytes32 _revealNonce) external whenNotPaused {\n        require(currentPhaseReveal(), \"not in reveal phase\");\n\n        uint256 cr = currentRound();\n\n        require(cr == currentCommitRound, \"round received no commits\");\n        if (cr != currentRevealRound) {\n            currentRevealRoundAnchor = currentRoundAnchor();\n            delete currentReveals;\n            currentRevealRound = cr;\n            emit CurrentRevealAnchor(cr, currentRevealRoundAnchor);\n            updateRandomness();\n        }\n\n        bytes32 commitHash = wrapCommit(_overlay, _depth, _hash, _revealNonce);\n\n        uint256 commitsArrayLength = currentCommits.length;\n\n        for (uint256 i = 0; i < commitsArrayLength; i++) {\n            if (currentCommits[i].overlay == _overlay && commitHash == currentCommits[i].obfuscatedHash) {\n                require(\n                    inProximity(currentCommits[i].overlay, currentRevealRoundAnchor, _depth),\n                    \"anchor out of self reported depth\"\n                );\n                //check can only revealed once\n                require(currentCommits[i].revealed == false, \"participant already revealed\");\n                currentCommits[i].revealed = true;\n                currentCommits[i].revealIndex = currentReveals.length;\n\n                currentReveals.push(\n                    Reveal({\n                        owner: currentCommits[i].owner,\n                        overlay: currentCommits[i].overlay,\n                        stake: currentCommits[i].stake,\n                        stakeDensity: currentCommits[i].stake * uint256(2 ** _depth),\n                        hash: _hash,\n                        depth: _depth\n                    })\n                );\n\n                nonceBasedRandomness(_revealNonce);\n\n                emit Revealed(\n                    cr,\n                    currentCommits[i].overlay,\n                    currentCommits[i].stake,\n                    currentCommits[i].stake * uint256(2 ** _depth),\n                    _hash,\n                    _depth\n                );\n\n                return;\n            }\n        }\n\n        require(false, \"no matching commit or hash\");\n    }\n\n    /**\n     * @notice Determine if a the owner of a given overlay will be the beneficiary of the claim phase.\n     * @param _overlay The overlay address of the applicant.\n     */\n    function isWinner(bytes32 _overlay) public view returns (bool) {\n        require(currentPhaseClaim(), \"winner not determined yet\");\n\n        uint256 cr = currentRound();\n\n        require(cr == currentRevealRound, \"round received no reveals\");\n        require(cr > currentClaimRound, \"round already received successful claim\");\n\n        string memory truthSelectionAnchor = currentTruthSelectionAnchor();\n\n        uint256 currentSum;\n        uint256 currentWinnerSelectionSum;\n        bytes32 winnerIs;\n        bytes32 randomNumber;\n\n        bytes32 truthRevealedHash;\n        uint8 truthRevealedDepth;\n\n        uint256 commitsArrayLength = currentCommits.length;\n\n        uint256 revIndex;\n        uint256 k = 0;\n\n        for (uint256 i = 0; i < commitsArrayLength; i++) {\n            if (currentCommits[i].revealed) {\n                revIndex = currentCommits[i].revealIndex;\n                currentSum += currentReveals[revIndex].stakeDensity;\n                randomNumber = keccak256(abi.encodePacked(truthSelectionAnchor, k));\n\n                if (\n                    uint256(randomNumber & MaxH) * currentSum <\n                    currentReveals[revIndex].stakeDensity * (uint256(MaxH) + 1)\n                ) {\n                    truthRevealedHash = currentReveals[revIndex].hash;\n                    truthRevealedDepth = currentReveals[revIndex].depth;\n                }\n\n                k++;\n            }\n        }\n\n        k = 0;\n\n        string memory winnerSelectionAnchor = currentWinnerSelectionAnchor();\n\n        for (uint256 i = 0; i < commitsArrayLength; i++) {\n            revIndex = currentCommits[i].revealIndex;\n            if (\n                currentCommits[i].revealed &&\n                truthRevealedHash == currentReveals[revIndex].hash &&\n                truthRevealedDepth == currentReveals[revIndex].depth\n            ) {\n                currentWinnerSelectionSum += currentReveals[revIndex].stakeDensity;\n                randomNumber = keccak256(abi.encodePacked(winnerSelectionAnchor, k));\n\n                if (\n                    uint256(randomNumber & MaxH) * currentWinnerSelectionSum <\n                    currentReveals[revIndex].stakeDensity * (uint256(MaxH) + 1)\n                ) {\n                    winnerIs = currentReveals[revIndex].overlay;\n                }\n\n                k++;\n            }\n        }\n\n        return (winnerIs == _overlay);\n    }\n\n    /**\n     * @notice Determine if a the owner of a given overlay can participate in the upcoming round.\n     * @param overlay The overlay address of the applicant.\n     * @param depth The storage depth the applicant intends to report.\n     */\n    function isParticipatingInUpcomingRound(bytes32 overlay, uint8 depth) public view returns (bool) {\n        require(currentPhaseClaim() || currentPhaseCommit(), \"not determined for upcoming round yet\");\n        require(\n            Stakes.lastUpdatedBlockNumberOfOverlay(overlay) < block.number - 2 * roundLength,\n            \"stake updated recently\"\n        );\n        require(Stakes.stakeOfOverlay(overlay) >= minimumStake, \"stake amount does not meet minimum\");\n        return inProximity(overlay, currentRoundAnchor(), depth);\n    }\n\n    /**\n     * @notice The random value used to choose the selected truth teller.\n     */\n    function currentTruthSelectionAnchor() private view returns (string memory) {\n        require(currentPhaseClaim(), \"not determined for current round yet\");\n        uint256 cr = currentRound();\n        require(cr == currentRevealRound, \"round received no reveals\");\n\n        return string(abi.encodePacked(seed, \"0\"));\n    }\n\n    /**\n     * @notice The random value used to choose the selected beneficiary.\n     */\n    function currentWinnerSelectionAnchor() private view returns (string memory) {\n        require(currentPhaseClaim(), \"not determined for current round yet\");\n        uint256 cr = currentRound();\n        require(cr == currentRevealRound, \"round received no reveals\");\n\n        return string(abi.encodePacked(seed, \"1\"));\n    }\n\n    /**\n     * @notice The anchor used to determine eligibility for the current round.\n     * @dev A node must be within proximity order of less than or equal to the storage depth they intend to report.\n     */\n    function currentRoundAnchor() public view returns (bytes32 returnVal) {\n        uint256 cr = currentRound();\n\n        if (currentPhaseCommit() || (cr > currentRevealRound && !currentPhaseClaim())) {\n            return currentSeed();\n        }\n\n        if (currentPhaseReveal() && cr == currentRevealRound) {\n            require(false, \"can't return value after first reveal\");\n        }\n\n        if (currentPhaseClaim()) {\n            return nextSeed();\n        }\n    }\n\n    /**\n     * @notice Conclude the current round by identifying the selected truth teller and beneficiary.\n     * @dev\n     */\n    function claim() external whenNotPaused {\n        require(currentPhaseClaim(), \"not in claim phase\");\n\n        uint256 cr = currentRound();\n\n        require(cr == currentRevealRound, \"round received no reveals\");\n        require(cr > currentClaimRound, \"round already received successful claim\");\n\n        string memory truthSelectionAnchor = currentTruthSelectionAnchor();\n\n        uint256 currentSum;\n        uint256 currentWinnerSelectionSum;\n        bytes32 randomNumber;\n        uint256 randomNumberTrunc;\n\n        bytes32 truthRevealedHash;\n        uint8 truthRevealedDepth;\n\n        uint256 commitsArrayLength = currentCommits.length;\n        uint256 revealsArrayLength = currentReveals.length;\n\n        emit CountCommits(commitsArrayLength);\n        emit CountReveals(revealsArrayLength);\n\n        uint256 revIndex;\n        uint256 k = 0;\n\n        for (uint256 i = 0; i < commitsArrayLength; i++) {\n            if (currentCommits[i].revealed) {\n                revIndex = currentCommits[i].revealIndex;\n                currentSum += currentReveals[revIndex].stakeDensity;\n                randomNumber = keccak256(abi.encodePacked(truthSelectionAnchor, k));\n\n                randomNumberTrunc = uint256(randomNumber & MaxH);\n\n                // question is whether randomNumber / MaxH < probability\n                // where probability is stakeDensity / currentSum\n                // to avoid resorting to floating points all divisions should be\n                // simplified with multiplying both sides (as long as divisor > 0)\n                // randomNumber / (MaxH + 1) < stakeDensity / currentSum\n                // ( randomNumber / (MaxH + 1) ) * currentSum < stakeDensity\n                // randomNumber * currentSum < stakeDensity * (MaxH + 1)\n                if (randomNumberTrunc * currentSum < currentReveals[revIndex].stakeDensity * (uint256(MaxH) + 1)) {\n                    truthRevealedHash = currentReveals[revIndex].hash;\n                    truthRevealedDepth = currentReveals[revIndex].depth;\n                }\n\n                k++;\n            }\n        }\n\n        emit TruthSelected(truthRevealedHash, truthRevealedDepth);\n\n        k = 0;\n\n        string memory winnerSelectionAnchor = currentWinnerSelectionAnchor();\n\n        for (uint256 i = 0; i < commitsArrayLength; i++) {\n            revIndex = currentCommits[i].revealIndex;\n            if (currentCommits[i].revealed) {\n                if (\n                    truthRevealedHash == currentReveals[revIndex].hash &&\n                    truthRevealedDepth == currentReveals[revIndex].depth\n                ) {\n                    currentWinnerSelectionSum += currentReveals[revIndex].stakeDensity;\n                    randomNumber = keccak256(abi.encodePacked(winnerSelectionAnchor, k));\n\n                    randomNumberTrunc = uint256(randomNumber & MaxH);\n\n                    if (\n                        randomNumberTrunc * currentWinnerSelectionSum <\n                        currentReveals[revIndex].stakeDensity * (uint256(MaxH) + 1)\n                    ) {\n                        winner = currentReveals[revIndex];\n                    }\n\n                    k++;\n                } else {\n                    Stakes.freezeDeposit(\n                        currentReveals[revIndex].overlay,\n                        penaltyMultiplierDisagreement * roundLength * uint256(2 ** truthRevealedDepth)\n                    );\n                    // slash ph5\n                }\n            } else {\n                // slash in later phase\n                // Stakes.slashDeposit(currentCommits[i].overlay, currentCommits[i].stake);\n                Stakes.freezeDeposit(\n                    currentCommits[i].overlay,\n                    penaltyMultiplierNonRevealed * roundLength * uint256(2 ** truthRevealedDepth)\n                );\n                continue;\n            }\n        }\n\n        emit WinnerSelected(winner);\n\n        PostageContract.withdraw(winner.owner);\n\n        emit ChunkCount(PostageContract.validChunkCount());\n\n        OracleContract.adjustPrice(uint256(k));\n\n        currentClaimRound = cr;\n    }\n}\n\n",
  "sourcePath": "/home/daniel/Sync/Master/MasterThesisSSC/SwarmStorageContract/contracts/Redistribution.sol",
  "compiler": {
    "name": "solc",
    "version": "0.8.21+commit.d9974bed.Emscripten.clang"
  },
  "schemaVersion": "3.4.16",
  "updatedAt": "2024-02-06T15:25:16.929Z",
  "devdoc": {
    "author": "The Swarm Authors",
    "details": "Implements a Schelling Co-ordination game to form consensus around the Reserve Commitment hash. This takes place in three phases: _commit_, _reveal_ and _claim_. A node, upon establishing that it _isParticipatingInUpcomingRound_, i.e. it's overlay falls within proximity order of its reported depth with the _currentRoundAnchor_, prepares a \"reserve commitment hash\" using the chunks it currently stores in its reserve and calculates the \"storage depth\" (see Bee for details). These values, if calculated honestly, and with the right chunks stored, should be the same for every node in a neighbourhood. This is the Schelling point. Each eligible node can then use these values, together with a random, single use, secret  _revealNonce_ and their _overlay_ as the pre-image values for the obsfucated _commit_, using the _wrapCommit_ method. Once the _commit_ round has elapsed, participating nodes must provide the values used to calculate their obsfucated _commit_ hash, which, once verified for correctness and proximity to the anchor are retained in the _currentReveals_. Nodes that have commited but do not reveal the correct values used to create the pre-image will have their stake \"frozen\" for a period of rounds proportional to their reported depth. During the _reveal_ round, randomness is updated after every successful reveal. Once the reveal round is concluded, the _currentRoundAnchor_ is updated and users can determine if they will be eligible their overlay will be eligible for the next commit phase using _isParticipatingInUpcomingRound_. When the _reveal_ phase has been concluded, the claim phase can begin. At this point, the truth teller and winner are already determined. By calling _isWinner_, an applicant node can run the relevant logic to determine if they have been selected as the beneficiary of this round. When calling _claim_, the current pot from the PostageStamp contract is withdrawn and transferred to that beneficiaries address. Nodes that have revealed values that differ from the truth, have their stakes \"frozen\" for a period of rounds proportional to their reported depth.",
    "events": {
      "ChunkCount(uint256)": {
        "details": "Emit from Postagestamp contract valid chunk count at the end of claim"
      },
      "Committed(uint256,bytes32)": {
        "details": "Logs that an overlay has committed"
      },
      "CountCommits(uint256)": {
        "details": "Emits the number of commits being processed by the claim phase."
      },
      "CountReveals(uint256)": {
        "details": "Emits the number of reveals being processed by the claim phase."
      },
      "CurrentRevealAnchor(uint256,bytes32)": {
        "details": "Bytes32 anhor of current reveal round"
      },
      "Paused(address)": {
        "details": "Emitted when the pause is triggered by `account`."
      },
      "Revealed(uint256,bytes32,uint256,uint256,bytes32,uint8)": {
        "details": "Logs that an overlay has revealed"
      },
      "RoleAdminChanged(bytes32,bytes32,bytes32)": {
        "details": "Emitted when `newAdminRole` is set as ``role``'s admin role, replacing `previousAdminRole` `DEFAULT_ADMIN_ROLE` is the starting admin for all roles, despite {RoleAdminChanged} not being emitted signaling this. _Available since v3.1._"
      },
      "RoleGranted(bytes32,address,address)": {
        "details": "Emitted when `account` is granted `role`. `sender` is the account that originated the contract call, an admin role bearer except when using {_setupRole}."
      },
      "RoleRevoked(bytes32,address,address)": {
        "details": "Emitted when `account` is revoked `role`. `sender` is the account that originated the contract call:   - if using `revokeRole`, it is the admin role bearer   - if using `renounceRole`, it is the role bearer (i.e. `account`)"
      },
      "TruthSelected(bytes32,uint8)": {
        "details": "Emitted when the truth oracle of a round is selected in the claim phase."
      },
      "Unpaused(address)": {
        "details": "Emitted when the pause is lifted by `account`."
      },
      "WinnerSelected((address,bytes32,uint256,uint256,bytes32,uint8))": {
        "details": "Emitted when the winner of a round is selected in the claim phase"
      }
    },
    "kind": "dev",
    "methods": {
      "commit(bytes32,bytes32,uint256)": {
        "details": "If a node's overlay is _inProximity_(_depth_) of the _currentRoundAnchor_, that node may compute an _obfuscatedHash_ by providing their _overlay_, reported storage _depth_, reserve commitment _hash_ and a randomly generated, and secret _revealNonce_ to the _wrapCommit_ method.",
        "params": {
          "_obfuscatedHash": "The calculated hash resultant of the required pre-image values.",
          "_overlay": "The overlay referenced in the pre-image. Must be staked by at least the minimum value, and be derived from the same key pair as the message sender."
        }
      },
      "constructor": {
        "params": {
          "oracleContract": "the address of the linked PriceOracle contract.",
          "postageContract": "the address of the linked PostageStamp contract.",
          "staking": "the address of the linked Staking contract."
        }
      },
      "currentRoundAnchor()": {
        "details": "A node must be within proximity order of less than or equal to the storage depth they intend to report."
      },
      "getRoleAdmin(bytes32)": {
        "details": "Returns the admin role that controls `role`. See {grantRole} and {revokeRole}. To change a role's admin, use {_setRoleAdmin}."
      },
      "grantRole(bytes32,address)": {
        "details": "Grants `role` to `account`. If `account` had not been already granted `role`, emits a {RoleGranted} event. Requirements: - the caller must have ``role``'s admin role."
      },
      "hasRole(bytes32,address)": {
        "details": "Returns `true` if `account` has been granted `role`."
      },
      "inProximity(bytes32,bytes32,uint8)": {
        "params": {
          "A": "An overlay address to compare.",
          "B": "An overlay address to compare.",
          "minimum": "Minimum proximity order."
        }
      },
      "isParticipatingInUpcomingRound(bytes32,uint8)": {
        "params": {
          "depth": "The storage depth the applicant intends to report.",
          "overlay": "The overlay address of the applicant."
        }
      },
      "isWinner(bytes32)": {
        "params": {
          "_overlay": "The overlay address of the applicant."
        }
      },
      "pause()": {
        "details": "Pause the contract. The contract is provably stopped by renouncing the pauser role and the admin role after pausing, can only be called by the `PAUSER`"
      },
      "paused()": {
        "details": "Returns true if the contract is paused, and false otherwise."
      },
      "renounceRole(bytes32,address)": {
        "details": "Revokes `role` from the calling account. Roles are often managed via {grantRole} and {revokeRole}: this function's purpose is to provide a mechanism for accounts to lose their privileges if they are compromised (such as when a trusted device is misplaced). If the calling account had been granted `role`, emits a {RoleRevoked} event. Requirements: - the caller must be `account`."
      },
      "reveal(bytes32,uint8,bytes32,bytes32)": {
        "params": {
          "_depth": "The reported depth.",
          "_hash": "The reserve commitment hash.",
          "_overlay": "The overlay address of the applicant.",
          "_revealNonce": "The nonce used to generate the commit that is being revealed."
        }
      },
      "revokeRole(bytes32,address)": {
        "details": "Revokes `role` from `account`. If `account` had been granted `role`, emits a {RoleRevoked} event. Requirements: - the caller must have ``role``'s admin role."
      },
      "supportsInterface(bytes4)": {
        "details": "See {IERC165-supportsInterface}."
      },
      "unPause()": {
        "details": "Unpause the contract, can only be called by the pauser when paused"
      },
      "wrapCommit(bytes32,uint8,bytes32,bytes32)": {
        "details": "_revealNonce_ must be randomly generated, used once and kept secret until the reveal phase.",
        "params": {
          "_depth": "The reported depth.",
          "_hash": "The reserve commitment hash.",
          "_overlay": "The overlay address of the applicant.",
          "revealNonce": "A random, single use, secret nonce."
        }
      }
    },
    "title": "Redistribution contract",
    "version": 1
  },
  "userdoc": {
    "kind": "user",
    "methods": {
      "claim()": {
        "notice": "Conclude the current round by identifying the selected truth teller and beneficiary."
      },
      "commit(bytes32,bytes32,uint256)": {
        "notice": "Begin application for a round if eligible. Commit a hashed value for which the pre-image will be subsequently revealed."
      },
      "currentPhaseClaim()": {
        "notice": "Returns true if current block is during claim phase."
      },
      "currentPhaseCommit()": {
        "notice": "Returns true if current block is during commit phase."
      },
      "currentPhaseReveal()": {
        "notice": "Returns true if current block is during reveal phase."
      },
      "currentRound()": {
        "notice": "The number of the current round."
      },
      "currentRoundAnchor()": {
        "notice": "The anchor used to determine eligibility for the current round."
      },
      "currentRoundReveals()": {
        "notice": "Returns true if current block is during reveal phase."
      },
      "currentSeed()": {
        "notice": "Returns the current random seed which is used to determine later utilised random numbers. If rounds have elapsed without reveals, hash the seed with an incremented nonce to produce a new random seed and hence a new round anchor."
      },
      "inProximity(bytes32,bytes32,uint8)": {
        "notice": "Returns true if an overlay address _A_ is within proximity order _minimum_ of _B_."
      },
      "isParticipatingInUpcomingRound(bytes32,uint8)": {
        "notice": "Determine if a the owner of a given overlay can participate in the upcoming round."
      },
      "isWinner(bytes32)": {
        "notice": "Determine if a the owner of a given overlay will be the beneficiary of the claim phase."
      },
      "nextSeed()": {
        "notice": "Returns the seed which will become current once the next commit phase begins. Used to determine what the next round's anchor will be."
      },
      "reveal(bytes32,uint8,bytes32,bytes32)": {
        "notice": "Reveal the pre-image values used to generate commit provided during this round's commit phase."
      },
      "setFreezingParams(uint256,uint256)": {
        "notice": "Set freezing parameters"
      },
      "wrapCommit(bytes32,uint8,bytes32,bytes32)": {
        "notice": "Hash the pre-image values to the obsfucated hash."
      }
    },
    "version": 1
  }
}