{
  "contractName": "StakeRegistry",
  "abi": [
    {
      "inputs": [
        {
          "internalType": "address",
          "name": "_bzzToken",
          "type": "address"
        },
        {
          "internalType": "uint64",
          "name": "_NetworkId",
          "type": "uint64"
        }
      ],
      "stateMutability": "nonpayable",
      "type": "constructor"
    },
    {
      "anonymous": false,
      "inputs": [
        {
          "indexed": false,
          "internalType": "address",
          "name": "account",
          "type": "address"
        }
      ],
      "name": "Paused",
      "type": "event"
    },
    {
      "anonymous": false,
      "inputs": [
        {
          "indexed": true,
          "internalType": "bytes32",
          "name": "role",
          "type": "bytes32"
        },
        {
          "indexed": true,
          "internalType": "bytes32",
          "name": "previousAdminRole",
          "type": "bytes32"
        },
        {
          "indexed": true,
          "internalType": "bytes32",
          "name": "newAdminRole",
          "type": "bytes32"
        }
      ],
      "name": "RoleAdminChanged",
      "type": "event"
    },
    {
      "anonymous": false,
      "inputs": [
        {
          "indexed": true,
          "internalType": "bytes32",
          "name": "role",
          "type": "bytes32"
        },
        {
          "indexed": true,
          "internalType": "address",
          "name": "account",
          "type": "address"
        },
        {
          "indexed": true,
          "internalType": "address",
          "name": "sender",
          "type": "address"
        }
      ],
      "name": "RoleGranted",
      "type": "event"
    },
    {
      "anonymous": false,
      "inputs": [
        {
          "indexed": true,
          "internalType": "bytes32",
          "name": "role",
          "type": "bytes32"
        },
        {
          "indexed": true,
          "internalType": "address",
          "name": "account",
          "type": "address"
        },
        {
          "indexed": true,
          "internalType": "address",
          "name": "sender",
          "type": "address"
        }
      ],
      "name": "RoleRevoked",
      "type": "event"
    },
    {
      "anonymous": false,
      "inputs": [
        {
          "indexed": false,
          "internalType": "bytes32",
          "name": "slashed",
          "type": "bytes32"
        },
        {
          "indexed": false,
          "internalType": "uint256",
          "name": "time",
          "type": "uint256"
        }
      ],
      "name": "StakeFrozen",
      "type": "event"
    },
    {
      "anonymous": false,
      "inputs": [
        {
          "indexed": false,
          "internalType": "bytes32",
          "name": "slashed",
          "type": "bytes32"
        },
        {
          "indexed": false,
          "internalType": "uint256",
          "name": "amount",
          "type": "uint256"
        }
      ],
      "name": "StakeSlashed",
      "type": "event"
    },
    {
      "anonymous": false,
      "inputs": [
        {
          "indexed": true,
          "internalType": "bytes32",
          "name": "overlay",
          "type": "bytes32"
        },
        {
          "indexed": false,
          "internalType": "uint256",
          "name": "stakeAmount",
          "type": "uint256"
        },
        {
          "indexed": false,
          "internalType": "address",
          "name": "owner",
          "type": "address"
        },
        {
          "indexed": false,
          "internalType": "uint256",
          "name": "lastUpdatedBlock",
          "type": "uint256"
        }
      ],
      "name": "StakeUpdated",
      "type": "event"
    },
    {
      "anonymous": false,
      "inputs": [
        {
          "indexed": false,
          "internalType": "address",
          "name": "account",
          "type": "address"
        }
      ],
      "name": "Unpaused",
      "type": "event"
    },
    {
      "inputs": [],
      "name": "DEFAULT_ADMIN_ROLE",
      "outputs": [
        {
          "internalType": "bytes32",
          "name": "",
          "type": "bytes32"
        }
      ],
      "stateMutability": "view",
      "type": "function"
    },
    {
      "inputs": [],
      "name": "PAUSER_ROLE",
      "outputs": [
        {
          "internalType": "bytes32",
          "name": "",
          "type": "bytes32"
        }
      ],
      "stateMutability": "view",
      "type": "function"
    },
    {
      "inputs": [],
      "name": "REDISTRIBUTOR_ROLE",
      "outputs": [
        {
          "internalType": "bytes32",
          "name": "",
          "type": "bytes32"
        }
      ],
      "stateMutability": "view",
      "type": "function"
    },
    {
      "inputs": [],
      "name": "bzzToken",
      "outputs": [
        {
          "internalType": "address",
          "name": "",
          "type": "address"
        }
      ],
      "stateMutability": "view",
      "type": "function"
    },
    {
      "inputs": [
        {
          "internalType": "bytes32",
          "name": "role",
          "type": "bytes32"
        }
      ],
      "name": "getRoleAdmin",
      "outputs": [
        {
          "internalType": "bytes32",
          "name": "",
          "type": "bytes32"
        }
      ],
      "stateMutability": "view",
      "type": "function"
    },
    {
      "inputs": [
        {
          "internalType": "bytes32",
          "name": "role",
          "type": "bytes32"
        },
        {
          "internalType": "address",
          "name": "account",
          "type": "address"
        }
      ],
      "name": "grantRole",
      "outputs": [],
      "stateMutability": "nonpayable",
      "type": "function"
    },
    {
      "inputs": [
        {
          "internalType": "bytes32",
          "name": "role",
          "type": "bytes32"
        },
        {
          "internalType": "address",
          "name": "account",
          "type": "address"
        }
      ],
      "name": "hasRole",
      "outputs": [
        {
          "internalType": "bool",
          "name": "",
          "type": "bool"
        }
      ],
      "stateMutability": "view",
      "type": "function"
    },
    {
      "inputs": [],
      "name": "paused",
      "outputs": [
        {
          "internalType": "bool",
          "name": "",
          "type": "bool"
        }
      ],
      "stateMutability": "view",
      "type": "function"
    },
    {
      "inputs": [
        {
          "internalType": "bytes32",
          "name": "role",
          "type": "bytes32"
        },
        {
          "internalType": "address",
          "name": "account",
          "type": "address"
        }
      ],
      "name": "renounceRole",
      "outputs": [],
      "stateMutability": "nonpayable",
      "type": "function"
    },
    {
      "inputs": [
        {
          "internalType": "bytes32",
          "name": "role",
          "type": "bytes32"
        },
        {
          "internalType": "address",
          "name": "account",
          "type": "address"
        }
      ],
      "name": "revokeRole",
      "outputs": [],
      "stateMutability": "nonpayable",
      "type": "function"
    },
    {
      "inputs": [
        {
          "internalType": "bytes32",
          "name": "",
          "type": "bytes32"
        }
      ],
      "name": "stakes",
      "outputs": [
        {
          "internalType": "bytes32",
          "name": "overlay",
          "type": "bytes32"
        },
        {
          "internalType": "uint256",
          "name": "stakeAmount",
          "type": "uint256"
        },
        {
          "internalType": "address",
          "name": "owner",
          "type": "address"
        },
        {
          "internalType": "uint256",
          "name": "lastUpdatedBlockNumber",
          "type": "uint256"
        },
        {
          "internalType": "bool",
          "name": "isValue",
          "type": "bool"
        }
      ],
      "stateMutability": "view",
      "type": "function"
    },
    {
      "inputs": [
        {
          "internalType": "bytes4",
          "name": "interfaceId",
          "type": "bytes4"
        }
      ],
      "name": "supportsInterface",
      "outputs": [
        {
          "internalType": "bool",
          "name": "",
          "type": "bool"
        }
      ],
      "stateMutability": "view",
      "type": "function"
    },
    {
      "inputs": [
        {
          "internalType": "bytes32",
          "name": "overlay",
          "type": "bytes32"
        }
      ],
      "name": "stakeOfOverlay",
      "outputs": [
        {
          "internalType": "uint256",
          "name": "",
          "type": "uint256"
        }
      ],
      "stateMutability": "view",
      "type": "function"
    },
    {
      "inputs": [
        {
          "internalType": "bytes32",
          "name": "overlay",
          "type": "bytes32"
        }
      ],
      "name": "usableStakeOfOverlay",
      "outputs": [
        {
          "internalType": "uint256",
          "name": "",
          "type": "uint256"
        }
      ],
      "stateMutability": "view",
      "type": "function"
    },
    {
      "inputs": [
        {
          "internalType": "bytes32",
          "name": "overlay",
          "type": "bytes32"
        }
      ],
      "name": "lastUpdatedBlockNumberOfOverlay",
      "outputs": [
        {
          "internalType": "uint256",
          "name": "",
          "type": "uint256"
        }
      ],
      "stateMutability": "view",
      "type": "function"
    },
    {
      "inputs": [
        {
          "internalType": "bytes32",
          "name": "overlay",
          "type": "bytes32"
        }
      ],
      "name": "ownerOfOverlay",
      "outputs": [
        {
          "internalType": "address",
          "name": "",
          "type": "address"
        }
      ],
      "stateMutability": "view",
      "type": "function"
    },
    {
      "inputs": [
        {
          "internalType": "address",
          "name": "_owner",
          "type": "address"
        },
        {
          "internalType": "bytes32",
          "name": "nonce",
          "type": "bytes32"
        },
        {
          "internalType": "uint256",
          "name": "amount",
          "type": "uint256"
        }
      ],
      "name": "depositStake",
      "outputs": [],
      "stateMutability": "nonpayable",
      "type": "function"
    },
    {
      "inputs": [
        {
          "internalType": "bytes32",
          "name": "overlay",
          "type": "bytes32"
        },
        {
          "internalType": "uint256",
          "name": "amount",
          "type": "uint256"
        }
      ],
      "name": "withdrawFromStake",
      "outputs": [],
      "stateMutability": "nonpayable",
      "type": "function"
    },
    {
      "inputs": [
        {
          "internalType": "bytes32",
          "name": "overlay",
          "type": "bytes32"
        },
        {
          "internalType": "uint256",
          "name": "time",
          "type": "uint256"
        }
      ],
      "name": "freezeDeposit",
      "outputs": [],
      "stateMutability": "nonpayable",
      "type": "function"
    },
    {
      "inputs": [
        {
          "internalType": "bytes32",
          "name": "overlay",
          "type": "bytes32"
        },
        {
          "internalType": "uint256",
          "name": "amount",
          "type": "uint256"
        }
      ],
      "name": "slashDeposit",
      "outputs": [],
      "stateMutability": "nonpayable",
      "type": "function"
    },
    {
      "inputs": [],
      "name": "pause",
      "outputs": [],
      "stateMutability": "nonpayable",
      "type": "function"
    },
    {
      "inputs": [],
      "name": "unPause",
      "outputs": [],
      "stateMutability": "nonpayable",
      "type": "function"
    }
  ],
  "bytecode": "0x608060405234801562000010575f80fd5b506040516200269638038062002696833981810160405281019062000036919062000318565b5f60015f6101000a81548160ff0219169083151502179055508060035f6101000a81548167ffffffffffffffff021916908367ffffffffffffffff16021790555081600360086101000a81548173ffffffffffffffffffffffffffffffffffffffff021916908373ffffffffffffffffffffffffffffffffffffffff160217905550620000cc5f801b336200010660201b60201c565b620000fe7f65d7a28e3265b37a6474929f336521b332c1681b933f6cb9f3376673440d862a336200010660201b60201c565b50506200035d565b6200011882826200011c60201b60201c565b5050565b6200012e82826200020760201b60201c565b620002035760015f808481526020019081526020015f205f015f8373ffffffffffffffffffffffffffffffffffffffff1673ffffffffffffffffffffffffffffffffffffffff1681526020019081526020015f205f6101000a81548160ff021916908315150217905550620001a86200026a60201b60201c565b73ffffffffffffffffffffffffffffffffffffffff168173ffffffffffffffffffffffffffffffffffffffff16837f2f8788117e7eff1d82e926ec794901d17c78024a50270940304540a733656f0d60405160405180910390a45b5050565b5f805f8481526020019081526020015f205f015f8373ffffffffffffffffffffffffffffffffffffffff1673ffffffffffffffffffffffffffffffffffffffff1681526020019081526020015f205f9054906101000a900460ff16905092915050565b5f33905090565b5f80fd5b5f73ffffffffffffffffffffffffffffffffffffffff82169050919050565b5f620002a08262000275565b9050919050565b620002b28162000294565b8114620002bd575f80fd5b50565b5f81519050620002d081620002a7565b92915050565b5f67ffffffffffffffff82169050919050565b620002f481620002d6565b8114620002ff575f80fd5b50565b5f815190506200031281620002e9565b92915050565b5f806040838503121562000331576200033062000271565b5b5f6200034085828601620002c0565b9250506020620003538582860162000302565b9150509250929050565b61232b806200036b5f395ff3fe608060405234801561000f575f80fd5b5060043610610140575f3560e01c806391d14854116100b6578063abe385431161007a578063abe3854314610376578063d547741f146103a6578063e34c4527146103c2578063e63ab1e9146103de578063ede41302146103fc578063f7b188a51461042c57610140565b806391d14854146102be578063a0d22b21146102ee578063a217fddf1461031e578063a6471a1d1461033c578063a6ce31d41461035a57610140565b8063420fc4db11610108578063420fc4db146101f857806348962b93146102165780635c975abb14610246578063837fd16a146102645780638456cb59146102805780638fee64071461028a57610140565b806301ffc9a7146101445780631ed2cd4014610174578063248a9ca3146101905780632f2ff15d146101c057806336568abe146101dc575b5f80fd5b61015e60048036038101906101599190611711565b610436565b60405161016b9190611756565b60405180910390f35b61018e6004803603810190610189919061182f565b6104af565b005b6101aa60048036038101906101a5919061187f565b61083b565b6040516101b791906118b9565b60405180910390f35b6101da60048036038101906101d591906118d2565b610857565b005b6101f660048036038101906101f191906118d2565b6108bd565b005b610200610940565b60405161020d919061191f565b60405180910390f35b610230600480360381019061022b919061187f565b610966565b60405161023d9190611947565b60405180910390f35b61024e610983565b60405161025b9190611756565b60405180910390f35b61027e60048036038101906102799190611960565b610998565b005b610288610a89565b005b6102a4600480360381019061029f919061187f565b610afc565b6040516102b595949392919061199e565b60405180910390f35b6102d860048036038101906102d391906118d2565b610b59565b6040516102e59190611756565b60405180910390f35b6103086004803603810190610303919061187f565b610bbc565b604051610315919061191f565b60405180910390f35b610326610bf8565b60405161033391906118b9565b60405180910390f35b610344610bfe565b60405161035191906118b9565b60405180910390f35b610374600480360381019061036f9190611960565b610c22565b005b610390600480360381019061038b919061187f565b610db5565b60405161039d9190611947565b60405180910390f35b6103c060048036038101906103bb91906118d2565b610de6565b005b6103dc60048036038101906103d79190611960565b610e4c565b005b6103e66111ef565b6040516103f391906118b9565b60405180910390f35b6104166004803603810190610411919061187f565b611213565b6040516104239190611947565b60405180910390f35b610434611230565b005b5f7f7965db0b000000000000000000000000000000000000000000000000000000007bffffffffffffffffffffffffffffffffffffffffffffffffffffffff1916827bffffffffffffffffffffffffffffffffffffffffffffffffffffffff191614806104a857506104a7826112a3565b5b9050919050565b6104b7610983565b156104f7576040517f08c379a00000000000000000000000000000000000000000000000000000000081526004016104ee90611a49565b60405180910390fd5b3373ffffffffffffffffffffffffffffffffffffffff168373ffffffffffffffffffffffffffffffffffffffff1614610565576040517f08c379a000000000000000000000000000000000000000000000000000000000815260040161055c90611ab1565b60405180910390fd5b5f8361058560035f9054906101000a900467ffffffffffffffff1661130c565b8460405160200161059893929190611b7b565b6040516020818303038152906040528051906020012090505f82905060025f8381526020019081526020015f206004015f9054906101000a900460ff1615610645576105e38261139d565b610622576040517f08c379a000000000000000000000000000000000000000000000000000000000815260040161061990611c01565b60405180910390fd5b60025f8381526020019081526020015f2060010154836106429190611c4c565b90505b600360089054906101000a900473ffffffffffffffffffffffffffffffffffffffff1673ffffffffffffffffffffffffffffffffffffffff166323b872dd3330866040518463ffffffff1660e01b81526004016106a493929190611c7f565b6020604051808303815f875af11580156106c0573d5f803e3d5ffd5b505050506040513d601f19601f820116820180604052508101906106e49190611cde565b610723576040517f08c379a000000000000000000000000000000000000000000000000000000000815260040161071a90611d53565b60405180910390fd5b817f61e979698346a2aa868a3a9f08d30c846174841dc9b074bbf2a82d20554bc68282874360405161075793929190611d71565b60405180910390a26040518060a001604052808381526020018281526020018673ffffffffffffffffffffffffffffffffffffffff1681526020014381526020016001151581525060025f8481526020019081526020015f205f820151815f0155602082015181600101556040820151816002015f6101000a81548173ffffffffffffffffffffffffffffffffffffffff021916908373ffffffffffffffffffffffffffffffffffffffff160217905550606082015181600301556080820151816004015f6101000a81548160ff0219169083151502179055509050505050505050565b5f805f8381526020019081526020015f20600101549050919050565b6108706108638361083b565b61086b6113bc565b610b59565b6108af576040517f08c379a00000000000000000000000000000000000000000000000000000000081526004016108a690611e16565b60405180910390fd5b6108b982826113c3565b5050565b6108c56113bc565b73ffffffffffffffffffffffffffffffffffffffff168173ffffffffffffffffffffffffffffffffffffffff1614610932576040517f08c379a000000000000000000000000000000000000000000000000000000000815260040161092990611ea4565b60405180910390fd5b61093c828261149d565b5050565b600360089054906101000a900473ffffffffffffffffffffffffffffffffffffffff1681565b5f60025f8381526020019081526020015f20600101549050919050565b5f60015f9054906101000a900460ff16905090565b6109c27f3e35b14a9f4fef84b59f9bdcd3044fc28783144b7e42bfb2cd075e6a02cb082833610b59565b610a01576040517f08c379a00000000000000000000000000000000000000000000000000000000081526004016109f890611f32565b60405180910390fd5b60025f8381526020019081526020015f206004015f9054906101000a900460ff1615610a85577f340439a63c1ee2404f5b7010cab559b4dcbfc28b8baab9acade354fd688ae2b98282604051610a58929190611f50565b60405180910390a18043610a6c9190611c4c565b60025f8481526020019081526020015f20600301819055505b5050565b610ab37f65d7a28e3265b37a6474929f336521b332c1681b933f6cb9f3376673440d862a33610b59565b610af2576040517f08c379a0000000000000000000000000000000000000000000000000000000008152600401610ae990611fc1565b60405180910390fd5b610afa611577565b565b6002602052805f5260405f205f91509050805f015490806001015490806002015f9054906101000a900473ffffffffffffffffffffffffffffffffffffffff1690806003015490806004015f9054906101000a900460ff16905085565b5f805f8481526020019081526020015f205f015f8373ffffffffffffffffffffffffffffffffffffffff1673ffffffffffffffffffffffffffffffffffffffff1681526020019081526020015f205f9054906101000a900460ff16905092915050565b5f60025f8381526020019081526020015f206002015f9054906101000a900473ffffffffffffffffffffffffffffffffffffffff169050919050565b5f801b81565b7f3e35b14a9f4fef84b59f9bdcd3044fc28783144b7e42bfb2cd075e6a02cb082881565b610c4c7f3e35b14a9f4fef84b59f9bdcd3044fc28783144b7e42bfb2cd075e6a02cb082833610b59565b610c8b576040517f08c379a0000000000000000000000000000000000000000000000000000000008152600401610c829061204f565b60405180910390fd5b7f0956b50d4d586f6b9c90800d4e713bd2b866e044decd047e6d70ea20314ab3088282604051610cbc929190611f50565b60405180910390a160025f8381526020019081526020015f206004015f9054906101000a900460ff1615610db1578060025f8481526020019081526020015f20600101541115610d4e578060025f8481526020019081526020015f206001015f828254610d29919061206d565b925050819055504360025f8481526020019081526020015f2060030181905550610db0565b60025f8381526020019081526020015f205f8082015f9055600182015f9055600282015f6101000a81549073ffffffffffffffffffffffffffffffffffffffff0219169055600382015f9055600482015f6101000a81549060ff021916905550505b5b5050565b5f610dbf8261139d565b610dc9575f610ddf565b60025f8381526020019081526020015f20600101545b9050919050565b610dff610df28361083b565b610dfa6113bc565b610b59565b610e3e576040517f08c379a0000000000000000000000000000000000000000000000000000000008152600401610e3590612110565b60405180910390fd5b610e48828261149d565b5050565b610e54610983565b610e93576040517f08c379a0000000000000000000000000000000000000000000000000000000008152600401610e8a90612178565b60405180910390fd5b3373ffffffffffffffffffffffffffffffffffffffff1660025f8481526020019081526020015f206002015f9054906101000a900473ffffffffffffffffffffffffffffffffffffffff1673ffffffffffffffffffffffffffffffffffffffff1614610f34576040517f08c379a0000000000000000000000000000000000000000000000000000000008152600401610f2b906121e0565b60405180910390fd5b5f81905060025f8481526020019081526020015f2060010154821115610f6c5760025f8481526020019081526020015f206001015490505b60025f8481526020019081526020015f20600101548110156110ac578060025f8581526020019081526020015f206001015f828254610fab919061206d565b925050819055504360025f8581526020019081526020015f2060030181905550600360089054906101000a900473ffffffffffffffffffffffffffffffffffffffff1673ffffffffffffffffffffffffffffffffffffffff1663a9059cbb33836040518363ffffffff1660e01b81526004016110289291906121fe565b6020604051808303815f875af1158015611044573d5f803e3d5ffd5b505050506040513d601f19601f820116820180604052508101906110689190611cde565b6110a7576040517f08c379a000000000000000000000000000000000000000000000000000000000815260040161109e9061226f565b60405180910390fd5b6111ea565b60025f8481526020019081526020015f205f8082015f9055600182015f9055600282015f6101000a81549073ffffffffffffffffffffffffffffffffffffffff0219169055600382015f9055600482015f6101000a81549060ff02191690555050600360089054906101000a900473ffffffffffffffffffffffffffffffffffffffff1673ffffffffffffffffffffffffffffffffffffffff1663a9059cbb33836040518363ffffffff1660e01b815260040161116a9291906121fe565b6020604051808303815f875af1158015611186573d5f803e3d5ffd5b505050506040513d601f19601f820116820180604052508101906111aa9190611cde565b6111e9576040517f08c379a00000000000000000000000000000000000000000000000000000000081526004016111e09061226f565b60405180910390fd5b5b505050565b7f65d7a28e3265b37a6474929f336521b332c1681b933f6cb9f3376673440d862a81565b5f60025f8381526020019081526020015f20600301549050919050565b61125a7f65d7a28e3265b37a6474929f336521b332c1681b933f6cb9f3376673440d862a33610b59565b611299576040517f08c379a0000000000000000000000000000000000000000000000000000000008152600401611290906122d7565b60405180910390fd5b6112a1611618565b565b5f7f01ffc9a7000000000000000000000000000000000000000000000000000000007bffffffffffffffffffffffffffffffffffffffffffffffffffffffff1916827bffffffffffffffffffffffffffffffffffffffffffffffffffffffff1916149050919050565b5f819050600866ff00ff00ff00ff821667ffffffffffffffff16901b600867ff00ff00ff00ff00831667ffffffffffffffff16901c179050601065ffff0000ffff821667ffffffffffffffff16901b601067ffff0000ffff0000831667ffffffffffffffff16901c17905060208167ffffffffffffffff16901b60208267ffffffffffffffff16901c179050919050565b5f4360025f8481526020019081526020015f2060030154109050919050565b5f33905090565b6113cd8282610b59565b6114995760015f808481526020019081526020015f205f015f8373ffffffffffffffffffffffffffffffffffffffff1673ffffffffffffffffffffffffffffffffffffffff1681526020019081526020015f205f6101000a81548160ff02191690831515021790555061143e6113bc565b73ffffffffffffffffffffffffffffffffffffffff168173ffffffffffffffffffffffffffffffffffffffff16837f2f8788117e7eff1d82e926ec794901d17c78024a50270940304540a733656f0d60405160405180910390a45b5050565b6114a78282610b59565b15611573575f805f8481526020019081526020015f205f015f8373ffffffffffffffffffffffffffffffffffffffff1673ffffffffffffffffffffffffffffffffffffffff1681526020019081526020015f205f6101000a81548160ff0219169083151502179055506115186113bc565b73ffffffffffffffffffffffffffffffffffffffff168173ffffffffffffffffffffffffffffffffffffffff16837ff6391f5c32d9c69d2a47ea670b442974b53935d1edc7fd64eb21e047a839171b60405160405180910390a45b5050565b61157f610983565b156115bf576040517f08c379a00000000000000000000000000000000000000000000000000000000081526004016115b690611a49565b60405180910390fd5b6001805f6101000a81548160ff0219169083151502179055507f62e78cea01bee320cd4e420270b5ea74000d11b0c9f74754ebdbfc544b05a2586116016113bc565b60405161160e919061191f565b60405180910390a1565b611620610983565b61165f576040517f08c379a000000000000000000000000000000000000000000000000000000000815260040161165690612178565b60405180910390fd5b5f60015f6101000a81548160ff0219169083151502179055507f5db9ee0a495bf2e6ff9c91a7834c1ba4fdd244a5e8aa4e537bd38aeae4b073aa6116a16113bc565b6040516116ae919061191f565b60405180910390a1565b5f80fd5b5f7fffffffff0000000000000000000000000000000000000000000000000000000082169050919050565b6116f0816116bc565b81146116fa575f80fd5b50565b5f8135905061170b816116e7565b92915050565b5f60208284031215611726576117256116b8565b5b5f611733848285016116fd565b91505092915050565b5f8115159050919050565b6117508161173c565b82525050565b5f6020820190506117695f830184611747565b92915050565b5f73ffffffffffffffffffffffffffffffffffffffff82169050919050565b5f6117988261176f565b9050919050565b6117a88161178e565b81146117b2575f80fd5b50565b5f813590506117c38161179f565b92915050565b5f819050919050565b6117db816117c9565b81146117e5575f80fd5b50565b5f813590506117f6816117d2565b92915050565b5f819050919050565b61180e816117fc565b8114611818575f80fd5b50565b5f8135905061182981611805565b92915050565b5f805f60608486031215611846576118456116b8565b5b5f611853868287016117b5565b9350506020611864868287016117e8565b92505060406118758682870161181b565b9150509250925092565b5f60208284031215611894576118936116b8565b5b5f6118a1848285016117e8565b91505092915050565b6118b3816117c9565b82525050565b5f6020820190506118cc5f8301846118aa565b92915050565b5f80604083850312156118e8576118e76116b8565b5b5f6118f5858286016117e8565b9250506020611906858286016117b5565b9150509250929050565b6119198161178e565b82525050565b5f6020820190506119325f830184611910565b92915050565b611941816117fc565b82525050565b5f60208201905061195a5f830184611938565b92915050565b5f8060408385031215611976576119756116b8565b5b5f611983858286016117e8565b92505060206119948582860161181b565b9150509250929050565b5f60a0820190506119b15f8301886118aa565b6119be6020830187611938565b6119cb6040830186611910565b6119d86060830185611938565b6119e56080830184611747565b9695505050505050565b5f82825260208201905092915050565b7f5061757361626c653a20706175736564000000000000000000000000000000005f82015250565b5f611a336010836119ef565b9150611a3e826119ff565b602082019050919050565b5f6020820190508181035f830152611a6081611a27565b9050919050565b7f6f6e6c79206f776e65722063616e20757064617465207374616b6500000000005f82015250565b5f611a9b601b836119ef565b9150611aa682611a67565b602082019050919050565b5f6020820190508181035f830152611ac881611a8f565b9050919050565b5f8160601b9050919050565b5f611ae582611acf565b9050919050565b5f611af682611adb565b9050919050565b611b0e611b098261178e565b611aec565b82525050565b5f67ffffffffffffffff82169050919050565b5f8160c01b9050919050565b5f611b3d82611b27565b9050919050565b611b55611b5082611b14565b611b33565b82525050565b5f819050919050565b611b75611b70826117c9565b611b5b565b82525050565b5f611b868286611afd565b601482019150611b968285611b44565b600882019150611ba68284611b64565b602082019150819050949350505050565b7f6f7665726c61792063757272656e746c792066726f7a656e00000000000000005f82015250565b5f611beb6018836119ef565b9150611bf682611bb7565b602082019050919050565b5f6020820190508181035f830152611c1881611bdf565b9050919050565b7f4e487b71000000000000000000000000000000000000000000000000000000005f52601160045260245ffd5b5f611c56826117fc565b9150611c61836117fc565b9250828201905080821115611c7957611c78611c1f565b5b92915050565b5f606082019050611c925f830186611910565b611c9f6020830185611910565b611cac6040830184611938565b949350505050565b611cbd8161173c565b8114611cc7575f80fd5b50565b5f81519050611cd881611cb4565b92915050565b5f60208284031215611cf357611cf26116b8565b5b5f611d0084828501611cca565b91505092915050565b7f6661696c6564207472616e7366657200000000000000000000000000000000005f82015250565b5f611d3d600f836119ef565b9150611d4882611d09565b602082019050919050565b5f6020820190508181035f830152611d6a81611d31565b9050919050565b5f606082019050611d845f830186611938565b611d916020830185611910565b611d9e6040830184611938565b949350505050565b7f416363657373436f6e74726f6c3a2073656e646572206d75737420626520616e5f8201527f2061646d696e20746f206772616e740000000000000000000000000000000000602082015250565b5f611e00602f836119ef565b9150611e0b82611da6565b604082019050919050565b5f6020820190508181035f830152611e2d81611df4565b9050919050565b7f416363657373436f6e74726f6c3a2063616e206f6e6c792072656e6f756e63655f8201527f20726f6c657320666f722073656c660000000000000000000000000000000000602082015250565b5f611e8e602f836119ef565b9150611e9982611e34565b604082019050919050565b5f6020820190508181035f830152611ebb81611e82565b9050919050565b7f6f6e6c792072656469737472696275746f722063616e20667265657a652073745f8201527f616b650000000000000000000000000000000000000000000000000000000000602082015250565b5f611f1c6023836119ef565b9150611f2782611ec2565b604082019050919050565b5f6020820190508181035f830152611f4981611f10565b9050919050565b5f604082019050611f635f8301856118aa565b611f706020830184611938565b9392505050565b7f6f6e6c79207061757365722063616e20706175736500000000000000000000005f82015250565b5f611fab6015836119ef565b9150611fb682611f77565b602082019050919050565b5f6020820190508181035f830152611fd881611f9f565b9050919050565b7f6f6e6c792072656469737472696275746f722063616e20736c617368207374615f8201527f6b65000000000000000000000000000000000000000000000000000000000000602082015250565b5f6120396022836119ef565b915061204482611fdf565b604082019050919050565b5f6020820190508181035f8301526120668161202d565b9050919050565b5f612077826117fc565b9150612082836117fc565b925082820390508181111561209a57612099611c1f565b5b92915050565b7f416363657373436f6e74726f6c3a2073656e646572206d75737420626520616e5f8201527f2061646d696e20746f207265766f6b6500000000000000000000000000000000602082015250565b5f6120fa6030836119ef565b9150612105826120a0565b604082019050919050565b5f6020820190508181035f830152612127816120ee565b9050919050565b7f5061757361626c653a206e6f74207061757365640000000000000000000000005f82015250565b5f6121626014836119ef565b915061216d8261212e565b602082019050919050565b5f6020820190508181035f83015261218f81612156565b9050919050565b7f6f6e6c79206f776e65722063616e207769746864726177207374616b650000005f82015250565b5f6121ca601d836119ef565b91506121d582612196565b602082019050919050565b5f6020820190508181035f8301526121f7816121be565b9050919050565b5f6040820190506122115f830185611910565b61221e6020830184611938565b9392505050565b7f6661696c6564207769746864726177616c0000000000000000000000000000005f82015250565b5f6122596011836119ef565b915061226482612225565b602082019050919050565b5f6020820190508181035f8301526122868161224d565b9050919050565b7f6f6e6c79207061757365722063616e20756e70617573650000000000000000005f82015250565b5f6122c16017836119ef565b91506122cc8261228d565b602082019050919050565b5f6020820190508181035f8301526122ee816122b5565b905091905056fea26469706673582212206e01c7df5cbf7a5da587b5168b3c3be9508a359e0991d6d68e763118e2f37eed64736f6c63430008150033",
  "immutableReferences": {},
  "source": "// SPDX-License-Identifier: BSD-3-Clause\npragma solidity ^0.8.1;\nimport \"./@openzeppelin/contracts/token/ERC20/ERC20.sol\";\nimport \"./@openzeppelin/contracts/access/AccessControl.sol\";\nimport \"./@openzeppelin/contracts/security/Pausable.sol\";\n\n/**\n * @title Staking contract for the Swarm storage incentives\n * @author The Swarm Authors\n * @dev Allows users to stake tokens in order to be eligible for the Redistribution Schelling co-ordination game.\n * Stakes are not withdrawable unless the contract is paused, e.g. in the event of migration to a new staking\n * contract. Stakes are frozen or slashed by the Redistribution contract in response to violations of the\n * protocol.\n */\n\ncontract StakeRegistry is AccessControl, Pausable {\n    /**\n     * @dev Emitted when a stake is created or updated by `owner` of the `overlay` by `stakeamount`, during `lastUpdatedBlock`.\n     */\n    event StakeUpdated(bytes32 indexed overlay, uint256 stakeAmount, address owner, uint256 lastUpdatedBlock);\n\n    /**\n     * @dev Emitted when a stake for overlay `slashed` is slashed by `amount`.\n     */\n    event StakeSlashed(bytes32 slashed, uint256 amount);\n\n    /**\n     * @dev Emitted when a stake for overlay `frozen` for `time` blocks.\n     */\n    event StakeFrozen(bytes32 slashed, uint256 time);\n\n    struct Stake {\n        // Overlay of the node that is being staked\n        bytes32 overlay;\n        // Amount of tokens staked\n        uint256 stakeAmount;\n        // Owner of `overlay`\n        address owner;\n        // Block height the stake was updated\n        uint256 lastUpdatedBlockNumber;\n        // Used to indicate presents in stakes struct\n        bool isValue;\n    }\n\n    // Associate every stake id with overlay data.\n    mapping(bytes32 => Stake) public stakes;\n\n    // Role allowed to pause\n    bytes32 public constant PAUSER_ROLE = keccak256(\"PAUSER_ROLE\");\n    // Role allowed to freeze and slash entries\n    bytes32 public constant REDISTRIBUTOR_ROLE = keccak256(\"REDISTRIBUTOR_ROLE\");\n\n    // Swarm network ID\n    uint64 NetworkId;\n\n    // Address of the staked ERC20 token\n    address public bzzToken;\n\n    /**\n     * @param _bzzToken Address of the staked ERC20 token\n     * @param _NetworkId Swarm network ID\n     */\n    constructor(address _bzzToken, uint64 _NetworkId) {\n        NetworkId = _NetworkId;\n        bzzToken = _bzzToken;\n        _setupRole(DEFAULT_ADMIN_ROLE, msg.sender);\n        _setupRole(PAUSER_ROLE, msg.sender);\n    }\n\n    /**\n     * @dev Checks to see if `overlay` is frozen.\n     * @param overlay Overlay of staked overlay\n     *\n     * Returns a boolean value indicating whether the operation succeeded.\n     */\n    function overlayNotFrozen(bytes32 overlay) internal view returns (bool) {\n        return stakes[overlay].lastUpdatedBlockNumber < block.number;\n    }\n\n    /**\n     * @dev Returns the current `stakeAmount` of `overlay`.\n     * @param overlay Overlay of node\n     */\n    function stakeOfOverlay(bytes32 overlay) public view returns (uint256) {\n        return stakes[overlay].stakeAmount;\n    }\n\n    /**\n     * @dev Returns the current usable `stakeAmount` of `overlay`.\n     * Checks whether the stake is currently frozen.\n     * @param overlay Overlay of node\n     */\n    function usableStakeOfOverlay(bytes32 overlay) public view returns (uint256) {\n        return overlayNotFrozen(overlay) ? stakes[overlay].stakeAmount : 0;\n    }\n\n    /**\n     * @dev Returns the `lastUpdatedBlockNumber` of `overlay`.\n     */\n    function lastUpdatedBlockNumberOfOverlay(bytes32 overlay) public view returns (uint256) {\n        return stakes[overlay].lastUpdatedBlockNumber;\n    }\n\n    /**\n     * @dev Returns the eth address of the owner of `overlay`.\n     * @param overlay Overlay of node\n     */\n    function ownerOfOverlay(bytes32 overlay) public view returns (address) {\n        return stakes[overlay].owner;\n    }\n\n    /**\n     * @dev Please both Endians .\n     * @param input Eth address used for overlay calculation.\n     */\n    function reverse(uint64 input) internal pure returns (uint64 v) {\n        v = input;\n\n        // swap bytes\n        v = ((v & 0xFF00FF00FF00FF00) >> 8) | ((v & 0x00FF00FF00FF00FF) << 8);\n\n        // swap 2-byte long pairs\n        v = ((v & 0xFFFF0000FFFF0000) >> 16) | ((v & 0x0000FFFF0000FFFF) << 16);\n\n        // swap 4-byte long pairs\n        v = (v >> 32) | (v << 32);\n    }\n\n    /**\n     * @notice Create a new stake or update an existing one.\n     * @dev At least `_initialBalancePerChunk*2^depth` number of tokens need to be preapproved for this contract.\n     * @param _owner Eth address used for overlay calculation.\n     * @param nonce Nonce that was used for overlay calculation.\n     * @param amount Deposited amount of ERC20 tokens.\n     */\n    function depositStake(\n        address _owner,\n        bytes32 nonce,\n        uint256 amount\n    ) external whenNotPaused {\n        require(_owner == msg.sender, \"only owner can update stake\");\n\n        bytes32 overlay = keccak256(abi.encodePacked(_owner, reverse(NetworkId), nonce));\n\n        uint256 updatedAmount = amount;\n\n        if (stakes[overlay].isValue) {\n            require(overlayNotFrozen(overlay), \"overlay currently frozen\");\n            updatedAmount = amount + stakes[overlay].stakeAmount;\n        }\n\n        require(ERC20(bzzToken).transferFrom(msg.sender, address(this), amount), \"failed transfer\");\n\n        emit StakeUpdated(overlay, updatedAmount, _owner, block.number);\n\n        stakes[overlay] = Stake({\n            owner: _owner,\n            overlay: overlay,\n            stakeAmount: updatedAmount,\n            lastUpdatedBlockNumber: block.number,\n            isValue: true\n        });\n    }\n\n    /**\n     * @dev Withdraw stake only when the staking contract is paused,\n     * can only be called by the owner specific to the associated `overlay`\n     * @param overlay The overlay to withdraw from\n     * @param amount The amount of ERC20 tokens to be withdrawn\n     */\n    function withdrawFromStake(bytes32 overlay, uint256 amount) external whenPaused {\n        require(stakes[overlay].owner == msg.sender, \"only owner can withdraw stake\");\n        uint256 withDrawLimit = amount;\n        if (amount > stakes[overlay].stakeAmount) {\n            withDrawLimit = stakes[overlay].stakeAmount;\n        }\n\n        if (withDrawLimit < stakes[overlay].stakeAmount) {\n            stakes[overlay].stakeAmount -= withDrawLimit;\n            stakes[overlay].lastUpdatedBlockNumber = block.number;\n            require(ERC20(bzzToken).transfer(msg.sender, withDrawLimit), \"failed withdrawal\");\n        } else {\n            delete stakes[overlay];\n            require(ERC20(bzzToken).transfer(msg.sender, withDrawLimit), \"failed withdrawal\");\n        }\n    }\n\n    /**\n     * @dev Freeze an existing stake, can only be called by the redistributor\n     * @param overlay the overlay selected\n     * @param time penalty length in blocknumbers\n     */\n    function freezeDeposit(bytes32 overlay, uint256 time) external {\n        require(hasRole(REDISTRIBUTOR_ROLE, msg.sender), \"only redistributor can freeze stake\");\n\n        if (stakes[overlay].isValue) {\n            emit StakeFrozen(overlay, time);\n            stakes[overlay].lastUpdatedBlockNumber = block.number + time;\n        }\n    }\n\n    /**\n     * @dev Slash an existing stake, can only be called by the `redistributor`\n     * @param overlay the overlay selected\n     * @param amount the amount to be slashed\n     */\n    function slashDeposit(bytes32 overlay, uint256 amount) external {\n        require(hasRole(REDISTRIBUTOR_ROLE, msg.sender), \"only redistributor can slash stake\");\n        emit StakeSlashed(overlay, amount);\n        if (stakes[overlay].isValue) {\n            if (stakes[overlay].stakeAmount > amount) {\n                stakes[overlay].stakeAmount -= amount;\n                stakes[overlay].lastUpdatedBlockNumber = block.number;\n            } else {\n                delete stakes[overlay];\n            }\n        }\n    }\n\n    /**\n     * @dev Pause the contract. The contract is provably stopped by renouncing\n     the pauser role and the admin role after pausing, can only be called by the `PAUSER`\n     */\n    function pause() public {\n        require(hasRole(PAUSER_ROLE, msg.sender), \"only pauser can pause\");\n        _pause();\n    }\n\n    /**\n     * @dev Unpause the contract, can only be called by the pauser when paused\n     */\n    function unPause() public {\n        require(hasRole(PAUSER_ROLE, msg.sender), \"only pauser can unpause\");\n        _unpause();\n    }\n}\n\n",
  "sourcePath": "/home/daniel/Sync/Master/MasterThesisSSC/SwarmStorageContract/contracts/Staking.sol",
  "compiler": {
    "name": "solc",
    "version": "0.8.21+commit.d9974bed.Emscripten.clang"
  },
  "schemaVersion": "3.4.16",
  "updatedAt": "2024-02-06T15:25:16.945Z",
  "devdoc": {
    "author": "The Swarm Authors",
    "details": "Allows users to stake tokens in order to be eligible for the Redistribution Schelling co-ordination game. Stakes are not withdrawable unless the contract is paused, e.g. in the event of migration to a new staking contract. Stakes are frozen or slashed by the Redistribution contract in response to violations of the protocol.",
    "events": {
      "Paused(address)": {
        "details": "Emitted when the pause is triggered by `account`."
      },
      "RoleAdminChanged(bytes32,bytes32,bytes32)": {
        "details": "Emitted when `newAdminRole` is set as ``role``'s admin role, replacing `previousAdminRole` `DEFAULT_ADMIN_ROLE` is the starting admin for all roles, despite {RoleAdminChanged} not being emitted signaling this. _Available since v3.1._"
      },
      "RoleGranted(bytes32,address,address)": {
        "details": "Emitted when `account` is granted `role`. `sender` is the account that originated the contract call, an admin role bearer except when using {_setupRole}."
      },
      "RoleRevoked(bytes32,address,address)": {
        "details": "Emitted when `account` is revoked `role`. `sender` is the account that originated the contract call:   - if using `revokeRole`, it is the admin role bearer   - if using `renounceRole`, it is the role bearer (i.e. `account`)"
      },
      "StakeFrozen(bytes32,uint256)": {
        "details": "Emitted when a stake for overlay `frozen` for `time` blocks."
      },
      "StakeSlashed(bytes32,uint256)": {
        "details": "Emitted when a stake for overlay `slashed` is slashed by `amount`."
      },
      "StakeUpdated(bytes32,uint256,address,uint256)": {
        "details": "Emitted when a stake is created or updated by `owner` of the `overlay` by `stakeamount`, during `lastUpdatedBlock`."
      },
      "Unpaused(address)": {
        "details": "Emitted when the pause is lifted by `account`."
      }
    },
    "kind": "dev",
    "methods": {
      "constructor": {
        "params": {
          "_NetworkId": "Swarm network ID",
          "_bzzToken": "Address of the staked ERC20 token"
        }
      },
      "depositStake(address,bytes32,uint256)": {
        "details": "At least `_initialBalancePerChunk*2^depth` number of tokens need to be preapproved for this contract.",
        "params": {
          "_owner": "Eth address used for overlay calculation.",
          "amount": "Deposited amount of ERC20 tokens.",
          "nonce": "Nonce that was used for overlay calculation."
        }
      },
      "freezeDeposit(bytes32,uint256)": {
        "details": "Freeze an existing stake, can only be called by the redistributor",
        "params": {
          "overlay": "the overlay selected",
          "time": "penalty length in blocknumbers"
        }
      },
      "getRoleAdmin(bytes32)": {
        "details": "Returns the admin role that controls `role`. See {grantRole} and {revokeRole}. To change a role's admin, use {_setRoleAdmin}."
      },
      "grantRole(bytes32,address)": {
        "details": "Grants `role` to `account`. If `account` had not been already granted `role`, emits a {RoleGranted} event. Requirements: - the caller must have ``role``'s admin role."
      },
      "hasRole(bytes32,address)": {
        "details": "Returns `true` if `account` has been granted `role`."
      },
      "lastUpdatedBlockNumberOfOverlay(bytes32)": {
        "details": "Returns the `lastUpdatedBlockNumber` of `overlay`."
      },
      "ownerOfOverlay(bytes32)": {
        "details": "Returns the eth address of the owner of `overlay`.",
        "params": {
          "overlay": "Overlay of node"
        }
      },
      "pause()": {
        "details": "Pause the contract. The contract is provably stopped by renouncing the pauser role and the admin role after pausing, can only be called by the `PAUSER`"
      },
      "paused()": {
        "details": "Returns true if the contract is paused, and false otherwise."
      },
      "renounceRole(bytes32,address)": {
        "details": "Revokes `role` from the calling account. Roles are often managed via {grantRole} and {revokeRole}: this function's purpose is to provide a mechanism for accounts to lose their privileges if they are compromised (such as when a trusted device is misplaced). If the calling account had been granted `role`, emits a {RoleRevoked} event. Requirements: - the caller must be `account`."
      },
      "revokeRole(bytes32,address)": {
        "details": "Revokes `role` from `account`. If `account` had been granted `role`, emits a {RoleRevoked} event. Requirements: - the caller must have ``role``'s admin role."
      },
      "slashDeposit(bytes32,uint256)": {
        "details": "Slash an existing stake, can only be called by the `redistributor`",
        "params": {
          "amount": "the amount to be slashed",
          "overlay": "the overlay selected"
        }
      },
      "stakeOfOverlay(bytes32)": {
        "details": "Returns the current `stakeAmount` of `overlay`.",
        "params": {
          "overlay": "Overlay of node"
        }
      },
      "supportsInterface(bytes4)": {
        "details": "See {IERC165-supportsInterface}."
      },
      "unPause()": {
        "details": "Unpause the contract, can only be called by the pauser when paused"
      },
      "usableStakeOfOverlay(bytes32)": {
        "details": "Returns the current usable `stakeAmount` of `overlay`. Checks whether the stake is currently frozen.",
        "params": {
          "overlay": "Overlay of node"
        }
      },
      "withdrawFromStake(bytes32,uint256)": {
        "details": "Withdraw stake only when the staking contract is paused, can only be called by the owner specific to the associated `overlay`",
        "params": {
          "amount": "The amount of ERC20 tokens to be withdrawn",
          "overlay": "The overlay to withdraw from"
        }
      }
    },
    "title": "Staking contract for the Swarm storage incentives",
    "version": 1
  },
  "userdoc": {
    "kind": "user",
    "methods": {
      "depositStake(address,bytes32,uint256)": {
        "notice": "Create a new stake or update an existing one."
      }
    },
    "version": 1
  }
}